{
	"contracts/Resolver.sol": {
		"AttesterResolver": {
			"abi": [
				{
					"inputs": [
						{
							"internalType": "contract IEAS",
							"name": "eas",
							"type": "address"
						},
						{
							"internalType": "address",
							"name": "targetRecepient",
							"type": "address"
						}
					],
					"stateMutability": "nonpayable",
					"type": "constructor"
				},
				{
					"inputs": [],
					"name": "AccessDenied",
					"type": "error"
				},
				{
					"inputs": [],
					"name": "InsufficientValue",
					"type": "error"
				},
				{
					"inputs": [],
					"name": "InvalidEAS",
					"type": "error"
				},
				{
					"inputs": [],
					"name": "InvalidLength",
					"type": "error"
				},
				{
					"inputs": [],
					"name": "NotPayable",
					"type": "error"
				},
				{
					"inputs": [
						{
							"components": [
								{
									"internalType": "bytes32",
									"name": "uid",
									"type": "bytes32"
								},
								{
									"internalType": "bytes32",
									"name": "schema",
									"type": "bytes32"
								},
								{
									"internalType": "uint64",
									"name": "time",
									"type": "uint64"
								},
								{
									"internalType": "uint64",
									"name": "expirationTime",
									"type": "uint64"
								},
								{
									"internalType": "uint64",
									"name": "revocationTime",
									"type": "uint64"
								},
								{
									"internalType": "bytes32",
									"name": "refUID",
									"type": "bytes32"
								},
								{
									"internalType": "address",
									"name": "recipient",
									"type": "address"
								},
								{
									"internalType": "address",
									"name": "attester",
									"type": "address"
								},
								{
									"internalType": "bool",
									"name": "revocable",
									"type": "bool"
								},
								{
									"internalType": "bytes",
									"name": "data",
									"type": "bytes"
								}
							],
							"internalType": "struct Attestation",
							"name": "attestation",
							"type": "tuple"
						}
					],
					"name": "attest",
					"outputs": [
						{
							"internalType": "bool",
							"name": "",
							"type": "bool"
						}
					],
					"stateMutability": "payable",
					"type": "function"
				},
				{
					"inputs": [],
					"name": "isPayable",
					"outputs": [
						{
							"internalType": "bool",
							"name": "",
							"type": "bool"
						}
					],
					"stateMutability": "pure",
					"type": "function"
				},
				{
					"inputs": [
						{
							"components": [
								{
									"internalType": "bytes32",
									"name": "uid",
									"type": "bytes32"
								},
								{
									"internalType": "bytes32",
									"name": "schema",
									"type": "bytes32"
								},
								{
									"internalType": "uint64",
									"name": "time",
									"type": "uint64"
								},
								{
									"internalType": "uint64",
									"name": "expirationTime",
									"type": "uint64"
								},
								{
									"internalType": "uint64",
									"name": "revocationTime",
									"type": "uint64"
								},
								{
									"internalType": "bytes32",
									"name": "refUID",
									"type": "bytes32"
								},
								{
									"internalType": "address",
									"name": "recipient",
									"type": "address"
								},
								{
									"internalType": "address",
									"name": "attester",
									"type": "address"
								},
								{
									"internalType": "bool",
									"name": "revocable",
									"type": "bool"
								},
								{
									"internalType": "bytes",
									"name": "data",
									"type": "bytes"
								}
							],
							"internalType": "struct Attestation[]",
							"name": "attestations",
							"type": "tuple[]"
						},
						{
							"internalType": "uint256[]",
							"name": "values",
							"type": "uint256[]"
						}
					],
					"name": "multiAttest",
					"outputs": [
						{
							"internalType": "bool",
							"name": "",
							"type": "bool"
						}
					],
					"stateMutability": "payable",
					"type": "function"
				},
				{
					"inputs": [
						{
							"components": [
								{
									"internalType": "bytes32",
									"name": "uid",
									"type": "bytes32"
								},
								{
									"internalType": "bytes32",
									"name": "schema",
									"type": "bytes32"
								},
								{
									"internalType": "uint64",
									"name": "time",
									"type": "uint64"
								},
								{
									"internalType": "uint64",
									"name": "expirationTime",
									"type": "uint64"
								},
								{
									"internalType": "uint64",
									"name": "revocationTime",
									"type": "uint64"
								},
								{
									"internalType": "bytes32",
									"name": "refUID",
									"type": "bytes32"
								},
								{
									"internalType": "address",
									"name": "recipient",
									"type": "address"
								},
								{
									"internalType": "address",
									"name": "attester",
									"type": "address"
								},
								{
									"internalType": "bool",
									"name": "revocable",
									"type": "bool"
								},
								{
									"internalType": "bytes",
									"name": "data",
									"type": "bytes"
								}
							],
							"internalType": "struct Attestation[]",
							"name": "attestations",
							"type": "tuple[]"
						},
						{
							"internalType": "uint256[]",
							"name": "values",
							"type": "uint256[]"
						}
					],
					"name": "multiRevoke",
					"outputs": [
						{
							"internalType": "bool",
							"name": "",
							"type": "bool"
						}
					],
					"stateMutability": "payable",
					"type": "function"
				},
				{
					"inputs": [
						{
							"components": [
								{
									"internalType": "bytes32",
									"name": "uid",
									"type": "bytes32"
								},
								{
									"internalType": "bytes32",
									"name": "schema",
									"type": "bytes32"
								},
								{
									"internalType": "uint64",
									"name": "time",
									"type": "uint64"
								},
								{
									"internalType": "uint64",
									"name": "expirationTime",
									"type": "uint64"
								},
								{
									"internalType": "uint64",
									"name": "revocationTime",
									"type": "uint64"
								},
								{
									"internalType": "bytes32",
									"name": "refUID",
									"type": "bytes32"
								},
								{
									"internalType": "address",
									"name": "recipient",
									"type": "address"
								},
								{
									"internalType": "address",
									"name": "attester",
									"type": "address"
								},
								{
									"internalType": "bool",
									"name": "revocable",
									"type": "bool"
								},
								{
									"internalType": "bytes",
									"name": "data",
									"type": "bytes"
								}
							],
							"internalType": "struct Attestation",
							"name": "attestation",
							"type": "tuple"
						}
					],
					"name": "revoke",
					"outputs": [
						{
							"internalType": "bool",
							"name": "",
							"type": "bool"
						}
					],
					"stateMutability": "payable",
					"type": "function"
				},
				{
					"inputs": [],
					"name": "version",
					"outputs": [
						{
							"internalType": "string",
							"name": "",
							"type": "string"
						}
					],
					"stateMutability": "view",
					"type": "function"
				},
				{
					"stateMutability": "payable",
					"type": "receive"
				}
			],
			"devdoc": {
				"kind": "dev",
				"methods": {
					"attest((bytes32,bytes32,uint64,uint64,uint64,bytes32,address,address,bool,bytes))": {
						"params": {
							"attestation": "The new attestation."
						},
						"returns": {
							"_0": "Whether the attestation is valid."
						}
					},
					"isPayable()": {
						"returns": {
							"_0": "Whether the resolver supports ETH transfers."
						}
					},
					"multiAttest((bytes32,bytes32,uint64,uint64,uint64,bytes32,address,address,bool,bytes)[],uint256[])": {
						"params": {
							"attestations": "The new attestations.",
							"values": "Explicit ETH amounts which were sent with each attestation."
						},
						"returns": {
							"_0": "Whether all the attestations are valid."
						}
					},
					"multiRevoke((bytes32,bytes32,uint64,uint64,uint64,bytes32,address,address,bool,bytes)[],uint256[])": {
						"params": {
							"attestations": "The existing attestations to be revoked.",
							"values": "Explicit ETH amounts which were sent with each revocation."
						},
						"returns": {
							"_0": "Whether the attestations can be revoked."
						}
					},
					"revoke((bytes32,bytes32,uint64,uint64,uint64,bytes32,address,address,bool,bytes))": {
						"params": {
							"attestation": "The existing attestation to be revoked."
						},
						"returns": {
							"_0": "Whether the attestation can be revoked."
						}
					},
					"version()": {
						"returns": {
							"_0": "Semver contract version as a string."
						}
					}
				},
				"title": "A sample schema resolver that checks whether the attestation is from a specific attester.",
				"version": 1
			},
			"evm": {
				"assembly": "    /* \"contracts/Resolver.sol\":602:1148  contract AttesterResolver is SchemaResolver {... */\n  mstore(0x40, 0x0120)\n    /* \"contracts/Resolver.sol\":701:819  constructor(IEAS eas, address targetRecepient) SchemaResolver(eas) {... */\n  callvalue\n  dup1\n  iszero\n  tag_1\n  jumpi\n  0x00\n  dup1\n  revert\ntag_1:\n  pop\n  mload(0x40)\n  sub(codesize, bytecodeSize)\n  dup1\n  bytecodeSize\n  dup4\n  codecopy\n  dup2\n  dup2\n  add\n  0x40\n  mstore\n  dup2\n  add\n  swap1\n  tag_2\n  swap2\n  swap1\n  tag_3\n  jump\t// in\ntag_2:\n    /* \"contracts/Resolver.sol\":763:766  eas */\n  dup2\n    /* \"@ethereum-attestation-service/eas-contracts/contracts/resolver/SchemaResolver.sol\":680:681  1 */\n  0x01\n    /* \"@ethereum-attestation-service/eas-contracts/contracts/resolver/SchemaResolver.sol\":683:684  2 */\n  0x02\n    /* \"@ethereum-attestation-service/eas-contracts/contracts/resolver/SchemaResolver.sol\":686:687  0 */\n  0x00\n    /* \"@ethereum-attestation-service/eas-contracts/contracts/Semver.sol\":714:719  major */\n  dup3\n    /* \"@ethereum-attestation-service/eas-contracts/contracts/Semver.sol\":705:719  _major = major */\n  0x80\n  dup2\n  dup2\n  mstore\n  pop\n  pop\n    /* \"@ethereum-attestation-service/eas-contracts/contracts/Semver.sol\":738:743  minor */\n  dup2\n    /* \"@ethereum-attestation-service/eas-contracts/contracts/Semver.sol\":729:743  _minor = minor */\n  0xa0\n  dup2\n  dup2\n  mstore\n  pop\n  pop\n    /* \"@ethereum-attestation-service/eas-contracts/contracts/Semver.sol\":761:766  patch */\n  dup1\n    /* \"@ethereum-attestation-service/eas-contracts/contracts/Semver.sol\":753:766  _path = patch */\n  0xc0\n  dup2\n  dup2\n  mstore\n  pop\n  pop\n    /* \"@ethereum-attestation-service/eas-contracts/contracts/Semver.sol\":638:773  constructor(uint256 major, uint256 minor, uint256 patch) {... */\n  pop\n  pop\n  pop\n    /* \"@ethereum-attestation-service/eas-contracts/contracts/resolver/SchemaResolver.sol\":727:728  0 */\n  0x00\n    /* \"@ethereum-attestation-service/eas-contracts/contracts/resolver/SchemaResolver.sol\":703:729  address(eas) == address(0) */\n  0xffffffffffffffffffffffffffffffffffffffff\n  and\n    /* \"@ethereum-attestation-service/eas-contracts/contracts/resolver/SchemaResolver.sol\":711:714  eas */\n  dup2\n    /* \"@ethereum-attestation-service/eas-contracts/contracts/resolver/SchemaResolver.sol\":703:729  address(eas) == address(0) */\n  0xffffffffffffffffffffffffffffffffffffffff\n  and\n  sub\n    /* \"@ethereum-attestation-service/eas-contracts/contracts/resolver/SchemaResolver.sol\":699:775  if (address(eas) == address(0)) {... */\n  tag_9\n  jumpi\n    /* \"@ethereum-attestation-service/eas-contracts/contracts/resolver/SchemaResolver.sol\":752:764  InvalidEAS() */\n  mload(0x40)\n  0x83780ffe00000000000000000000000000000000000000000000000000000000\n  dup2\n  mstore\n  0x04\n  add\n  mload(0x40)\n  dup1\n  swap2\n  sub\n  swap1\n  revert\n    /* \"@ethereum-attestation-service/eas-contracts/contracts/resolver/SchemaResolver.sol\":699:775  if (address(eas) == address(0)) {... */\ntag_9:\n    /* \"@ethereum-attestation-service/eas-contracts/contracts/resolver/SchemaResolver.sol\":792:795  eas */\n  dup1\n    /* \"@ethereum-attestation-service/eas-contracts/contracts/resolver/SchemaResolver.sol\":785:795  _eas = eas */\n  0xffffffffffffffffffffffffffffffffffffffff\n  and\n  0xe0\n  dup2\n  0xffffffffffffffffffffffffffffffffffffffff\n  and\n  dup2\n  mstore\n  pop\n  pop\n    /* \"@ethereum-attestation-service/eas-contracts/contracts/resolver/SchemaResolver.sol\":651:802  constructor(IEAS eas) Semver(1, 2, 0) {... */\n  pop\n    /* \"contracts/Resolver.sol\":797:812  targetRecepient */\n  dup1\n    /* \"contracts/Resolver.sol\":778:812  _targetRecepient = targetRecepient */\n  0xffffffffffffffffffffffffffffffffffffffff\n  and\n  0x0100\n  dup2\n  0xffffffffffffffffffffffffffffffffffffffff\n  and\n  dup2\n  mstore\n  pop\n  pop\n    /* \"contracts/Resolver.sol\":701:819  constructor(IEAS eas, address targetRecepient) SchemaResolver(eas) {... */\n  pop\n  pop\n    /* \"contracts/Resolver.sol\":602:1148  contract AttesterResolver is SchemaResolver {... */\n  jump(tag_11)\n    /* \"#utility.yul\":88:205   */\ntag_13:\n    /* \"#utility.yul\":197:198   */\n  0x00\n    /* \"#utility.yul\":194:195   */\n  dup1\n    /* \"#utility.yul\":187:199   */\n  revert\n    /* \"#utility.yul\":334:460   */\ntag_15:\n    /* \"#utility.yul\":371:378   */\n  0x00\n    /* \"#utility.yul\":411:453   */\n  0xffffffffffffffffffffffffffffffffffffffff\n    /* \"#utility.yul\":404:409   */\n  dup3\n    /* \"#utility.yul\":400:454   */\n  and\n    /* \"#utility.yul\":389:454   */\n  swap1\n  pop\n    /* \"#utility.yul\":334:460   */\n  swap2\n  swap1\n  pop\n  jump\t// out\n    /* \"#utility.yul\":466:562   */\ntag_16:\n    /* \"#utility.yul\":503:510   */\n  0x00\n    /* \"#utility.yul\":532:556   */\n  tag_28\n    /* \"#utility.yul\":550:555   */\n  dup3\n    /* \"#utility.yul\":532:556   */\n  tag_15\n  jump\t// in\ntag_28:\n    /* \"#utility.yul\":521:556   */\n  swap1\n  pop\n    /* \"#utility.yul\":466:562   */\n  swap2\n  swap1\n  pop\n  jump\t// out\n    /* \"#utility.yul\":568:676   */\ntag_17:\n    /* \"#utility.yul\":617:624   */\n  0x00\n    /* \"#utility.yul\":646:670   */\n  tag_30\n    /* \"#utility.yul\":664:669   */\n  dup3\n    /* \"#utility.yul\":646:670   */\n  tag_16\n  jump\t// in\ntag_30:\n    /* \"#utility.yul\":635:670   */\n  swap1\n  pop\n    /* \"#utility.yul\":568:676   */\n  swap2\n  swap1\n  pop\n  jump\t// out\n    /* \"#utility.yul\":682:828   */\ntag_18:\n    /* \"#utility.yul\":767:803   */\n  tag_32\n    /* \"#utility.yul\":797:802   */\n  dup2\n    /* \"#utility.yul\":767:803   */\n  tag_17\n  jump\t// in\ntag_32:\n    /* \"#utility.yul\":760:765   */\n  dup2\n    /* \"#utility.yul\":757:804   */\n  eq\n    /* \"#utility.yul\":747:822   */\n  tag_33\n  jumpi\n    /* \"#utility.yul\":818:819   */\n  0x00\n    /* \"#utility.yul\":815:816   */\n  dup1\n    /* \"#utility.yul\":808:820   */\n  revert\n    /* \"#utility.yul\":747:822   */\ntag_33:\n    /* \"#utility.yul\":682:828   */\n  pop\n  jump\t// out\n    /* \"#utility.yul\":834:1001   */\ntag_19:\n    /* \"#utility.yul\":903:908   */\n  0x00\n    /* \"#utility.yul\":934:940   */\n  dup2\n    /* \"#utility.yul\":928:941   */\n  mload\n    /* \"#utility.yul\":919:941   */\n  swap1\n  pop\n    /* \"#utility.yul\":950:995   */\n  tag_35\n    /* \"#utility.yul\":989:994   */\n  dup2\n    /* \"#utility.yul\":950:995   */\n  tag_18\n  jump\t// in\ntag_35:\n    /* \"#utility.yul\":834:1001   */\n  swap3\n  swap2\n  pop\n  pop\n  jump\t// out\n    /* \"#utility.yul\":1007:1129   */\ntag_20:\n    /* \"#utility.yul\":1080:1104   */\n  tag_37\n    /* \"#utility.yul\":1098:1103   */\n  dup2\n    /* \"#utility.yul\":1080:1104   */\n  tag_16\n  jump\t// in\ntag_37:\n    /* \"#utility.yul\":1073:1078   */\n  dup2\n    /* \"#utility.yul\":1070:1105   */\n  eq\n    /* \"#utility.yul\":1060:1123   */\n  tag_38\n  jumpi\n    /* \"#utility.yul\":1119:1120   */\n  0x00\n    /* \"#utility.yul\":1116:1117   */\n  dup1\n    /* \"#utility.yul\":1109:1121   */\n  revert\n    /* \"#utility.yul\":1060:1123   */\ntag_38:\n    /* \"#utility.yul\":1007:1129   */\n  pop\n  jump\t// out\n    /* \"#utility.yul\":1135:1278   */\ntag_21:\n    /* \"#utility.yul\":1192:1197   */\n  0x00\n    /* \"#utility.yul\":1223:1229   */\n  dup2\n    /* \"#utility.yul\":1217:1230   */\n  mload\n    /* \"#utility.yul\":1208:1230   */\n  swap1\n  pop\n    /* \"#utility.yul\":1239:1272   */\n  tag_40\n    /* \"#utility.yul\":1266:1271   */\n  dup2\n    /* \"#utility.yul\":1239:1272   */\n  tag_20\n  jump\t// in\ntag_40:\n    /* \"#utility.yul\":1135:1278   */\n  swap3\n  swap2\n  pop\n  pop\n  jump\t// out\n    /* \"#utility.yul\":1284:1815   */\ntag_3:\n    /* \"#utility.yul\":1375:1381   */\n  0x00\n    /* \"#utility.yul\":1383:1389   */\n  dup1\n    /* \"#utility.yul\":1432:1434   */\n  0x40\n    /* \"#utility.yul\":1420:1429   */\n  dup4\n    /* \"#utility.yul\":1411:1418   */\n  dup6\n    /* \"#utility.yul\":1407:1430   */\n  sub\n    /* \"#utility.yul\":1403:1435   */\n  slt\n    /* \"#utility.yul\":1400:1519   */\n  iszero\n  tag_42\n  jumpi\n    /* \"#utility.yul\":1438:1517   */\n  tag_43\n  tag_13\n  jump\t// in\ntag_43:\n    /* \"#utility.yul\":1400:1519   */\ntag_42:\n    /* \"#utility.yul\":1558:1559   */\n  0x00\n    /* \"#utility.yul\":1583:1659   */\n  tag_44\n    /* \"#utility.yul\":1651:1658   */\n  dup6\n    /* \"#utility.yul\":1642:1648   */\n  dup3\n    /* \"#utility.yul\":1631:1640   */\n  dup7\n    /* \"#utility.yul\":1627:1649   */\n  add\n    /* \"#utility.yul\":1583:1659   */\n  tag_19\n  jump\t// in\ntag_44:\n    /* \"#utility.yul\":1573:1659   */\n  swap3\n  pop\n    /* \"#utility.yul\":1529:1669   */\n  pop\n    /* \"#utility.yul\":1708:1710   */\n  0x20\n    /* \"#utility.yul\":1734:1798   */\n  tag_45\n    /* \"#utility.yul\":1790:1797   */\n  dup6\n    /* \"#utility.yul\":1781:1787   */\n  dup3\n    /* \"#utility.yul\":1770:1779   */\n  dup7\n    /* \"#utility.yul\":1766:1788   */\n  add\n    /* \"#utility.yul\":1734:1798   */\n  tag_21\n  jump\t// in\ntag_45:\n    /* \"#utility.yul\":1724:1798   */\n  swap2\n  pop\n    /* \"#utility.yul\":1679:1808   */\n  pop\n    /* \"#utility.yul\":1284:1815   */\n  swap3\n  pop\n  swap3\n  swap1\n  pop\n  jump\t// out\n    /* \"contracts/Resolver.sol\":602:1148  contract AttesterResolver is SchemaResolver {... */\ntag_11:\n  mload(0x80)\n  mload(0xa0)\n  mload(0xc0)\n  mload(0xe0)\n  mload(0x0100)\n  codecopy(0x00, dataOffset(sub_0), dataSize(sub_0))\n  0x00\n  assignImmutable(\"0xa07c19efc73020733d74df24211ba72aa9c07ba4a2ae13ac79a338a4d8b59fe5\")\n  0x00\n  assignImmutable(\"0x673736316b95e559f74d3df3ec317a8befa2b1e479645eed67cb97503d5fbec1\")\n  0x00\n  assignImmutable(\"0x983c9f9923666d71abefd6ca274543532a86910a4b5c1edaaec46ca6b31d59a3\")\n  0x00\n  assignImmutable(\"0x7a80aab8ee1b9114f05440301177d10784c915c9e300d985d7e845429f5da96a\")\n  0x00\n  assignImmutable(\"0xa388062d78f1a2d144017f8c547d4d5d19f402e886d20c722565d2dbced566d6\")\n  return(0x00, dataSize(sub_0))\nstop\n\nsub_0: assembly {\n        /* \"contracts/Resolver.sol\":602:1148  contract AttesterResolver is SchemaResolver {... */\n      mstore(0x40, 0x80)\n      jumpi(tag_1, lt(calldatasize, 0x04))\n      shr(0xe0, calldataload(0x00))\n      dup1\n      0x54fd4d50\n      eq\n      tag_3\n      jumpi\n      dup1\n      0x88e5b2d9\n      eq\n      tag_4\n      jumpi\n      dup1\n      0x91db0b7e\n      eq\n      tag_5\n      jumpi\n      dup1\n      0xce46e046\n      eq\n      tag_6\n      jumpi\n      dup1\n      0xe49617e1\n      eq\n      tag_7\n      jumpi\n      dup1\n      0xe60c3505\n      eq\n      tag_8\n      jumpi\n      jump(tag_2)\n    tag_1:\n      jumpi(tag_2, calldatasize)\n        /* \"@ethereum-attestation-service/eas-contracts/contracts/resolver/SchemaResolver.sol\":1144:1155  isPayable() */\n      tag_11\n        /* \"@ethereum-attestation-service/eas-contracts/contracts/resolver/SchemaResolver.sol\":1144:1153  isPayable */\n      tag_12\n        /* \"@ethereum-attestation-service/eas-contracts/contracts/resolver/SchemaResolver.sol\":1144:1155  isPayable() */\n      jump\t// in\n    tag_11:\n        /* \"@ethereum-attestation-service/eas-contracts/contracts/resolver/SchemaResolver.sol\":1139:1201  if (!isPayable()) {... */\n      tag_13\n      jumpi\n        /* \"@ethereum-attestation-service/eas-contracts/contracts/resolver/SchemaResolver.sol\":1178:1190  NotPayable() */\n      mload(0x40)\n      0x1574f9f300000000000000000000000000000000000000000000000000000000\n      dup2\n      mstore\n      0x04\n      add\n      mload(0x40)\n      dup1\n      swap2\n      sub\n      swap1\n      revert\n        /* \"@ethereum-attestation-service/eas-contracts/contracts/resolver/SchemaResolver.sol\":1139:1201  if (!isPayable()) {... */\n    tag_13:\n        /* \"contracts/Resolver.sol\":602:1148  contract AttesterResolver is SchemaResolver {... */\n      stop\n    tag_2:\n      0x00\n      dup1\n      revert\n        /* \"@ethereum-attestation-service/eas-contracts/contracts/Semver.sol\":890:1124  function version() external view returns (string memory) {... */\n    tag_3:\n      callvalue\n      dup1\n      iszero\n      tag_14\n      jumpi\n      0x00\n      dup1\n      revert\n    tag_14:\n      pop\n      tag_15\n      tag_16\n      jump\t// in\n    tag_15:\n      mload(0x40)\n      tag_17\n      swap2\n      swap1\n      tag_18\n      jump\t// in\n    tag_17:\n      mload(0x40)\n      dup1\n      swap2\n      sub\n      swap1\n      return\n        /* \"@ethereum-attestation-service/eas-contracts/contracts/resolver/SchemaResolver.sol\":3128:4588  function multiRevoke(... */\n    tag_4:\n      tag_19\n      0x04\n      dup1\n      calldatasize\n      sub\n      dup2\n      add\n      swap1\n      tag_20\n      swap2\n      swap1\n      tag_21\n      jump\t// in\n    tag_20:\n      tag_22\n      jump\t// in\n    tag_19:\n      mload(0x40)\n      tag_23\n      swap2\n      swap1\n      tag_24\n      jump\t// in\n    tag_23:\n      mload(0x40)\n      dup1\n      swap2\n      sub\n      swap1\n      return\n        /* \"@ethereum-attestation-service/eas-contracts/contracts/resolver/SchemaResolver.sol\":1437:2898  function multiAttest(... */\n    tag_5:\n      tag_25\n      0x04\n      dup1\n      calldatasize\n      sub\n      dup2\n      add\n      swap1\n      tag_26\n      swap2\n      swap1\n      tag_21\n      jump\t// in\n    tag_26:\n      tag_27\n      jump\t// in\n    tag_25:\n      mload(0x40)\n      tag_28\n      swap2\n      swap1\n      tag_24\n      jump\t// in\n    tag_28:\n      mload(0x40)\n      dup1\n      swap2\n      sub\n      swap1\n      return\n        /* \"@ethereum-attestation-service/eas-contracts/contracts/resolver/SchemaResolver.sol\":976:1061  function isPayable() public pure virtual returns (bool) {... */\n    tag_6:\n      callvalue\n      dup1\n      iszero\n      tag_29\n      jumpi\n      0x00\n      dup1\n      revert\n    tag_29:\n      pop\n      tag_30\n      tag_12\n      jump\t// in\n    tag_30:\n      mload(0x40)\n      tag_31\n      swap2\n      swap1\n      tag_24\n      jump\t// in\n    tag_31:\n      mload(0x40)\n      dup1\n      swap2\n      sub\n      swap1\n      return\n        /* \"@ethereum-attestation-service/eas-contracts/contracts/resolver/SchemaResolver.sol\":2940:3086  function revoke(Attestation calldata attestation) external payable onlyEAS returns (bool) {... */\n    tag_7:\n      tag_32\n      0x04\n      dup1\n      calldatasize\n      sub\n      dup2\n      add\n      swap1\n      tag_33\n      swap2\n      swap1\n      tag_34\n      jump\t// in\n    tag_33:\n      tag_35\n      jump\t// in\n    tag_32:\n      mload(0x40)\n      tag_36\n      swap2\n      swap1\n      tag_24\n      jump\t// in\n    tag_36:\n      mload(0x40)\n      dup1\n      swap2\n      sub\n      swap1\n      return\n        /* \"@ethereum-attestation-service/eas-contracts/contracts/resolver/SchemaResolver.sol\":1249:1395  function attest(Attestation calldata attestation) external payable onlyEAS returns (bool) {... */\n    tag_8:\n      tag_37\n      0x04\n      dup1\n      calldatasize\n      sub\n      dup2\n      add\n      swap1\n      tag_38\n      swap2\n      swap1\n      tag_34\n      jump\t// in\n    tag_38:\n      tag_39\n      jump\t// in\n    tag_37:\n      mload(0x40)\n      tag_40\n      swap2\n      swap1\n      tag_24\n      jump\t// in\n    tag_40:\n      mload(0x40)\n      dup1\n      swap2\n      sub\n      swap1\n      return\n        /* \"@ethereum-attestation-service/eas-contracts/contracts/resolver/SchemaResolver.sol\":976:1061  function isPayable() public pure virtual returns (bool) {... */\n    tag_12:\n        /* \"@ethereum-attestation-service/eas-contracts/contracts/resolver/SchemaResolver.sol\":1026:1030  bool */\n      0x00\n        /* \"@ethereum-attestation-service/eas-contracts/contracts/resolver/SchemaResolver.sol\":976:1061  function isPayable() public pure virtual returns (bool) {... */\n      swap1\n      jump\t// out\n        /* \"@ethereum-attestation-service/eas-contracts/contracts/Semver.sol\":890:1124  function version() external view returns (string memory) {... */\n    tag_16:\n        /* \"@ethereum-attestation-service/eas-contracts/contracts/Semver.sol\":932:945  string memory */\n      0x60\n        /* \"@ethereum-attestation-service/eas-contracts/contracts/Semver.sol\":1017:1041  Strings.toString(_major) */\n      tag_43\n        /* \"@ethereum-attestation-service/eas-contracts/contracts/Semver.sol\":1034:1040  _major */\n      immutable(\"0xa388062d78f1a2d144017f8c547d4d5d19f402e886d20c722565d2dbced566d6\")\n        /* \"@ethereum-attestation-service/eas-contracts/contracts/Semver.sol\":1017:1033  Strings.toString */\n      tag_44\n        /* \"@ethereum-attestation-service/eas-contracts/contracts/Semver.sol\":1017:1041  Strings.toString(_major) */\n      jump\t// in\n    tag_43:\n        /* \"@ethereum-attestation-service/eas-contracts/contracts/Semver.sol\":1048:1072  Strings.toString(_minor) */\n      tag_45\n        /* \"@ethereum-attestation-service/eas-contracts/contracts/Semver.sol\":1065:1071  _minor */\n      immutable(\"0x7a80aab8ee1b9114f05440301177d10784c915c9e300d985d7e845429f5da96a\")\n        /* \"@ethereum-attestation-service/eas-contracts/contracts/Semver.sol\":1048:1064  Strings.toString */\n      tag_44\n        /* \"@ethereum-attestation-service/eas-contracts/contracts/Semver.sol\":1048:1072  Strings.toString(_minor) */\n      jump\t// in\n    tag_45:\n        /* \"@ethereum-attestation-service/eas-contracts/contracts/Semver.sol\":1079:1102  Strings.toString(_path) */\n      tag_46\n        /* \"@ethereum-attestation-service/eas-contracts/contracts/Semver.sol\":1096:1101  _path */\n      immutable(\"0x983c9f9923666d71abefd6ca274543532a86910a4b5c1edaaec46ca6b31d59a3\")\n        /* \"@ethereum-attestation-service/eas-contracts/contracts/Semver.sol\":1079:1095  Strings.toString */\n      tag_44\n        /* \"@ethereum-attestation-service/eas-contracts/contracts/Semver.sol\":1079:1102  Strings.toString(_path) */\n      jump\t// in\n    tag_46:\n        /* \"@ethereum-attestation-service/eas-contracts/contracts/Semver.sol\":1000:1103  abi.encodePacked(Strings.toString(_major), \".\", Strings.toString(_minor), \".\", Strings.toString(_path)) */\n      add(0x20, mload(0x40))\n      tag_47\n      swap4\n      swap3\n      swap2\n      swap1\n      tag_48\n      jump\t// in\n    tag_47:\n      mload(0x40)\n      0x20\n      dup2\n      dup4\n      sub\n      sub\n      dup2\n      mstore\n      swap1\n      0x40\n      mstore\n        /* \"@ethereum-attestation-service/eas-contracts/contracts/Semver.sol\":957:1117  return... */\n      swap1\n      pop\n        /* \"@ethereum-attestation-service/eas-contracts/contracts/Semver.sol\":890:1124  function version() external view returns (string memory) {... */\n      swap1\n      jump\t// out\n        /* \"@ethereum-attestation-service/eas-contracts/contracts/resolver/SchemaResolver.sol\":3128:4588  function multiRevoke(... */\n    tag_22:\n        /* \"@ethereum-attestation-service/eas-contracts/contracts/resolver/SchemaResolver.sol\":3269:3273  bool */\n      0x00\n        /* \"@ethereum-attestation-service/eas-contracts/contracts/resolver/SchemaResolver.sol\":905:915  _onlyEAS() */\n      tag_50\n        /* \"@ethereum-attestation-service/eas-contracts/contracts/resolver/SchemaResolver.sol\":905:913  _onlyEAS */\n      tag_51\n        /* \"@ethereum-attestation-service/eas-contracts/contracts/resolver/SchemaResolver.sol\":905:915  _onlyEAS() */\n      jump\t// in\n    tag_50:\n        /* \"@ethereum-attestation-service/eas-contracts/contracts/resolver/SchemaResolver.sol\":3285:3299  uint256 length */\n      0x00\n        /* \"@ethereum-attestation-service/eas-contracts/contracts/resolver/SchemaResolver.sol\":3302:3314  attestations */\n      dup6\n      dup6\n        /* \"@ethereum-attestation-service/eas-contracts/contracts/resolver/SchemaResolver.sol\":3302:3321  attestations.length */\n      swap1\n      pop\n        /* \"@ethereum-attestation-service/eas-contracts/contracts/resolver/SchemaResolver.sol\":3285:3321  uint256 length = attestations.length */\n      swap1\n      pop\n        /* \"@ethereum-attestation-service/eas-contracts/contracts/resolver/SchemaResolver.sol\":3345:3351  values */\n      dup4\n      dup4\n        /* \"@ethereum-attestation-service/eas-contracts/contracts/resolver/SchemaResolver.sol\":3345:3358  values.length */\n      swap1\n      pop\n        /* \"@ethereum-attestation-service/eas-contracts/contracts/resolver/SchemaResolver.sol\":3335:3341  length */\n      dup2\n        /* \"@ethereum-attestation-service/eas-contracts/contracts/resolver/SchemaResolver.sol\":3335:3358  length != values.length */\n      eq\n        /* \"@ethereum-attestation-service/eas-contracts/contracts/resolver/SchemaResolver.sol\":3331:3407  if (length != values.length) {... */\n      tag_53\n      jumpi\n        /* \"@ethereum-attestation-service/eas-contracts/contracts/resolver/SchemaResolver.sol\":3381:3396  InvalidLength() */\n      mload(0x40)\n      0x947d5a8400000000000000000000000000000000000000000000000000000000\n      dup2\n      mstore\n      0x04\n      add\n      mload(0x40)\n      dup1\n      swap2\n      sub\n      swap1\n      revert\n        /* \"@ethereum-attestation-service/eas-contracts/contracts/resolver/SchemaResolver.sol\":3331:3407  if (length != values.length) {... */\n    tag_53:\n        /* \"@ethereum-attestation-service/eas-contracts/contracts/resolver/SchemaResolver.sol\":3814:3836  uint256 remainingValue */\n      0x00\n        /* \"@ethereum-attestation-service/eas-contracts/contracts/resolver/SchemaResolver.sol\":3839:3848  msg.value */\n      callvalue\n        /* \"@ethereum-attestation-service/eas-contracts/contracts/resolver/SchemaResolver.sol\":3814:3848  uint256 remainingValue = msg.value */\n      swap1\n      pop\n        /* \"@ethereum-attestation-service/eas-contracts/contracts/resolver/SchemaResolver.sol\":3864:3873  uint256 i */\n      0x00\n        /* \"@ethereum-attestation-service/eas-contracts/contracts/resolver/SchemaResolver.sol\":3859:4560  for (uint256 i = 0; i < length; i = uncheckedInc(i)) {... */\n    tag_54:\n        /* \"@ethereum-attestation-service/eas-contracts/contracts/resolver/SchemaResolver.sol\":3883:3889  length */\n      dup3\n        /* \"@ethereum-attestation-service/eas-contracts/contracts/resolver/SchemaResolver.sol\":3879:3880  i */\n      dup2\n        /* \"@ethereum-attestation-service/eas-contracts/contracts/resolver/SchemaResolver.sol\":3879:3889  i < length */\n      lt\n        /* \"@ethereum-attestation-service/eas-contracts/contracts/resolver/SchemaResolver.sol\":3859:4560  for (uint256 i = 0; i < length; i = uncheckedInc(i)) {... */\n      iszero\n      tag_55\n      jumpi\n        /* \"@ethereum-attestation-service/eas-contracts/contracts/resolver/SchemaResolver.sol\":4016:4029  uint256 value */\n      0x00\n        /* \"@ethereum-attestation-service/eas-contracts/contracts/resolver/SchemaResolver.sol\":4032:4038  values */\n      dup7\n      dup7\n        /* \"@ethereum-attestation-service/eas-contracts/contracts/resolver/SchemaResolver.sol\":4039:4040  i */\n      dup4\n        /* \"@ethereum-attestation-service/eas-contracts/contracts/resolver/SchemaResolver.sol\":4032:4041  values[i] */\n      dup2\n      dup2\n      lt\n      tag_57\n      jumpi\n      tag_58\n      tag_59\n      jump\t// in\n    tag_58:\n    tag_57:\n      swap1\n      pop\n      0x20\n      mul\n      add\n      calldataload\n        /* \"@ethereum-attestation-service/eas-contracts/contracts/resolver/SchemaResolver.sol\":4016:4041  uint256 value = values[i] */\n      swap1\n      pop\n        /* \"@ethereum-attestation-service/eas-contracts/contracts/resolver/SchemaResolver.sol\":4067:4081  remainingValue */\n      dup3\n        /* \"@ethereum-attestation-service/eas-contracts/contracts/resolver/SchemaResolver.sol\":4059:4064  value */\n      dup2\n        /* \"@ethereum-attestation-service/eas-contracts/contracts/resolver/SchemaResolver.sol\":4059:4081  value > remainingValue */\n      gt\n        /* \"@ethereum-attestation-service/eas-contracts/contracts/resolver/SchemaResolver.sol\":4055:4142  if (value > remainingValue) {... */\n      iszero\n      tag_60\n      jumpi\n        /* \"@ethereum-attestation-service/eas-contracts/contracts/resolver/SchemaResolver.sol\":4108:4127  InsufficientValue() */\n      mload(0x40)\n      0x1101129400000000000000000000000000000000000000000000000000000000\n      dup2\n      mstore\n      0x04\n      add\n      mload(0x40)\n      dup1\n      swap2\n      sub\n      swap1\n      revert\n        /* \"@ethereum-attestation-service/eas-contracts/contracts/resolver/SchemaResolver.sol\":4055:4142  if (value > remainingValue) {... */\n    tag_60:\n        /* \"@ethereum-attestation-service/eas-contracts/contracts/resolver/SchemaResolver.sol\":4270:4302  onRevoke(attestations[i], value) */\n      tag_61\n        /* \"@ethereum-attestation-service/eas-contracts/contracts/resolver/SchemaResolver.sol\":4279:4291  attestations */\n      dup10\n      dup10\n        /* \"@ethereum-attestation-service/eas-contracts/contracts/resolver/SchemaResolver.sol\":4292:4293  i */\n      dup5\n        /* \"@ethereum-attestation-service/eas-contracts/contracts/resolver/SchemaResolver.sol\":4279:4294  attestations[i] */\n      dup2\n      dup2\n      lt\n      tag_62\n      jumpi\n      tag_63\n      tag_59\n      jump\t// in\n    tag_63:\n    tag_62:\n      swap1\n      pop\n      0x20\n      mul\n      dup2\n      add\n      swap1\n      tag_64\n      swap2\n      swap1\n      tag_65\n      jump\t// in\n    tag_64:\n        /* \"@ethereum-attestation-service/eas-contracts/contracts/resolver/SchemaResolver.sol\":4296:4301  value */\n      dup3\n        /* \"@ethereum-attestation-service/eas-contracts/contracts/resolver/SchemaResolver.sol\":4270:4278  onRevoke */\n      tag_66\n        /* \"@ethereum-attestation-service/eas-contracts/contracts/resolver/SchemaResolver.sol\":4270:4302  onRevoke(attestations[i], value) */\n      jump\t// in\n    tag_61:\n        /* \"@ethereum-attestation-service/eas-contracts/contracts/resolver/SchemaResolver.sol\":4265:4349  if (!onRevoke(attestations[i], value)) {... */\n      tag_67\n      jumpi\n        /* \"@ethereum-attestation-service/eas-contracts/contracts/resolver/SchemaResolver.sol\":4329:4334  false */\n      0x00\n        /* \"@ethereum-attestation-service/eas-contracts/contracts/resolver/SchemaResolver.sol\":4322:4334  return false */\n      swap5\n      pop\n      pop\n      pop\n      pop\n      pop\n      jump(tag_52)\n        /* \"@ethereum-attestation-service/eas-contracts/contracts/resolver/SchemaResolver.sol\":4265:4349  if (!onRevoke(attestations[i], value)) {... */\n    tag_67:\n        /* \"@ethereum-attestation-service/eas-contracts/contracts/resolver/SchemaResolver.sol\":4530:4535  value */\n      dup1\n        /* \"@ethereum-attestation-service/eas-contracts/contracts/resolver/SchemaResolver.sol\":4512:4535  remainingValue -= value */\n      dup4\n      sub\n      swap3\n      pop\n        /* \"@ethereum-attestation-service/eas-contracts/contracts/resolver/SchemaResolver.sol\":3912:4560  {... */\n      pop\n        /* \"@ethereum-attestation-service/eas-contracts/contracts/resolver/SchemaResolver.sol\":3895:3910  uncheckedInc(i) */\n      tag_68\n        /* \"@ethereum-attestation-service/eas-contracts/contracts/resolver/SchemaResolver.sol\":3908:3909  i */\n      dup2\n        /* \"@ethereum-attestation-service/eas-contracts/contracts/resolver/SchemaResolver.sol\":3895:3907  uncheckedInc */\n      tag_69\n        /* \"@ethereum-attestation-service/eas-contracts/contracts/resolver/SchemaResolver.sol\":3895:3910  uncheckedInc(i) */\n      jump\t// in\n    tag_68:\n        /* \"@ethereum-attestation-service/eas-contracts/contracts/resolver/SchemaResolver.sol\":3891:3910  i = uncheckedInc(i) */\n      swap1\n      pop\n        /* \"@ethereum-attestation-service/eas-contracts/contracts/resolver/SchemaResolver.sol\":3859:4560  for (uint256 i = 0; i < length; i = uncheckedInc(i)) {... */\n      jump(tag_54)\n    tag_55:\n      pop\n        /* \"@ethereum-attestation-service/eas-contracts/contracts/resolver/SchemaResolver.sol\":4577:4581  true */\n      0x01\n        /* \"@ethereum-attestation-service/eas-contracts/contracts/resolver/SchemaResolver.sol\":4570:4581  return true */\n      swap3\n      pop\n      pop\n      pop\n        /* \"@ethereum-attestation-service/eas-contracts/contracts/resolver/SchemaResolver.sol\":926:927  _ */\n    tag_52:\n        /* \"@ethereum-attestation-service/eas-contracts/contracts/resolver/SchemaResolver.sol\":3128:4588  function multiRevoke(... */\n      swap5\n      swap4\n      pop\n      pop\n      pop\n      pop\n      jump\t// out\n        /* \"@ethereum-attestation-service/eas-contracts/contracts/resolver/SchemaResolver.sol\":1437:2898  function multiAttest(... */\n    tag_27:\n        /* \"@ethereum-attestation-service/eas-contracts/contracts/resolver/SchemaResolver.sol\":1578:1582  bool */\n      0x00\n        /* \"@ethereum-attestation-service/eas-contracts/contracts/resolver/SchemaResolver.sol\":905:915  _onlyEAS() */\n      tag_71\n        /* \"@ethereum-attestation-service/eas-contracts/contracts/resolver/SchemaResolver.sol\":905:913  _onlyEAS */\n      tag_51\n        /* \"@ethereum-attestation-service/eas-contracts/contracts/resolver/SchemaResolver.sol\":905:915  _onlyEAS() */\n      jump\t// in\n    tag_71:\n        /* \"@ethereum-attestation-service/eas-contracts/contracts/resolver/SchemaResolver.sol\":1594:1608  uint256 length */\n      0x00\n        /* \"@ethereum-attestation-service/eas-contracts/contracts/resolver/SchemaResolver.sol\":1611:1623  attestations */\n      dup6\n      dup6\n        /* \"@ethereum-attestation-service/eas-contracts/contracts/resolver/SchemaResolver.sol\":1611:1630  attestations.length */\n      swap1\n      pop\n        /* \"@ethereum-attestation-service/eas-contracts/contracts/resolver/SchemaResolver.sol\":1594:1630  uint256 length = attestations.length */\n      swap1\n      pop\n        /* \"@ethereum-attestation-service/eas-contracts/contracts/resolver/SchemaResolver.sol\":1654:1660  values */\n      dup4\n      dup4\n        /* \"@ethereum-attestation-service/eas-contracts/contracts/resolver/SchemaResolver.sol\":1654:1667  values.length */\n      swap1\n      pop\n        /* \"@ethereum-attestation-service/eas-contracts/contracts/resolver/SchemaResolver.sol\":1644:1650  length */\n      dup2\n        /* \"@ethereum-attestation-service/eas-contracts/contracts/resolver/SchemaResolver.sol\":1644:1667  length != values.length */\n      eq\n        /* \"@ethereum-attestation-service/eas-contracts/contracts/resolver/SchemaResolver.sol\":1640:1716  if (length != values.length) {... */\n      tag_73\n      jumpi\n        /* \"@ethereum-attestation-service/eas-contracts/contracts/resolver/SchemaResolver.sol\":1690:1705  InvalidLength() */\n      mload(0x40)\n      0x947d5a8400000000000000000000000000000000000000000000000000000000\n      dup2\n      mstore\n      0x04\n      add\n      mload(0x40)\n      dup1\n      swap2\n      sub\n      swap1\n      revert\n        /* \"@ethereum-attestation-service/eas-contracts/contracts/resolver/SchemaResolver.sol\":1640:1716  if (length != values.length) {... */\n    tag_73:\n        /* \"@ethereum-attestation-service/eas-contracts/contracts/resolver/SchemaResolver.sol\":2123:2145  uint256 remainingValue */\n      0x00\n        /* \"@ethereum-attestation-service/eas-contracts/contracts/resolver/SchemaResolver.sol\":2148:2157  msg.value */\n      callvalue\n        /* \"@ethereum-attestation-service/eas-contracts/contracts/resolver/SchemaResolver.sol\":2123:2157  uint256 remainingValue = msg.value */\n      swap1\n      pop\n        /* \"@ethereum-attestation-service/eas-contracts/contracts/resolver/SchemaResolver.sol\":2173:2182  uint256 i */\n      0x00\n        /* \"@ethereum-attestation-service/eas-contracts/contracts/resolver/SchemaResolver.sol\":2168:2870  for (uint256 i = 0; i < length; i = uncheckedInc(i)) {... */\n    tag_74:\n        /* \"@ethereum-attestation-service/eas-contracts/contracts/resolver/SchemaResolver.sol\":2192:2198  length */\n      dup3\n        /* \"@ethereum-attestation-service/eas-contracts/contracts/resolver/SchemaResolver.sol\":2188:2189  i */\n      dup2\n        /* \"@ethereum-attestation-service/eas-contracts/contracts/resolver/SchemaResolver.sol\":2188:2198  i < length */\n      lt\n        /* \"@ethereum-attestation-service/eas-contracts/contracts/resolver/SchemaResolver.sol\":2168:2870  for (uint256 i = 0; i < length; i = uncheckedInc(i)) {... */\n      iszero\n      tag_75\n      jumpi\n        /* \"@ethereum-attestation-service/eas-contracts/contracts/resolver/SchemaResolver.sol\":2325:2338  uint256 value */\n      0x00\n        /* \"@ethereum-attestation-service/eas-contracts/contracts/resolver/SchemaResolver.sol\":2341:2347  values */\n      dup7\n      dup7\n        /* \"@ethereum-attestation-service/eas-contracts/contracts/resolver/SchemaResolver.sol\":2348:2349  i */\n      dup4\n        /* \"@ethereum-attestation-service/eas-contracts/contracts/resolver/SchemaResolver.sol\":2341:2350  values[i] */\n      dup2\n      dup2\n      lt\n      tag_77\n      jumpi\n      tag_78\n      tag_59\n      jump\t// in\n    tag_78:\n    tag_77:\n      swap1\n      pop\n      0x20\n      mul\n      add\n      calldataload\n        /* \"@ethereum-attestation-service/eas-contracts/contracts/resolver/SchemaResolver.sol\":2325:2350  uint256 value = values[i] */\n      swap1\n      pop\n        /* \"@ethereum-attestation-service/eas-contracts/contracts/resolver/SchemaResolver.sol\":2376:2390  remainingValue */\n      dup3\n        /* \"@ethereum-attestation-service/eas-contracts/contracts/resolver/SchemaResolver.sol\":2368:2373  value */\n      dup2\n        /* \"@ethereum-attestation-service/eas-contracts/contracts/resolver/SchemaResolver.sol\":2368:2390  value > remainingValue */\n      gt\n        /* \"@ethereum-attestation-service/eas-contracts/contracts/resolver/SchemaResolver.sol\":2364:2451  if (value > remainingValue) {... */\n      iszero\n      tag_79\n      jumpi\n        /* \"@ethereum-attestation-service/eas-contracts/contracts/resolver/SchemaResolver.sol\":2417:2436  InsufficientValue() */\n      mload(0x40)\n      0x1101129400000000000000000000000000000000000000000000000000000000\n      dup2\n      mstore\n      0x04\n      add\n      mload(0x40)\n      dup1\n      swap2\n      sub\n      swap1\n      revert\n        /* \"@ethereum-attestation-service/eas-contracts/contracts/resolver/SchemaResolver.sol\":2364:2451  if (value > remainingValue) {... */\n    tag_79:\n        /* \"@ethereum-attestation-service/eas-contracts/contracts/resolver/SchemaResolver.sol\":2580:2612  onAttest(attestations[i], value) */\n      tag_80\n        /* \"@ethereum-attestation-service/eas-contracts/contracts/resolver/SchemaResolver.sol\":2589:2601  attestations */\n      dup10\n      dup10\n        /* \"@ethereum-attestation-service/eas-contracts/contracts/resolver/SchemaResolver.sol\":2602:2603  i */\n      dup5\n        /* \"@ethereum-attestation-service/eas-contracts/contracts/resolver/SchemaResolver.sol\":2589:2604  attestations[i] */\n      dup2\n      dup2\n      lt\n      tag_81\n      jumpi\n      tag_82\n      tag_59\n      jump\t// in\n    tag_82:\n    tag_81:\n      swap1\n      pop\n      0x20\n      mul\n      dup2\n      add\n      swap1\n      tag_83\n      swap2\n      swap1\n      tag_65\n      jump\t// in\n    tag_83:\n        /* \"@ethereum-attestation-service/eas-contracts/contracts/resolver/SchemaResolver.sol\":2606:2611  value */\n      dup3\n        /* \"@ethereum-attestation-service/eas-contracts/contracts/resolver/SchemaResolver.sol\":2580:2588  onAttest */\n      tag_84\n        /* \"@ethereum-attestation-service/eas-contracts/contracts/resolver/SchemaResolver.sol\":2580:2612  onAttest(attestations[i], value) */\n      jump\t// in\n    tag_80:\n        /* \"@ethereum-attestation-service/eas-contracts/contracts/resolver/SchemaResolver.sol\":2575:2659  if (!onAttest(attestations[i], value)) {... */\n      tag_85\n      jumpi\n        /* \"@ethereum-attestation-service/eas-contracts/contracts/resolver/SchemaResolver.sol\":2639:2644  false */\n      0x00\n        /* \"@ethereum-attestation-service/eas-contracts/contracts/resolver/SchemaResolver.sol\":2632:2644  return false */\n      swap5\n      pop\n      pop\n      pop\n      pop\n      pop\n      jump(tag_72)\n        /* \"@ethereum-attestation-service/eas-contracts/contracts/resolver/SchemaResolver.sol\":2575:2659  if (!onAttest(attestations[i], value)) {... */\n    tag_85:\n        /* \"@ethereum-attestation-service/eas-contracts/contracts/resolver/SchemaResolver.sol\":2840:2845  value */\n      dup1\n        /* \"@ethereum-attestation-service/eas-contracts/contracts/resolver/SchemaResolver.sol\":2822:2845  remainingValue -= value */\n      dup4\n      sub\n      swap3\n      pop\n        /* \"@ethereum-attestation-service/eas-contracts/contracts/resolver/SchemaResolver.sol\":2221:2870  {... */\n      pop\n        /* \"@ethereum-attestation-service/eas-contracts/contracts/resolver/SchemaResolver.sol\":2204:2219  uncheckedInc(i) */\n      tag_86\n        /* \"@ethereum-attestation-service/eas-contracts/contracts/resolver/SchemaResolver.sol\":2217:2218  i */\n      dup2\n        /* \"@ethereum-attestation-service/eas-contracts/contracts/resolver/SchemaResolver.sol\":2204:2216  uncheckedInc */\n      tag_69\n        /* \"@ethereum-attestation-service/eas-contracts/contracts/resolver/SchemaResolver.sol\":2204:2219  uncheckedInc(i) */\n      jump\t// in\n    tag_86:\n        /* \"@ethereum-attestation-service/eas-contracts/contracts/resolver/SchemaResolver.sol\":2200:2219  i = uncheckedInc(i) */\n      swap1\n      pop\n        /* \"@ethereum-attestation-service/eas-contracts/contracts/resolver/SchemaResolver.sol\":2168:2870  for (uint256 i = 0; i < length; i = uncheckedInc(i)) {... */\n      jump(tag_74)\n    tag_75:\n      pop\n        /* \"@ethereum-attestation-service/eas-contracts/contracts/resolver/SchemaResolver.sol\":2887:2891  true */\n      0x01\n        /* \"@ethereum-attestation-service/eas-contracts/contracts/resolver/SchemaResolver.sol\":2880:2891  return true */\n      swap3\n      pop\n      pop\n      pop\n        /* \"@ethereum-attestation-service/eas-contracts/contracts/resolver/SchemaResolver.sol\":926:927  _ */\n    tag_72:\n        /* \"@ethereum-attestation-service/eas-contracts/contracts/resolver/SchemaResolver.sol\":1437:2898  function multiAttest(... */\n      swap5\n      swap4\n      pop\n      pop\n      pop\n      pop\n      jump\t// out\n        /* \"@ethereum-attestation-service/eas-contracts/contracts/resolver/SchemaResolver.sol\":2940:3086  function revoke(Attestation calldata attestation) external payable onlyEAS returns (bool) {... */\n    tag_35:\n        /* \"@ethereum-attestation-service/eas-contracts/contracts/resolver/SchemaResolver.sol\":3024:3028  bool */\n      0x00\n        /* \"@ethereum-attestation-service/eas-contracts/contracts/resolver/SchemaResolver.sol\":905:915  _onlyEAS() */\n      tag_88\n        /* \"@ethereum-attestation-service/eas-contracts/contracts/resolver/SchemaResolver.sol\":905:913  _onlyEAS */\n      tag_51\n        /* \"@ethereum-attestation-service/eas-contracts/contracts/resolver/SchemaResolver.sol\":905:915  _onlyEAS() */\n      jump\t// in\n    tag_88:\n        /* \"@ethereum-attestation-service/eas-contracts/contracts/resolver/SchemaResolver.sol\":3047:3079  onRevoke(attestation, msg.value) */\n      tag_90\n        /* \"@ethereum-attestation-service/eas-contracts/contracts/resolver/SchemaResolver.sol\":3056:3067  attestation */\n      dup3\n        /* \"@ethereum-attestation-service/eas-contracts/contracts/resolver/SchemaResolver.sol\":3069:3078  msg.value */\n      callvalue\n        /* \"@ethereum-attestation-service/eas-contracts/contracts/resolver/SchemaResolver.sol\":3047:3055  onRevoke */\n      tag_66\n        /* \"@ethereum-attestation-service/eas-contracts/contracts/resolver/SchemaResolver.sol\":3047:3079  onRevoke(attestation, msg.value) */\n      jump\t// in\n    tag_90:\n        /* \"@ethereum-attestation-service/eas-contracts/contracts/resolver/SchemaResolver.sol\":3040:3079  return onRevoke(attestation, msg.value) */\n      swap1\n      pop\n        /* \"@ethereum-attestation-service/eas-contracts/contracts/resolver/SchemaResolver.sol\":2940:3086  function revoke(Attestation calldata attestation) external payable onlyEAS returns (bool) {... */\n      swap2\n      swap1\n      pop\n      jump\t// out\n        /* \"@ethereum-attestation-service/eas-contracts/contracts/resolver/SchemaResolver.sol\":1249:1395  function attest(Attestation calldata attestation) external payable onlyEAS returns (bool) {... */\n    tag_39:\n        /* \"@ethereum-attestation-service/eas-contracts/contracts/resolver/SchemaResolver.sol\":1333:1337  bool */\n      0x00\n        /* \"@ethereum-attestation-service/eas-contracts/contracts/resolver/SchemaResolver.sol\":905:915  _onlyEAS() */\n      tag_92\n        /* \"@ethereum-attestation-service/eas-contracts/contracts/resolver/SchemaResolver.sol\":905:913  _onlyEAS */\n      tag_51\n        /* \"@ethereum-attestation-service/eas-contracts/contracts/resolver/SchemaResolver.sol\":905:915  _onlyEAS() */\n      jump\t// in\n    tag_92:\n        /* \"@ethereum-attestation-service/eas-contracts/contracts/resolver/SchemaResolver.sol\":1356:1388  onAttest(attestation, msg.value) */\n      tag_94\n        /* \"@ethereum-attestation-service/eas-contracts/contracts/resolver/SchemaResolver.sol\":1365:1376  attestation */\n      dup3\n        /* \"@ethereum-attestation-service/eas-contracts/contracts/resolver/SchemaResolver.sol\":1378:1387  msg.value */\n      callvalue\n        /* \"@ethereum-attestation-service/eas-contracts/contracts/resolver/SchemaResolver.sol\":1356:1364  onAttest */\n      tag_84\n        /* \"@ethereum-attestation-service/eas-contracts/contracts/resolver/SchemaResolver.sol\":1356:1388  onAttest(attestation, msg.value) */\n      jump\t// in\n    tag_94:\n        /* \"@ethereum-attestation-service/eas-contracts/contracts/resolver/SchemaResolver.sol\":1349:1388  return onAttest(attestation, msg.value) */\n      swap1\n      pop\n        /* \"@ethereum-attestation-service/eas-contracts/contracts/resolver/SchemaResolver.sol\":1249:1395  function attest(Attestation calldata attestation) external payable onlyEAS returns (bool) {... */\n      swap2\n      swap1\n      pop\n      jump\t// out\n        /* \"@openzeppelin/contracts/utils/Strings.sol\":637:1335  function toString(uint256 value) internal pure returns (string memory) {... */\n    tag_44:\n        /* \"@openzeppelin/contracts/utils/Strings.sol\":693:706  string memory */\n      0x60\n        /* \"@openzeppelin/contracts/utils/Strings.sol\":742:756  uint256 length */\n      0x00\n        /* \"@openzeppelin/contracts/utils/Strings.sol\":779:780  1 */\n      0x01\n        /* \"@openzeppelin/contracts/utils/Strings.sol\":759:776  Math.log10(value) */\n      tag_96\n        /* \"@openzeppelin/contracts/utils/Strings.sol\":770:775  value */\n      dup5\n        /* \"@openzeppelin/contracts/utils/Strings.sol\":759:769  Math.log10 */\n      tag_97\n        /* \"@openzeppelin/contracts/utils/Strings.sol\":759:776  Math.log10(value) */\n      jump\t// in\n    tag_96:\n        /* \"@openzeppelin/contracts/utils/Strings.sol\":759:780  Math.log10(value) + 1 */\n      add\n        /* \"@openzeppelin/contracts/utils/Strings.sol\":742:780  uint256 length = Math.log10(value) + 1 */\n      swap1\n      pop\n        /* \"@openzeppelin/contracts/utils/Strings.sol\":794:814  string memory buffer */\n      0x00\n        /* \"@openzeppelin/contracts/utils/Strings.sol\":828:834  length */\n      dup2\n        /* \"@openzeppelin/contracts/utils/Strings.sol\":817:835  new string(length) */\n      0xffffffffffffffff\n      dup2\n      gt\n      iszero\n      tag_98\n      jumpi\n      tag_99\n      tag_100\n      jump\t// in\n    tag_99:\n    tag_98:\n      mload(0x40)\n      swap1\n      dup1\n      dup3\n      mstore\n      dup1\n      0x1f\n      add\n      not(0x1f)\n      and\n      0x20\n      add\n      dup3\n      add\n      0x40\n      mstore\n      dup1\n      iszero\n      tag_101\n      jumpi\n      dup2\n      0x20\n      add\n      0x01\n      dup3\n      mul\n      dup1\n      calldatasize\n      dup4\n      calldatacopy\n      dup1\n      dup3\n      add\n      swap2\n      pop\n      pop\n      swap1\n      pop\n    tag_101:\n      pop\n        /* \"@openzeppelin/contracts/utils/Strings.sol\":794:835  string memory buffer = new string(length) */\n      swap1\n      pop\n        /* \"@openzeppelin/contracts/utils/Strings.sol\":849:860  uint256 ptr */\n      0x00\n        /* \"@openzeppelin/contracts/utils/Strings.sol\":975:981  length */\n      dup3\n        /* \"@openzeppelin/contracts/utils/Strings.sol\":971:973  32 */\n      0x20\n        /* \"@openzeppelin/contracts/utils/Strings.sol\":967:982  add(32, length) */\n      add\n        /* \"@openzeppelin/contracts/utils/Strings.sol\":959:965  buffer */\n      dup3\n        /* \"@openzeppelin/contracts/utils/Strings.sol\":955:983  add(buffer, add(32, length)) */\n      add\n        /* \"@openzeppelin/contracts/utils/Strings.sol\":948:983  ptr := add(buffer, add(32, length)) */\n      swap1\n      pop\n        /* \"@openzeppelin/contracts/utils/Strings.sol\":1010:1292  while (true) {... */\n    tag_102:\n        /* \"@openzeppelin/contracts/utils/Strings.sol\":1017:1021  true */\n      0x01\n        /* \"@openzeppelin/contracts/utils/Strings.sol\":1010:1292  while (true) {... */\n      iszero\n      tag_103\n      jumpi\n        /* \"@openzeppelin/contracts/utils/Strings.sol\":1041:1046  ptr-- */\n      dup1\n      dup1\n      0x01\n      swap1\n      sub\n      swap2\n      pop\n      pop\n        /* \"@openzeppelin/contracts/utils/Strings.sol\":1180:1190  HEX_DIGITS */\n      0x3031323334353637383961626364656600000000000000000000000000000000\n        /* \"@openzeppelin/contracts/utils/Strings.sol\":1175:1177  10 */\n      0x0a\n        /* \"@openzeppelin/contracts/utils/Strings.sol\":1168:1173  value */\n      dup7\n        /* \"@openzeppelin/contracts/utils/Strings.sol\":1164:1178  mod(value, 10) */\n      mod\n        /* \"@openzeppelin/contracts/utils/Strings.sol\":1159:1191  byte(mod(value, 10), HEX_DIGITS) */\n      byte\n        /* \"@openzeppelin/contracts/utils/Strings.sol\":1154:1157  ptr */\n      dup2\n        /* \"@openzeppelin/contracts/utils/Strings.sol\":1146:1192  mstore8(ptr, byte(mod(value, 10), HEX_DIGITS)) */\n      mstore8\n        /* \"@openzeppelin/contracts/utils/Strings.sol\":1236:1238  10 */\n      0x0a\n        /* \"@openzeppelin/contracts/utils/Strings.sol\":1227:1238  value /= 10 */\n      dup6\n      dup2\n      tag_104\n      jumpi\n      tag_105\n      tag_106\n      jump\t// in\n    tag_105:\n    tag_104:\n      div\n      swap5\n      pop\n        /* \"@openzeppelin/contracts/utils/Strings.sol\":1269:1270  0 */\n      0x00\n        /* \"@openzeppelin/contracts/utils/Strings.sol\":1260:1265  value */\n      dup6\n        /* \"@openzeppelin/contracts/utils/Strings.sol\":1260:1270  value == 0 */\n      sub\n        /* \"@openzeppelin/contracts/utils/Strings.sol\":1010:1292  while (true) {... */\n      tag_102\n        /* \"@openzeppelin/contracts/utils/Strings.sol\":1256:1277  if (value == 0) break */\n      jumpi\n        /* \"@openzeppelin/contracts/utils/Strings.sol\":1010:1292  while (true) {... */\n    tag_103:\n        /* \"@openzeppelin/contracts/utils/Strings.sol\":1312:1318  buffer */\n      dup2\n        /* \"@openzeppelin/contracts/utils/Strings.sol\":1305:1318  return buffer */\n      swap4\n      pop\n      pop\n      pop\n      pop\n        /* \"@openzeppelin/contracts/utils/Strings.sol\":637:1335  function toString(uint256 value) internal pure returns (string memory) {... */\n      swap2\n      swap1\n      pop\n      jump\t// out\n        /* \"@ethereum-attestation-service/eas-contracts/contracts/resolver/SchemaResolver.sol\":6035:6163  function _onlyEAS() private view {... */\n    tag_51:\n        /* \"@ethereum-attestation-service/eas-contracts/contracts/resolver/SchemaResolver.sol\":6104:6108  _eas */\n      immutable(\"0x673736316b95e559f74d3df3ec317a8befa2b1e479645eed67cb97503d5fbec1\")\n        /* \"@ethereum-attestation-service/eas-contracts/contracts/resolver/SchemaResolver.sol\":6082:6109  msg.sender != address(_eas) */\n      0xffffffffffffffffffffffffffffffffffffffff\n      and\n        /* \"@ethereum-attestation-service/eas-contracts/contracts/resolver/SchemaResolver.sol\":6082:6092  msg.sender */\n      caller\n        /* \"@ethereum-attestation-service/eas-contracts/contracts/resolver/SchemaResolver.sol\":6082:6109  msg.sender != address(_eas) */\n      0xffffffffffffffffffffffffffffffffffffffff\n      and\n      eq\n        /* \"@ethereum-attestation-service/eas-contracts/contracts/resolver/SchemaResolver.sol\":6078:6157  if (msg.sender != address(_eas)) {... */\n      tag_109\n      jumpi\n        /* \"@ethereum-attestation-service/eas-contracts/contracts/resolver/SchemaResolver.sol\":6132:6146  AccessDenied() */\n      mload(0x40)\n      0x4ca8886700000000000000000000000000000000000000000000000000000000\n      dup2\n      mstore\n      0x04\n      add\n      mload(0x40)\n      dup1\n      swap2\n      sub\n      swap1\n      revert\n        /* \"@ethereum-attestation-service/eas-contracts/contracts/resolver/SchemaResolver.sol\":6078:6157  if (msg.sender != address(_eas)) {... */\n    tag_109:\n        /* \"@ethereum-attestation-service/eas-contracts/contracts/resolver/SchemaResolver.sol\":6035:6163  function _onlyEAS() private view {... */\n      jump\t// out\n        /* \"contracts/Resolver.sol\":1005:1146  function onRevoke(Attestation calldata /*attestation*/, uint256 /*value*/) internal pure override returns (bool) {... */\n    tag_66:\n        /* \"contracts/Resolver.sol\":1112:1116  bool */\n      0x00\n        /* \"contracts/Resolver.sol\":1135:1139  true */\n      0x01\n        /* \"contracts/Resolver.sol\":1128:1139  return true */\n      swap1\n      pop\n        /* \"contracts/Resolver.sol\":1005:1146  function onRevoke(Attestation calldata /*attestation*/, uint256 /*value*/) internal pure override returns (bool) {... */\n      swap3\n      swap2\n      pop\n      pop\n      jump\t// out\n        /* \"@ethereum-attestation-service/eas-contracts/contracts/Common.sol\":1397:1499  function uncheckedInc(uint256 i) pure returns (uint256 j) {... */\n    tag_69:\n        /* \"@ethereum-attestation-service/eas-contracts/contracts/Common.sol\":1444:1453  uint256 j */\n      0x00\n        /* \"@ethereum-attestation-service/eas-contracts/contracts/Common.sol\":1489:1490  1 */\n      0x01\n        /* \"@ethereum-attestation-service/eas-contracts/contracts/Common.sol\":1485:1486  i */\n      dup3\n        /* \"@ethereum-attestation-service/eas-contracts/contracts/Common.sol\":1485:1490  i + 1 */\n      add\n        /* \"@ethereum-attestation-service/eas-contracts/contracts/Common.sol\":1481:1490  j = i + 1 */\n      swap1\n      pop\n        /* \"@ethereum-attestation-service/eas-contracts/contracts/Common.sol\":1397:1499  function uncheckedInc(uint256 i) pure returns (uint256 j) {... */\n      swap2\n      swap1\n      pop\n      jump\t// out\n        /* \"contracts/Resolver.sol\":825:999  function onAttest(Attestation calldata attestation, uint256 /*value*/) internal view override returns (bool) {... */\n    tag_84:\n        /* \"contracts/Resolver.sol\":928:932  bool */\n      0x00\n        /* \"contracts/Resolver.sol\":976:992  _targetRecepient */\n      immutable(\"0xa07c19efc73020733d74df24211ba72aa9c07ba4a2ae13ac79a338a4d8b59fe5\")\n        /* \"contracts/Resolver.sol\":951:992  attestation.recipient == _targetRecepient */\n      0xffffffffffffffffffffffffffffffffffffffff\n      and\n        /* \"contracts/Resolver.sol\":951:962  attestation */\n      dup4\n        /* \"contracts/Resolver.sol\":951:972  attestation.recipient */\n      0xc0\n      add\n      0x20\n      dup2\n      add\n      swap1\n      tag_113\n      swap2\n      swap1\n      tag_114\n      jump\t// in\n    tag_113:\n        /* \"contracts/Resolver.sol\":951:992  attestation.recipient == _targetRecepient */\n      0xffffffffffffffffffffffffffffffffffffffff\n      and\n      eq\n        /* \"contracts/Resolver.sol\":944:992  return attestation.recipient == _targetRecepient */\n      swap1\n      pop\n        /* \"contracts/Resolver.sol\":825:999  function onAttest(Attestation calldata attestation, uint256 /*value*/) internal view override returns (bool) {... */\n      swap3\n      swap2\n      pop\n      pop\n      jump\t// out\n        /* \"@openzeppelin/contracts/utils/math/Math.sol\":12214:13130  function log10(uint256 value) internal pure returns (uint256) {... */\n    tag_97:\n        /* \"@openzeppelin/contracts/utils/math/Math.sol\":12267:12274  uint256 */\n      0x00\n        /* \"@openzeppelin/contracts/utils/math/Math.sol\":12286:12300  uint256 result */\n      dup1\n        /* \"@openzeppelin/contracts/utils/math/Math.sol\":12303:12304  0 */\n      0x00\n        /* \"@openzeppelin/contracts/utils/math/Math.sol\":12286:12304  uint256 result = 0 */\n      swap1\n      pop\n        /* \"@openzeppelin/contracts/utils/math/Math.sol\":12351:12359  10 ** 64 */\n      0x184f03e93ff9f4daa797ed6e38ed64bf6a1f010000000000000000\n        /* \"@openzeppelin/contracts/utils/math/Math.sol\":12342:12347  value */\n      dup4\n        /* \"@openzeppelin/contracts/utils/math/Math.sol\":12342:12359  value >= 10 ** 64 */\n      lt\n        /* \"@openzeppelin/contracts/utils/math/Math.sol\":12338:12441  if (value >= 10 ** 64) {... */\n      tag_116\n      jumpi\n        /* \"@openzeppelin/contracts/utils/math/Math.sol\":12388:12396  10 ** 64 */\n      0x184f03e93ff9f4daa797ed6e38ed64bf6a1f010000000000000000\n        /* \"@openzeppelin/contracts/utils/math/Math.sol\":12379:12396  value /= 10 ** 64 */\n      dup4\n      dup2\n      tag_117\n      jumpi\n      tag_118\n      tag_106\n      jump\t// in\n    tag_118:\n    tag_117:\n      div\n      swap3\n      pop\n        /* \"@openzeppelin/contracts/utils/math/Math.sol\":12424:12426  64 */\n      0x40\n        /* \"@openzeppelin/contracts/utils/math/Math.sol\":12414:12426  result += 64 */\n      dup2\n      add\n      swap1\n      pop\n        /* \"@openzeppelin/contracts/utils/math/Math.sol\":12338:12441  if (value >= 10 ** 64) {... */\n    tag_116:\n        /* \"@openzeppelin/contracts/utils/math/Math.sol\":12467:12475  10 ** 32 */\n      0x04ee2d6d415b85acef8100000000\n        /* \"@openzeppelin/contracts/utils/math/Math.sol\":12458:12463  value */\n      dup4\n        /* \"@openzeppelin/contracts/utils/math/Math.sol\":12458:12475  value >= 10 ** 32 */\n      lt\n        /* \"@openzeppelin/contracts/utils/math/Math.sol\":12454:12557  if (value >= 10 ** 32) {... */\n      tag_119\n      jumpi\n        /* \"@openzeppelin/contracts/utils/math/Math.sol\":12504:12512  10 ** 32 */\n      0x04ee2d6d415b85acef8100000000\n        /* \"@openzeppelin/contracts/utils/math/Math.sol\":12495:12512  value /= 10 ** 32 */\n      dup4\n      dup2\n      tag_120\n      jumpi\n      tag_121\n      tag_106\n      jump\t// in\n    tag_121:\n    tag_120:\n      div\n      swap3\n      pop\n        /* \"@openzeppelin/contracts/utils/math/Math.sol\":12540:12542  32 */\n      0x20\n        /* \"@openzeppelin/contracts/utils/math/Math.sol\":12530:12542  result += 32 */\n      dup2\n      add\n      swap1\n      pop\n        /* \"@openzeppelin/contracts/utils/math/Math.sol\":12454:12557  if (value >= 10 ** 32) {... */\n    tag_119:\n        /* \"@openzeppelin/contracts/utils/math/Math.sol\":12583:12591  10 ** 16 */\n      0x2386f26fc10000\n        /* \"@openzeppelin/contracts/utils/math/Math.sol\":12574:12579  value */\n      dup4\n        /* \"@openzeppelin/contracts/utils/math/Math.sol\":12574:12591  value >= 10 ** 16 */\n      lt\n        /* \"@openzeppelin/contracts/utils/math/Math.sol\":12570:12673  if (value >= 10 ** 16) {... */\n      tag_122\n      jumpi\n        /* \"@openzeppelin/contracts/utils/math/Math.sol\":12620:12628  10 ** 16 */\n      0x2386f26fc10000\n        /* \"@openzeppelin/contracts/utils/math/Math.sol\":12611:12628  value /= 10 ** 16 */\n      dup4\n      dup2\n      tag_123\n      jumpi\n      tag_124\n      tag_106\n      jump\t// in\n    tag_124:\n    tag_123:\n      div\n      swap3\n      pop\n        /* \"@openzeppelin/contracts/utils/math/Math.sol\":12656:12658  16 */\n      0x10\n        /* \"@openzeppelin/contracts/utils/math/Math.sol\":12646:12658  result += 16 */\n      dup2\n      add\n      swap1\n      pop\n        /* \"@openzeppelin/contracts/utils/math/Math.sol\":12570:12673  if (value >= 10 ** 16) {... */\n    tag_122:\n        /* \"@openzeppelin/contracts/utils/math/Math.sol\":12699:12706  10 ** 8 */\n      0x05f5e100\n        /* \"@openzeppelin/contracts/utils/math/Math.sol\":12690:12695  value */\n      dup4\n        /* \"@openzeppelin/contracts/utils/math/Math.sol\":12690:12706  value >= 10 ** 8 */\n      lt\n        /* \"@openzeppelin/contracts/utils/math/Math.sol\":12686:12786  if (value >= 10 ** 8) {... */\n      tag_125\n      jumpi\n        /* \"@openzeppelin/contracts/utils/math/Math.sol\":12735:12742  10 ** 8 */\n      0x05f5e100\n        /* \"@openzeppelin/contracts/utils/math/Math.sol\":12726:12742  value /= 10 ** 8 */\n      dup4\n      dup2\n      tag_126\n      jumpi\n      tag_127\n      tag_106\n      jump\t// in\n    tag_127:\n    tag_126:\n      div\n      swap3\n      pop\n        /* \"@openzeppelin/contracts/utils/math/Math.sol\":12770:12771  8 */\n      0x08\n        /* \"@openzeppelin/contracts/utils/math/Math.sol\":12760:12771  result += 8 */\n      dup2\n      add\n      swap1\n      pop\n        /* \"@openzeppelin/contracts/utils/math/Math.sol\":12686:12786  if (value >= 10 ** 8) {... */\n    tag_125:\n        /* \"@openzeppelin/contracts/utils/math/Math.sol\":12812:12819  10 ** 4 */\n      0x2710\n        /* \"@openzeppelin/contracts/utils/math/Math.sol\":12803:12808  value */\n      dup4\n        /* \"@openzeppelin/contracts/utils/math/Math.sol\":12803:12819  value >= 10 ** 4 */\n      lt\n        /* \"@openzeppelin/contracts/utils/math/Math.sol\":12799:12899  if (value >= 10 ** 4) {... */\n      tag_128\n      jumpi\n        /* \"@openzeppelin/contracts/utils/math/Math.sol\":12848:12855  10 ** 4 */\n      0x2710\n        /* \"@openzeppelin/contracts/utils/math/Math.sol\":12839:12855  value /= 10 ** 4 */\n      dup4\n      dup2\n      tag_129\n      jumpi\n      tag_130\n      tag_106\n      jump\t// in\n    tag_130:\n    tag_129:\n      div\n      swap3\n      pop\n        /* \"@openzeppelin/contracts/utils/math/Math.sol\":12883:12884  4 */\n      0x04\n        /* \"@openzeppelin/contracts/utils/math/Math.sol\":12873:12884  result += 4 */\n      dup2\n      add\n      swap1\n      pop\n        /* \"@openzeppelin/contracts/utils/math/Math.sol\":12799:12899  if (value >= 10 ** 4) {... */\n    tag_128:\n        /* \"@openzeppelin/contracts/utils/math/Math.sol\":12925:12932  10 ** 2 */\n      0x64\n        /* \"@openzeppelin/contracts/utils/math/Math.sol\":12916:12921  value */\n      dup4\n        /* \"@openzeppelin/contracts/utils/math/Math.sol\":12916:12932  value >= 10 ** 2 */\n      lt\n        /* \"@openzeppelin/contracts/utils/math/Math.sol\":12912:13012  if (value >= 10 ** 2) {... */\n      tag_131\n      jumpi\n        /* \"@openzeppelin/contracts/utils/math/Math.sol\":12961:12968  10 ** 2 */\n      0x64\n        /* \"@openzeppelin/contracts/utils/math/Math.sol\":12952:12968  value /= 10 ** 2 */\n      dup4\n      dup2\n      tag_132\n      jumpi\n      tag_133\n      tag_106\n      jump\t// in\n    tag_133:\n    tag_132:\n      div\n      swap3\n      pop\n        /* \"@openzeppelin/contracts/utils/math/Math.sol\":12996:12997  2 */\n      0x02\n        /* \"@openzeppelin/contracts/utils/math/Math.sol\":12986:12997  result += 2 */\n      dup2\n      add\n      swap1\n      pop\n        /* \"@openzeppelin/contracts/utils/math/Math.sol\":12912:13012  if (value >= 10 ** 2) {... */\n    tag_131:\n        /* \"@openzeppelin/contracts/utils/math/Math.sol\":13038:13045  10 ** 1 */\n      0x0a\n        /* \"@openzeppelin/contracts/utils/math/Math.sol\":13029:13034  value */\n      dup4\n        /* \"@openzeppelin/contracts/utils/math/Math.sol\":13029:13045  value >= 10 ** 1 */\n      lt\n        /* \"@openzeppelin/contracts/utils/math/Math.sol\":13025:13091  if (value >= 10 ** 1) {... */\n      tag_134\n      jumpi\n        /* \"@openzeppelin/contracts/utils/math/Math.sol\":13075:13076  1 */\n      0x01\n        /* \"@openzeppelin/contracts/utils/math/Math.sol\":13065:13076  result += 1 */\n      dup2\n      add\n      swap1\n      pop\n        /* \"@openzeppelin/contracts/utils/math/Math.sol\":13025:13091  if (value >= 10 ** 1) {... */\n    tag_134:\n        /* \"@openzeppelin/contracts/utils/math/Math.sol\":13117:13123  result */\n      dup1\n        /* \"@openzeppelin/contracts/utils/math/Math.sol\":13110:13123  return result */\n      swap2\n      pop\n      pop\n        /* \"@openzeppelin/contracts/utils/math/Math.sol\":12214:13130  function log10(uint256 value) internal pure returns (uint256) {... */\n      swap2\n      swap1\n      pop\n      jump\t// out\n        /* \"#utility.yul\":7:106   */\n    tag_135:\n        /* \"#utility.yul\":59:65   */\n      0x00\n        /* \"#utility.yul\":93:98   */\n      dup2\n        /* \"#utility.yul\":87:99   */\n      mload\n        /* \"#utility.yul\":77:99   */\n      swap1\n      pop\n        /* \"#utility.yul\":7:106   */\n      swap2\n      swap1\n      pop\n      jump\t// out\n        /* \"#utility.yul\":112:281   */\n    tag_136:\n        /* \"#utility.yul\":196:207   */\n      0x00\n        /* \"#utility.yul\":230:236   */\n      dup3\n        /* \"#utility.yul\":225:228   */\n      dup3\n        /* \"#utility.yul\":218:237   */\n      mstore\n        /* \"#utility.yul\":270:274   */\n      0x20\n        /* \"#utility.yul\":265:268   */\n      dup3\n        /* \"#utility.yul\":261:275   */\n      add\n        /* \"#utility.yul\":246:275   */\n      swap1\n      pop\n        /* \"#utility.yul\":112:281   */\n      swap3\n      swap2\n      pop\n      pop\n      jump\t// out\n        /* \"#utility.yul\":287:533   */\n    tag_137:\n        /* \"#utility.yul\":368:369   */\n      0x00\n        /* \"#utility.yul\":378:491   */\n    tag_167:\n        /* \"#utility.yul\":392:398   */\n      dup4\n        /* \"#utility.yul\":389:390   */\n      dup2\n        /* \"#utility.yul\":386:399   */\n      lt\n        /* \"#utility.yul\":378:491   */\n      iszero\n      tag_169\n      jumpi\n        /* \"#utility.yul\":477:478   */\n      dup1\n        /* \"#utility.yul\":472:475   */\n      dup3\n        /* \"#utility.yul\":468:479   */\n      add\n        /* \"#utility.yul\":462:480   */\n      mload\n        /* \"#utility.yul\":458:459   */\n      dup2\n        /* \"#utility.yul\":453:456   */\n      dup5\n        /* \"#utility.yul\":449:460   */\n      add\n        /* \"#utility.yul\":442:481   */\n      mstore\n        /* \"#utility.yul\":414:416   */\n      0x20\n        /* \"#utility.yul\":411:412   */\n      dup2\n        /* \"#utility.yul\":407:417   */\n      add\n        /* \"#utility.yul\":402:417   */\n      swap1\n      pop\n        /* \"#utility.yul\":378:491   */\n      jump(tag_167)\n    tag_169:\n        /* \"#utility.yul\":525:526   */\n      0x00\n        /* \"#utility.yul\":516:522   */\n      dup5\n        /* \"#utility.yul\":511:514   */\n      dup5\n        /* \"#utility.yul\":507:523   */\n      add\n        /* \"#utility.yul\":500:527   */\n      mstore\n        /* \"#utility.yul\":349:533   */\n      pop\n        /* \"#utility.yul\":287:533   */\n      pop\n      pop\n      pop\n      jump\t// out\n        /* \"#utility.yul\":539:641   */\n    tag_138:\n        /* \"#utility.yul\":580:586   */\n      0x00\n        /* \"#utility.yul\":631:633   */\n      0x1f\n        /* \"#utility.yul\":627:634   */\n      not\n        /* \"#utility.yul\":622:624   */\n      0x1f\n        /* \"#utility.yul\":615:620   */\n      dup4\n        /* \"#utility.yul\":611:625   */\n      add\n        /* \"#utility.yul\":607:635   */\n      and\n        /* \"#utility.yul\":597:635   */\n      swap1\n      pop\n        /* \"#utility.yul\":539:641   */\n      swap2\n      swap1\n      pop\n      jump\t// out\n        /* \"#utility.yul\":647:1024   */\n    tag_139:\n        /* \"#utility.yul\":735:738   */\n      0x00\n        /* \"#utility.yul\":763:802   */\n      tag_172\n        /* \"#utility.yul\":796:801   */\n      dup3\n        /* \"#utility.yul\":763:802   */\n      tag_135\n      jump\t// in\n    tag_172:\n        /* \"#utility.yul\":818:889   */\n      tag_173\n        /* \"#utility.yul\":882:888   */\n      dup2\n        /* \"#utility.yul\":877:880   */\n      dup6\n        /* \"#utility.yul\":818:889   */\n      tag_136\n      jump\t// in\n    tag_173:\n        /* \"#utility.yul\":811:889   */\n      swap4\n      pop\n        /* \"#utility.yul\":898:963   */\n      tag_174\n        /* \"#utility.yul\":956:962   */\n      dup2\n        /* \"#utility.yul\":951:954   */\n      dup6\n        /* \"#utility.yul\":944:948   */\n      0x20\n        /* \"#utility.yul\":937:942   */\n      dup7\n        /* \"#utility.yul\":933:949   */\n      add\n        /* \"#utility.yul\":898:963   */\n      tag_137\n      jump\t// in\n    tag_174:\n        /* \"#utility.yul\":988:1017   */\n      tag_175\n        /* \"#utility.yul\":1010:1016   */\n      dup2\n        /* \"#utility.yul\":988:1017   */\n      tag_138\n      jump\t// in\n    tag_175:\n        /* \"#utility.yul\":983:986   */\n      dup5\n        /* \"#utility.yul\":979:1018   */\n      add\n        /* \"#utility.yul\":972:1018   */\n      swap2\n      pop\n        /* \"#utility.yul\":739:1024   */\n      pop\n        /* \"#utility.yul\":647:1024   */\n      swap3\n      swap2\n      pop\n      pop\n      jump\t// out\n        /* \"#utility.yul\":1030:1343   */\n    tag_18:\n        /* \"#utility.yul\":1143:1147   */\n      0x00\n        /* \"#utility.yul\":1181:1183   */\n      0x20\n        /* \"#utility.yul\":1170:1179   */\n      dup3\n        /* \"#utility.yul\":1166:1184   */\n      add\n        /* \"#utility.yul\":1158:1184   */\n      swap1\n      pop\n        /* \"#utility.yul\":1230:1239   */\n      dup2\n        /* \"#utility.yul\":1224:1228   */\n      dup2\n        /* \"#utility.yul\":1220:1240   */\n      sub\n        /* \"#utility.yul\":1216:1217   */\n      0x00\n        /* \"#utility.yul\":1205:1214   */\n      dup4\n        /* \"#utility.yul\":1201:1218   */\n      add\n        /* \"#utility.yul\":1194:1241   */\n      mstore\n        /* \"#utility.yul\":1258:1336   */\n      tag_177\n        /* \"#utility.yul\":1331:1335   */\n      dup2\n        /* \"#utility.yul\":1322:1328   */\n      dup5\n        /* \"#utility.yul\":1258:1336   */\n      tag_139\n      jump\t// in\n    tag_177:\n        /* \"#utility.yul\":1250:1336   */\n      swap1\n      pop\n        /* \"#utility.yul\":1030:1343   */\n      swap3\n      swap2\n      pop\n      pop\n      jump\t// out\n        /* \"#utility.yul\":1430:1547   */\n    tag_141:\n        /* \"#utility.yul\":1539:1540   */\n      0x00\n        /* \"#utility.yul\":1536:1537   */\n      dup1\n        /* \"#utility.yul\":1529:1541   */\n      revert\n        /* \"#utility.yul\":1553:1670   */\n    tag_142:\n        /* \"#utility.yul\":1662:1663   */\n      0x00\n        /* \"#utility.yul\":1659:1660   */\n      dup1\n        /* \"#utility.yul\":1652:1664   */\n      revert\n        /* \"#utility.yul\":1676:1793   */\n    tag_143:\n        /* \"#utility.yul\":1785:1786   */\n      0x00\n        /* \"#utility.yul\":1782:1783   */\n      dup1\n        /* \"#utility.yul\":1775:1787   */\n      revert\n        /* \"#utility.yul\":1799:1916   */\n    tag_144:\n        /* \"#utility.yul\":1908:1909   */\n      0x00\n        /* \"#utility.yul\":1905:1906   */\n      dup1\n        /* \"#utility.yul\":1898:1910   */\n      revert\n        /* \"#utility.yul\":1922:2039   */\n    tag_145:\n        /* \"#utility.yul\":2031:2032   */\n      0x00\n        /* \"#utility.yul\":2028:2029   */\n      dup1\n        /* \"#utility.yul\":2021:2033   */\n      revert\n        /* \"#utility.yul\":2073:2670   */\n    tag_146:\n        /* \"#utility.yul\":2175:2183   */\n      0x00\n        /* \"#utility.yul\":2185:2191   */\n      dup1\n        /* \"#utility.yul\":2235:2238   */\n      dup4\n        /* \"#utility.yul\":2228:2232   */\n      0x1f\n        /* \"#utility.yul\":2220:2226   */\n      dup5\n        /* \"#utility.yul\":2216:2233   */\n      add\n        /* \"#utility.yul\":2212:2239   */\n      slt\n        /* \"#utility.yul\":2202:2324   */\n      tag_185\n      jumpi\n        /* \"#utility.yul\":2243:2322   */\n      tag_186\n      tag_143\n      jump\t// in\n    tag_186:\n        /* \"#utility.yul\":2202:2324   */\n    tag_185:\n        /* \"#utility.yul\":2356:2362   */\n      dup3\n        /* \"#utility.yul\":2343:2363   */\n      calldataload\n        /* \"#utility.yul\":2333:2363   */\n      swap1\n      pop\n        /* \"#utility.yul\":2386:2404   */\n      0xffffffffffffffff\n        /* \"#utility.yul\":2378:2384   */\n      dup2\n        /* \"#utility.yul\":2375:2405   */\n      gt\n        /* \"#utility.yul\":2372:2489   */\n      iszero\n      tag_187\n      jumpi\n        /* \"#utility.yul\":2408:2487   */\n      tag_188\n      tag_144\n      jump\t// in\n    tag_188:\n        /* \"#utility.yul\":2372:2489   */\n    tag_187:\n        /* \"#utility.yul\":2522:2526   */\n      0x20\n        /* \"#utility.yul\":2514:2520   */\n      dup4\n        /* \"#utility.yul\":2510:2527   */\n      add\n        /* \"#utility.yul\":2498:2527   */\n      swap2\n      pop\n        /* \"#utility.yul\":2576:2579   */\n      dup4\n        /* \"#utility.yul\":2568:2572   */\n      0x20\n        /* \"#utility.yul\":2560:2566   */\n      dup3\n        /* \"#utility.yul\":2556:2573   */\n      mul\n        /* \"#utility.yul\":2546:2554   */\n      dup4\n        /* \"#utility.yul\":2542:2574   */\n      add\n        /* \"#utility.yul\":2539:2580   */\n      gt\n        /* \"#utility.yul\":2536:2664   */\n      iszero\n      tag_189\n      jumpi\n        /* \"#utility.yul\":2583:2662   */\n      tag_190\n      tag_145\n      jump\t// in\n    tag_190:\n        /* \"#utility.yul\":2536:2664   */\n    tag_189:\n        /* \"#utility.yul\":2073:2670   */\n      swap3\n      pop\n      swap3\n      swap1\n      pop\n      jump\t// out\n        /* \"#utility.yul\":2693:3261   */\n    tag_147:\n        /* \"#utility.yul\":2766:2774   */\n      0x00\n        /* \"#utility.yul\":2776:2782   */\n      dup1\n        /* \"#utility.yul\":2826:2829   */\n      dup4\n        /* \"#utility.yul\":2819:2823   */\n      0x1f\n        /* \"#utility.yul\":2811:2817   */\n      dup5\n        /* \"#utility.yul\":2807:2824   */\n      add\n        /* \"#utility.yul\":2803:2830   */\n      slt\n        /* \"#utility.yul\":2793:2915   */\n      tag_192\n      jumpi\n        /* \"#utility.yul\":2834:2913   */\n      tag_193\n      tag_143\n      jump\t// in\n    tag_193:\n        /* \"#utility.yul\":2793:2915   */\n    tag_192:\n        /* \"#utility.yul\":2947:2953   */\n      dup3\n        /* \"#utility.yul\":2934:2954   */\n      calldataload\n        /* \"#utility.yul\":2924:2954   */\n      swap1\n      pop\n        /* \"#utility.yul\":2977:2995   */\n      0xffffffffffffffff\n        /* \"#utility.yul\":2969:2975   */\n      dup2\n        /* \"#utility.yul\":2966:2996   */\n      gt\n        /* \"#utility.yul\":2963:3080   */\n      iszero\n      tag_194\n      jumpi\n        /* \"#utility.yul\":2999:3078   */\n      tag_195\n      tag_144\n      jump\t// in\n    tag_195:\n        /* \"#utility.yul\":2963:3080   */\n    tag_194:\n        /* \"#utility.yul\":3113:3117   */\n      0x20\n        /* \"#utility.yul\":3105:3111   */\n      dup4\n        /* \"#utility.yul\":3101:3118   */\n      add\n        /* \"#utility.yul\":3089:3118   */\n      swap2\n      pop\n        /* \"#utility.yul\":3167:3170   */\n      dup4\n        /* \"#utility.yul\":3159:3163   */\n      0x20\n        /* \"#utility.yul\":3151:3157   */\n      dup3\n        /* \"#utility.yul\":3147:3164   */\n      mul\n        /* \"#utility.yul\":3137:3145   */\n      dup4\n        /* \"#utility.yul\":3133:3165   */\n      add\n        /* \"#utility.yul\":3130:3171   */\n      gt\n        /* \"#utility.yul\":3127:3255   */\n      iszero\n      tag_196\n      jumpi\n        /* \"#utility.yul\":3174:3253   */\n      tag_197\n      tag_145\n      jump\t// in\n    tag_197:\n        /* \"#utility.yul\":3127:3255   */\n    tag_196:\n        /* \"#utility.yul\":2693:3261   */\n      swap3\n      pop\n      swap3\n      swap1\n      pop\n      jump\t// out\n        /* \"#utility.yul\":3267:4259   */\n    tag_21:\n        /* \"#utility.yul\":3418:3424   */\n      0x00\n        /* \"#utility.yul\":3426:3432   */\n      dup1\n        /* \"#utility.yul\":3434:3440   */\n      0x00\n        /* \"#utility.yul\":3442:3448   */\n      dup1\n        /* \"#utility.yul\":3491:3493   */\n      0x40\n        /* \"#utility.yul\":3479:3488   */\n      dup6\n        /* \"#utility.yul\":3470:3477   */\n      dup8\n        /* \"#utility.yul\":3466:3489   */\n      sub\n        /* \"#utility.yul\":3462:3494   */\n      slt\n        /* \"#utility.yul\":3459:3578   */\n      iszero\n      tag_199\n      jumpi\n        /* \"#utility.yul\":3497:3576   */\n      tag_200\n      tag_141\n      jump\t// in\n    tag_200:\n        /* \"#utility.yul\":3459:3578   */\n    tag_199:\n        /* \"#utility.yul\":3645:3646   */\n      0x00\n        /* \"#utility.yul\":3634:3643   */\n      dup6\n        /* \"#utility.yul\":3630:3647   */\n      add\n        /* \"#utility.yul\":3617:3648   */\n      calldataload\n        /* \"#utility.yul\":3675:3693   */\n      0xffffffffffffffff\n        /* \"#utility.yul\":3667:3673   */\n      dup2\n        /* \"#utility.yul\":3664:3694   */\n      gt\n        /* \"#utility.yul\":3661:3778   */\n      iszero\n      tag_201\n      jumpi\n        /* \"#utility.yul\":3697:3776   */\n      tag_202\n      tag_142\n      jump\t// in\n    tag_202:\n        /* \"#utility.yul\":3661:3778   */\n    tag_201:\n        /* \"#utility.yul\":3810:3919   */\n      tag_203\n        /* \"#utility.yul\":3911:3918   */\n      dup8\n        /* \"#utility.yul\":3902:3908   */\n      dup3\n        /* \"#utility.yul\":3891:3900   */\n      dup9\n        /* \"#utility.yul\":3887:3909   */\n      add\n        /* \"#utility.yul\":3810:3919   */\n      tag_146\n      jump\t// in\n    tag_203:\n        /* \"#utility.yul\":3792:3919   */\n      swap5\n      pop\n      swap5\n      pop\n        /* \"#utility.yul\":3588:3929   */\n      pop\n        /* \"#utility.yul\":3996:3998   */\n      0x20\n        /* \"#utility.yul\":3985:3994   */\n      dup6\n        /* \"#utility.yul\":3981:3999   */\n      add\n        /* \"#utility.yul\":3968:4000   */\n      calldataload\n        /* \"#utility.yul\":4027:4045   */\n      0xffffffffffffffff\n        /* \"#utility.yul\":4019:4025   */\n      dup2\n        /* \"#utility.yul\":4016:4046   */\n      gt\n        /* \"#utility.yul\":4013:4130   */\n      iszero\n      tag_204\n      jumpi\n        /* \"#utility.yul\":4049:4128   */\n      tag_205\n      tag_142\n      jump\t// in\n    tag_205:\n        /* \"#utility.yul\":4013:4130   */\n    tag_204:\n        /* \"#utility.yul\":4162:4242   */\n      tag_206\n        /* \"#utility.yul\":4234:4241   */\n      dup8\n        /* \"#utility.yul\":4225:4231   */\n      dup3\n        /* \"#utility.yul\":4214:4223   */\n      dup9\n        /* \"#utility.yul\":4210:4232   */\n      add\n        /* \"#utility.yul\":4162:4242   */\n      tag_147\n      jump\t// in\n    tag_206:\n        /* \"#utility.yul\":4144:4242   */\n      swap3\n      pop\n      swap3\n      pop\n        /* \"#utility.yul\":3939:4252   */\n      pop\n        /* \"#utility.yul\":3267:4259   */\n      swap3\n      swap6\n      swap2\n      swap5\n      pop\n      swap3\n      pop\n      jump\t// out\n        /* \"#utility.yul\":4265:4355   */\n    tag_148:\n        /* \"#utility.yul\":4299:4306   */\n      0x00\n        /* \"#utility.yul\":4342:4347   */\n      dup2\n        /* \"#utility.yul\":4335:4348   */\n      iszero\n        /* \"#utility.yul\":4328:4349   */\n      iszero\n        /* \"#utility.yul\":4317:4349   */\n      swap1\n      pop\n        /* \"#utility.yul\":4265:4355   */\n      swap2\n      swap1\n      pop\n      jump\t// out\n        /* \"#utility.yul\":4361:4470   */\n    tag_149:\n        /* \"#utility.yul\":4442:4463   */\n      tag_209\n        /* \"#utility.yul\":4457:4462   */\n      dup2\n        /* \"#utility.yul\":4442:4463   */\n      tag_148\n      jump\t// in\n    tag_209:\n        /* \"#utility.yul\":4437:4440   */\n      dup3\n        /* \"#utility.yul\":4430:4464   */\n      mstore\n        /* \"#utility.yul\":4361:4470   */\n      pop\n      pop\n      jump\t// out\n        /* \"#utility.yul\":4476:4686   */\n    tag_24:\n        /* \"#utility.yul\":4563:4567   */\n      0x00\n        /* \"#utility.yul\":4601:4603   */\n      0x20\n        /* \"#utility.yul\":4590:4599   */\n      dup3\n        /* \"#utility.yul\":4586:4604   */\n      add\n        /* \"#utility.yul\":4578:4604   */\n      swap1\n      pop\n        /* \"#utility.yul\":4614:4679   */\n      tag_211\n        /* \"#utility.yul\":4676:4677   */\n      0x00\n        /* \"#utility.yul\":4665:4674   */\n      dup4\n        /* \"#utility.yul\":4661:4678   */\n      add\n        /* \"#utility.yul\":4652:4658   */\n      dup5\n        /* \"#utility.yul\":4614:4679   */\n      tag_149\n      jump\t// in\n    tag_211:\n        /* \"#utility.yul\":4476:4686   */\n      swap3\n      swap2\n      pop\n      pop\n      jump\t// out\n        /* \"#utility.yul\":4692:4809   */\n    tag_150:\n        /* \"#utility.yul\":4801:4802   */\n      0x00\n        /* \"#utility.yul\":4798:4799   */\n      dup1\n        /* \"#utility.yul\":4791:4803   */\n      revert\n        /* \"#utility.yul\":4841:5075   */\n    tag_151:\n        /* \"#utility.yul\":4916:4921   */\n      0x00\n        /* \"#utility.yul\":4957:4960   */\n      0x0140\n        /* \"#utility.yul\":4948:4954   */\n      dup3\n        /* \"#utility.yul\":4943:4946   */\n      dup5\n        /* \"#utility.yul\":4939:4955   */\n      sub\n        /* \"#utility.yul\":4935:4961   */\n      slt\n        /* \"#utility.yul\":4932:5045   */\n      iszero\n      tag_214\n      jumpi\n        /* \"#utility.yul\":4964:5043   */\n      tag_215\n      tag_150\n      jump\t// in\n    tag_215:\n        /* \"#utility.yul\":4932:5045   */\n    tag_214:\n        /* \"#utility.yul\":5063:5069   */\n      dup2\n        /* \"#utility.yul\":5054:5069   */\n      swap1\n      pop\n        /* \"#utility.yul\":4841:5075   */\n      swap3\n      swap2\n      pop\n      pop\n      jump\t// out\n        /* \"#utility.yul\":5081:5628   */\n    tag_34:\n        /* \"#utility.yul\":5169:5175   */\n      0x00\n        /* \"#utility.yul\":5218:5220   */\n      0x20\n        /* \"#utility.yul\":5206:5215   */\n      dup3\n        /* \"#utility.yul\":5197:5204   */\n      dup5\n        /* \"#utility.yul\":5193:5216   */\n      sub\n        /* \"#utility.yul\":5189:5221   */\n      slt\n        /* \"#utility.yul\":5186:5305   */\n      iszero\n      tag_217\n      jumpi\n        /* \"#utility.yul\":5224:5303   */\n      tag_218\n      tag_141\n      jump\t// in\n    tag_218:\n        /* \"#utility.yul\":5186:5305   */\n    tag_217:\n        /* \"#utility.yul\":5372:5373   */\n      0x00\n        /* \"#utility.yul\":5361:5370   */\n      dup3\n        /* \"#utility.yul\":5357:5374   */\n      add\n        /* \"#utility.yul\":5344:5375   */\n      calldataload\n        /* \"#utility.yul\":5402:5420   */\n      0xffffffffffffffff\n        /* \"#utility.yul\":5394:5400   */\n      dup2\n        /* \"#utility.yul\":5391:5421   */\n      gt\n        /* \"#utility.yul\":5388:5505   */\n      iszero\n      tag_219\n      jumpi\n        /* \"#utility.yul\":5424:5503   */\n      tag_220\n      tag_142\n      jump\t// in\n    tag_220:\n        /* \"#utility.yul\":5388:5505   */\n    tag_219:\n        /* \"#utility.yul\":5529:5611   */\n      tag_221\n        /* \"#utility.yul\":5603:5610   */\n      dup5\n        /* \"#utility.yul\":5594:5600   */\n      dup3\n        /* \"#utility.yul\":5583:5592   */\n      dup6\n        /* \"#utility.yul\":5579:5601   */\n      add\n        /* \"#utility.yul\":5529:5611   */\n      tag_151\n      jump\t// in\n    tag_221:\n        /* \"#utility.yul\":5519:5611   */\n      swap2\n      pop\n        /* \"#utility.yul\":5315:5621   */\n      pop\n        /* \"#utility.yul\":5081:5628   */\n      swap3\n      swap2\n      pop\n      pop\n      jump\t// out\n        /* \"#utility.yul\":5634:5782   */\n    tag_152:\n        /* \"#utility.yul\":5736:5747   */\n      0x00\n        /* \"#utility.yul\":5773:5776   */\n      dup2\n        /* \"#utility.yul\":5758:5776   */\n      swap1\n      pop\n        /* \"#utility.yul\":5634:5782   */\n      swap3\n      swap2\n      pop\n      pop\n      jump\t// out\n        /* \"#utility.yul\":5788:6178   */\n    tag_153:\n        /* \"#utility.yul\":5894:5897   */\n      0x00\n        /* \"#utility.yul\":5922:5961   */\n      tag_224\n        /* \"#utility.yul\":5955:5960   */\n      dup3\n        /* \"#utility.yul\":5922:5961   */\n      tag_135\n      jump\t// in\n    tag_224:\n        /* \"#utility.yul\":5977:6066   */\n      tag_225\n        /* \"#utility.yul\":6059:6065   */\n      dup2\n        /* \"#utility.yul\":6054:6057   */\n      dup6\n        /* \"#utility.yul\":5977:6066   */\n      tag_152\n      jump\t// in\n    tag_225:\n        /* \"#utility.yul\":5970:6066   */\n      swap4\n      pop\n        /* \"#utility.yul\":6075:6140   */\n      tag_226\n        /* \"#utility.yul\":6133:6139   */\n      dup2\n        /* \"#utility.yul\":6128:6131   */\n      dup6\n        /* \"#utility.yul\":6121:6125   */\n      0x20\n        /* \"#utility.yul\":6114:6119   */\n      dup7\n        /* \"#utility.yul\":6110:6126   */\n      add\n        /* \"#utility.yul\":6075:6140   */\n      tag_137\n      jump\t// in\n    tag_226:\n        /* \"#utility.yul\":6165:6171   */\n      dup1\n        /* \"#utility.yul\":6160:6163   */\n      dup5\n        /* \"#utility.yul\":6156:6172   */\n      add\n        /* \"#utility.yul\":6149:6172   */\n      swap2\n      pop\n        /* \"#utility.yul\":5898:6178   */\n      pop\n        /* \"#utility.yul\":5788:6178   */\n      swap3\n      swap2\n      pop\n      pop\n      jump\t// out\n        /* \"#utility.yul\":6184:6335   */\n    tag_154:\n        /* \"#utility.yul\":6324:6327   */\n      0x2e00000000000000000000000000000000000000000000000000000000000000\n        /* \"#utility.yul\":6320:6321   */\n      0x00\n        /* \"#utility.yul\":6312:6318   */\n      dup3\n        /* \"#utility.yul\":6308:6322   */\n      add\n        /* \"#utility.yul\":6301:6328   */\n      mstore\n        /* \"#utility.yul\":6184:6335   */\n      pop\n      jump\t// out\n        /* \"#utility.yul\":6341:6741   */\n    tag_155:\n        /* \"#utility.yul\":6501:6504   */\n      0x00\n        /* \"#utility.yul\":6522:6606   */\n      tag_229\n        /* \"#utility.yul\":6604:6605   */\n      0x01\n        /* \"#utility.yul\":6599:6602   */\n      dup4\n        /* \"#utility.yul\":6522:6606   */\n      tag_152\n      jump\t// in\n    tag_229:\n        /* \"#utility.yul\":6515:6606   */\n      swap2\n      pop\n        /* \"#utility.yul\":6615:6708   */\n      tag_230\n        /* \"#utility.yul\":6704:6707   */\n      dup3\n        /* \"#utility.yul\":6615:6708   */\n      tag_154\n      jump\t// in\n    tag_230:\n        /* \"#utility.yul\":6733:6734   */\n      0x01\n        /* \"#utility.yul\":6728:6731   */\n      dup3\n        /* \"#utility.yul\":6724:6735   */\n      add\n        /* \"#utility.yul\":6717:6735   */\n      swap1\n      pop\n        /* \"#utility.yul\":6341:6741   */\n      swap2\n      swap1\n      pop\n      jump\t// out\n        /* \"#utility.yul\":6747:7874   */\n    tag_48:\n        /* \"#utility.yul\":7177:7180   */\n      0x00\n        /* \"#utility.yul\":7199:7294   */\n      tag_232\n        /* \"#utility.yul\":7290:7293   */\n      dup3\n        /* \"#utility.yul\":7281:7287   */\n      dup7\n        /* \"#utility.yul\":7199:7294   */\n      tag_153\n      jump\t// in\n    tag_232:\n        /* \"#utility.yul\":7192:7294   */\n      swap2\n      pop\n        /* \"#utility.yul\":7311:7459   */\n      tag_233\n        /* \"#utility.yul\":7455:7458   */\n      dup3\n        /* \"#utility.yul\":7311:7459   */\n      tag_155\n      jump\t// in\n    tag_233:\n        /* \"#utility.yul\":7304:7459   */\n      swap2\n      pop\n        /* \"#utility.yul\":7476:7571   */\n      tag_234\n        /* \"#utility.yul\":7567:7570   */\n      dup3\n        /* \"#utility.yul\":7558:7564   */\n      dup6\n        /* \"#utility.yul\":7476:7571   */\n      tag_153\n      jump\t// in\n    tag_234:\n        /* \"#utility.yul\":7469:7571   */\n      swap2\n      pop\n        /* \"#utility.yul\":7588:7736   */\n      tag_235\n        /* \"#utility.yul\":7732:7735   */\n      dup3\n        /* \"#utility.yul\":7588:7736   */\n      tag_155\n      jump\t// in\n    tag_235:\n        /* \"#utility.yul\":7581:7736   */\n      swap2\n      pop\n        /* \"#utility.yul\":7753:7848   */\n      tag_236\n        /* \"#utility.yul\":7844:7847   */\n      dup3\n        /* \"#utility.yul\":7835:7841   */\n      dup5\n        /* \"#utility.yul\":7753:7848   */\n      tag_153\n      jump\t// in\n    tag_236:\n        /* \"#utility.yul\":7746:7848   */\n      swap2\n      pop\n        /* \"#utility.yul\":7865:7868   */\n      dup2\n        /* \"#utility.yul\":7858:7868   */\n      swap1\n      pop\n        /* \"#utility.yul\":6747:7874   */\n      swap5\n      swap4\n      pop\n      pop\n      pop\n      pop\n      jump\t// out\n        /* \"#utility.yul\":7880:8060   */\n    tag_59:\n        /* \"#utility.yul\":7928:8005   */\n      0x4e487b7100000000000000000000000000000000000000000000000000000000\n        /* \"#utility.yul\":7925:7926   */\n      0x00\n        /* \"#utility.yul\":7918:8006   */\n      mstore\n        /* \"#utility.yul\":8025:8029   */\n      0x32\n        /* \"#utility.yul\":8022:8023   */\n      0x04\n        /* \"#utility.yul\":8015:8030   */\n      mstore\n        /* \"#utility.yul\":8049:8053   */\n      0x24\n        /* \"#utility.yul\":8046:8047   */\n      0x00\n        /* \"#utility.yul\":8039:8054   */\n      revert\n        /* \"#utility.yul\":8066:8183   */\n    tag_156:\n        /* \"#utility.yul\":8175:8176   */\n      0x00\n        /* \"#utility.yul\":8172:8173   */\n      dup1\n        /* \"#utility.yul\":8165:8177   */\n      revert\n        /* \"#utility.yul\":8435:8832   */\n    tag_65:\n        /* \"#utility.yul\":8530:8534   */\n      0x00\n        /* \"#utility.yul\":8584:8595   */\n      dup3\n        /* \"#utility.yul\":8571:8596   */\n      calldataload\n        /* \"#utility.yul\":8686:8687   */\n      0x01\n        /* \"#utility.yul\":8678:8684   */\n      0x0140\n        /* \"#utility.yul\":8674:8688   */\n      sub\n        /* \"#utility.yul\":8663:8671   */\n      dup4\n        /* \"#utility.yul\":8647:8661   */\n      calldatasize\n        /* \"#utility.yul\":8643:8672   */\n      sub\n        /* \"#utility.yul\":8639:8689   */\n      sub\n        /* \"#utility.yul\":8619:8637   */\n      dup2\n        /* \"#utility.yul\":8615:8690   */\n      slt\n        /* \"#utility.yul\":8605:8775   */\n      tag_242\n      jumpi\n        /* \"#utility.yul\":8694:8773   */\n      tag_243\n      tag_156\n      jump\t// in\n    tag_243:\n        /* \"#utility.yul\":8605:8775   */\n    tag_242:\n        /* \"#utility.yul\":8806:8824   */\n      dup1\n        /* \"#utility.yul\":8796:8804   */\n      dup4\n        /* \"#utility.yul\":8792:8825   */\n      add\n        /* \"#utility.yul\":8784:8825   */\n      swap2\n      pop\n        /* \"#utility.yul\":8535:8832   */\n      pop\n        /* \"#utility.yul\":8435:8832   */\n      swap3\n      swap2\n      pop\n      pop\n      jump\t// out\n        /* \"#utility.yul\":8838:9018   */\n    tag_100:\n        /* \"#utility.yul\":8886:8963   */\n      0x4e487b7100000000000000000000000000000000000000000000000000000000\n        /* \"#utility.yul\":8883:8884   */\n      0x00\n        /* \"#utility.yul\":8876:8964   */\n      mstore\n        /* \"#utility.yul\":8983:8987   */\n      0x41\n        /* \"#utility.yul\":8980:8981   */\n      0x04\n        /* \"#utility.yul\":8973:8988   */\n      mstore\n        /* \"#utility.yul\":9007:9011   */\n      0x24\n        /* \"#utility.yul\":9004:9005   */\n      0x00\n        /* \"#utility.yul\":8997:9012   */\n      revert\n        /* \"#utility.yul\":9024:9204   */\n    tag_106:\n        /* \"#utility.yul\":9072:9149   */\n      0x4e487b7100000000000000000000000000000000000000000000000000000000\n        /* \"#utility.yul\":9069:9070   */\n      0x00\n        /* \"#utility.yul\":9062:9150   */\n      mstore\n        /* \"#utility.yul\":9169:9173   */\n      0x12\n        /* \"#utility.yul\":9166:9167   */\n      0x04\n        /* \"#utility.yul\":9159:9174   */\n      mstore\n        /* \"#utility.yul\":9193:9197   */\n      0x24\n        /* \"#utility.yul\":9190:9191   */\n      0x00\n        /* \"#utility.yul\":9183:9198   */\n      revert\n        /* \"#utility.yul\":9210:9336   */\n    tag_159:\n        /* \"#utility.yul\":9247:9254   */\n      0x00\n        /* \"#utility.yul\":9287:9329   */\n      0xffffffffffffffffffffffffffffffffffffffff\n        /* \"#utility.yul\":9280:9285   */\n      dup3\n        /* \"#utility.yul\":9276:9330   */\n      and\n        /* \"#utility.yul\":9265:9330   */\n      swap1\n      pop\n        /* \"#utility.yul\":9210:9336   */\n      swap2\n      swap1\n      pop\n      jump\t// out\n        /* \"#utility.yul\":9342:9438   */\n    tag_160:\n        /* \"#utility.yul\":9379:9386   */\n      0x00\n        /* \"#utility.yul\":9408:9432   */\n      tag_248\n        /* \"#utility.yul\":9426:9431   */\n      dup3\n        /* \"#utility.yul\":9408:9432   */\n      tag_159\n      jump\t// in\n    tag_248:\n        /* \"#utility.yul\":9397:9432   */\n      swap1\n      pop\n        /* \"#utility.yul\":9342:9438   */\n      swap2\n      swap1\n      pop\n      jump\t// out\n        /* \"#utility.yul\":9444:9566   */\n    tag_161:\n        /* \"#utility.yul\":9517:9541   */\n      tag_250\n        /* \"#utility.yul\":9535:9540   */\n      dup2\n        /* \"#utility.yul\":9517:9541   */\n      tag_160\n      jump\t// in\n    tag_250:\n        /* \"#utility.yul\":9510:9515   */\n      dup2\n        /* \"#utility.yul\":9507:9542   */\n      eq\n        /* \"#utility.yul\":9497:9560   */\n      tag_251\n      jumpi\n        /* \"#utility.yul\":9556:9557   */\n      0x00\n        /* \"#utility.yul\":9553:9554   */\n      dup1\n        /* \"#utility.yul\":9546:9558   */\n      revert\n        /* \"#utility.yul\":9497:9560   */\n    tag_251:\n        /* \"#utility.yul\":9444:9566   */\n      pop\n      jump\t// out\n        /* \"#utility.yul\":9572:9711   */\n    tag_162:\n        /* \"#utility.yul\":9618:9623   */\n      0x00\n        /* \"#utility.yul\":9656:9662   */\n      dup2\n        /* \"#utility.yul\":9643:9663   */\n      calldataload\n        /* \"#utility.yul\":9634:9663   */\n      swap1\n      pop\n        /* \"#utility.yul\":9672:9705   */\n      tag_253\n        /* \"#utility.yul\":9699:9704   */\n      dup2\n        /* \"#utility.yul\":9672:9705   */\n      tag_161\n      jump\t// in\n    tag_253:\n        /* \"#utility.yul\":9572:9711   */\n      swap3\n      swap2\n      pop\n      pop\n      jump\t// out\n        /* \"#utility.yul\":9717:10046   */\n    tag_114:\n        /* \"#utility.yul\":9776:9782   */\n      0x00\n        /* \"#utility.yul\":9825:9827   */\n      0x20\n        /* \"#utility.yul\":9813:9822   */\n      dup3\n        /* \"#utility.yul\":9804:9811   */\n      dup5\n        /* \"#utility.yul\":9800:9823   */\n      sub\n        /* \"#utility.yul\":9796:9828   */\n      slt\n        /* \"#utility.yul\":9793:9912   */\n      iszero\n      tag_255\n      jumpi\n        /* \"#utility.yul\":9831:9910   */\n      tag_256\n      tag_141\n      jump\t// in\n    tag_256:\n        /* \"#utility.yul\":9793:9912   */\n    tag_255:\n        /* \"#utility.yul\":9951:9952   */\n      0x00\n        /* \"#utility.yul\":9976:10029   */\n      tag_257\n        /* \"#utility.yul\":10021:10028   */\n      dup5\n        /* \"#utility.yul\":10012:10018   */\n      dup3\n        /* \"#utility.yul\":10001:10010   */\n      dup6\n        /* \"#utility.yul\":9997:10019   */\n      add\n        /* \"#utility.yul\":9976:10029   */\n      tag_162\n      jump\t// in\n    tag_257:\n        /* \"#utility.yul\":9966:10029   */\n      swap2\n      pop\n        /* \"#utility.yul\":9922:10039   */\n      pop\n        /* \"#utility.yul\":9717:10046   */\n      swap3\n      swap2\n      pop\n      pop\n      jump\t// out\n\n    auxdata: 0xa26469706673582212206f69811ac48d0b79731546a387a59791700a85bbf55f2057f06d67684302a55164736f6c63430008140033\n}\n",
				"bytecode": {
					"linkReferences": {},
					"object": "61012060405234801562000011575f80fd5b5060405162000ef238038062000ef28339818101604052810190620000379190620001d7565b81600160025f82608081815250508160a081815250508060c081815250505050505f73ffffffffffffffffffffffffffffffffffffffff168173ffffffffffffffffffffffffffffffffffffffff1603620000be576040517f83780ffe00000000000000000000000000000000000000000000000000000000815260040160405180910390fd5b8073ffffffffffffffffffffffffffffffffffffffff1660e08173ffffffffffffffffffffffffffffffffffffffff1681525050508073ffffffffffffffffffffffffffffffffffffffff166101008173ffffffffffffffffffffffffffffffffffffffff168152505050506200021c565b5f80fd5b5f73ffffffffffffffffffffffffffffffffffffffff82169050919050565b5f6200015f8262000134565b9050919050565b5f620001728262000153565b9050919050565b620001848162000166565b81146200018f575f80fd5b50565b5f81519050620001a28162000179565b92915050565b620001b38162000153565b8114620001be575f80fd5b50565b5f81519050620001d181620001a8565b92915050565b5f8060408385031215620001f057620001ef62000130565b5b5f620001ff8582860162000192565b92505060206200021285828601620001c1565b9150509250929050565b60805160a05160c05160e05161010051610c986200025a5f395f61062501525f61058601525f61021201525f6101e901525f6101c00152610c985ff3fe608060405260043610610058575f3560e01c806354fd4d50146100a157806388e5b2d9146100cb57806391db0b7e146100fb578063ce46e0461461012b578063e49617e114610155578063e60c3505146101855761009d565b3661009d576100656101b5565b61009b576040517f1574f9f300000000000000000000000000000000000000000000000000000000815260040160405180910390fd5b005b5f80fd5b3480156100ac575f80fd5b506100b56101b9565b6040516100c29190610867565b60405180910390f35b6100e560048036038101906100e09190610945565b61025c565b6040516100f291906109dd565b60405180910390f35b61011560048036038101906101109190610945565b610371565b60405161012291906109dd565b60405180910390f35b348015610136575f80fd5b5061013f6101b5565b60405161014c91906109dd565b60405180910390f35b61016f600480360381019061016a9190610a19565b610486565b60405161017c91906109dd565b60405180910390f35b61019f600480360381019061019a9190610a19565b6104a0565b6040516101ac91906109dd565b60405180910390f35b5f90565b60606101e47f00000000000000000000000000000000000000000000000000000000000000006104ba565b61020d7f00000000000000000000000000000000000000000000000000000000000000006104ba565b6102367f00000000000000000000000000000000000000000000000000000000000000006104ba565b60405160200161024893929190610ae4565b604051602081830303815290604052905090565b5f610265610584565b5f8585905090508383905081146102a8576040517f947d5a8400000000000000000000000000000000000000000000000000000000815260040160405180910390fd5b5f3490505f5b82811015610361575f8686838181106102ca576102c9610b2a565b5b9050602002013590508281111561030d576040517f1101129400000000000000000000000000000000000000000000000000000000815260040160405180910390fd5b61033b89898481811061032357610322610b2a565b5b90506020028101906103359190610b5b565b8261060b565b61034b575f945050505050610369565b80830392505061035a81610616565b90506102ae565b506001925050505b949350505050565b5f61037a610584565b5f8585905090508383905081146103bd576040517f947d5a8400000000000000000000000000000000000000000000000000000000815260040160405180910390fd5b5f3490505f5b82811015610476575f8686838181106103df576103de610b2a565b5b90506020020135905082811115610422576040517f1101129400000000000000000000000000000000000000000000000000000000815260040160405180910390fd5b61045089898481811061043857610437610b2a565b5b905060200281019061044a9190610b5b565b82610622565b610460575f94505050505061047e565b80830392505061046f81610616565b90506103c3565b506001925050505b949350505050565b5f61048f610584565b610499823461060b565b9050919050565b5f6104a9610584565b6104b38234610622565b9050919050565b60605f60016104c88461068c565b0190505f8167ffffffffffffffff8111156104e6576104e5610b83565b5b6040519080825280601f01601f1916602001820160405280156105185781602001600182028036833780820191505090505b5090505f82602001820190505b600115610579578080600190039150507f3031323334353637383961626364656600000000000000000000000000000000600a86061a8153600a858161056e5761056d610bb0565b5b0494505f8503610525575b819350505050919050565b7f000000000000000000000000000000000000000000000000000000000000000073ffffffffffffffffffffffffffffffffffffffff163373ffffffffffffffffffffffffffffffffffffffff1614610609576040517f4ca8886700000000000000000000000000000000000000000000000000000000815260040160405180910390fd5b565b5f6001905092915050565b5f600182019050919050565b5f7f000000000000000000000000000000000000000000000000000000000000000073ffffffffffffffffffffffffffffffffffffffff168360c001602081019061066d9190610c37565b73ffffffffffffffffffffffffffffffffffffffff1614905092915050565b5f805f90507a184f03e93ff9f4daa797ed6e38ed64bf6a1f01000000000000000083106106e8577a184f03e93ff9f4daa797ed6e38ed64bf6a1f01000000000000000083816106de576106dd610bb0565b5b0492506040810190505b6d04ee2d6d415b85acef81000000008310610725576d04ee2d6d415b85acef8100000000838161071b5761071a610bb0565b5b0492506020810190505b662386f26fc10000831061075457662386f26fc10000838161074a57610749610bb0565b5b0492506010810190505b6305f5e100831061077d576305f5e100838161077357610772610bb0565b5b0492506008810190505b61271083106107a257612710838161079857610797610bb0565b5b0492506004810190505b606483106107c557606483816107bb576107ba610bb0565b5b0492506002810190505b600a83106107d4576001810190505b80915050919050565b5f81519050919050565b5f82825260208201905092915050565b5f5b838110156108145780820151818401526020810190506107f9565b5f8484015250505050565b5f601f19601f8301169050919050565b5f610839826107dd565b61084381856107e7565b93506108538185602086016107f7565b61085c8161081f565b840191505092915050565b5f6020820190508181035f83015261087f818461082f565b905092915050565b5f80fd5b5f80fd5b5f80fd5b5f80fd5b5f80fd5b5f8083601f8401126108b0576108af61088f565b5b8235905067ffffffffffffffff8111156108cd576108cc610893565b5b6020830191508360208202830111156108e9576108e8610897565b5b9250929050565b5f8083601f8401126109055761090461088f565b5b8235905067ffffffffffffffff81111561092257610921610893565b5b60208301915083602082028301111561093e5761093d610897565b5b9250929050565b5f805f806040858703121561095d5761095c610887565b5b5f85013567ffffffffffffffff81111561097a5761097961088b565b5b6109868782880161089b565b9450945050602085013567ffffffffffffffff8111156109a9576109a861088b565b5b6109b5878288016108f0565b925092505092959194509250565b5f8115159050919050565b6109d7816109c3565b82525050565b5f6020820190506109f05f8301846109ce565b92915050565b5f80fd5b5f6101408284031215610a1057610a0f6109f6565b5b81905092915050565b5f60208284031215610a2e57610a2d610887565b5b5f82013567ffffffffffffffff811115610a4b57610a4a61088b565b5b610a57848285016109fa565b91505092915050565b5f81905092915050565b5f610a74826107dd565b610a7e8185610a60565b9350610a8e8185602086016107f7565b80840191505092915050565b7f2e000000000000000000000000000000000000000000000000000000000000005f82015250565b5f610ace600183610a60565b9150610ad982610a9a565b600182019050919050565b5f610aef8286610a6a565b9150610afa82610ac2565b9150610b068285610a6a565b9150610b1182610ac2565b9150610b1d8284610a6a565b9150819050949350505050565b7f4e487b71000000000000000000000000000000000000000000000000000000005f52603260045260245ffd5b5f80fd5b5f8235600161014003833603038112610b7757610b76610b57565b5b80830191505092915050565b7f4e487b71000000000000000000000000000000000000000000000000000000005f52604160045260245ffd5b7f4e487b71000000000000000000000000000000000000000000000000000000005f52601260045260245ffd5b5f73ffffffffffffffffffffffffffffffffffffffff82169050919050565b5f610c0682610bdd565b9050919050565b610c1681610bfc565b8114610c20575f80fd5b50565b5f81359050610c3181610c0d565b92915050565b5f60208284031215610c4c57610c4b610887565b5b5f610c5984828501610c23565b9150509291505056fea26469706673582212206f69811ac48d0b79731546a387a59791700a85bbf55f2057f06d67684302a55164736f6c63430008140033",
					"opcodes": "PUSH2 0x120 PUSH1 0x40 MSTORE CALLVALUE DUP1 ISZERO PUSH3 0x11 JUMPI PUSH0 DUP1 REVERT JUMPDEST POP PUSH1 0x40 MLOAD PUSH3 0xEF2 CODESIZE SUB DUP1 PUSH3 0xEF2 DUP4 CODECOPY DUP2 DUP2 ADD PUSH1 0x40 MSTORE DUP2 ADD SWAP1 PUSH3 0x37 SWAP2 SWAP1 PUSH3 0x1D7 JUMP JUMPDEST DUP2 PUSH1 0x1 PUSH1 0x2 PUSH0 DUP3 PUSH1 0x80 DUP2 DUP2 MSTORE POP POP DUP2 PUSH1 0xA0 DUP2 DUP2 MSTORE POP POP DUP1 PUSH1 0xC0 DUP2 DUP2 MSTORE POP POP POP POP POP PUSH0 PUSH20 0xFFFFFFFFFFFFFFFFFFFFFFFFFFFFFFFFFFFFFFFF AND DUP2 PUSH20 0xFFFFFFFFFFFFFFFFFFFFFFFFFFFFFFFFFFFFFFFF AND SUB PUSH3 0xBE JUMPI PUSH1 0x40 MLOAD PUSH32 0x83780FFE00000000000000000000000000000000000000000000000000000000 DUP2 MSTORE PUSH1 0x4 ADD PUSH1 0x40 MLOAD DUP1 SWAP2 SUB SWAP1 REVERT JUMPDEST DUP1 PUSH20 0xFFFFFFFFFFFFFFFFFFFFFFFFFFFFFFFFFFFFFFFF AND PUSH1 0xE0 DUP2 PUSH20 0xFFFFFFFFFFFFFFFFFFFFFFFFFFFFFFFFFFFFFFFF AND DUP2 MSTORE POP POP POP DUP1 PUSH20 0xFFFFFFFFFFFFFFFFFFFFFFFFFFFFFFFFFFFFFFFF AND PUSH2 0x100 DUP2 PUSH20 0xFFFFFFFFFFFFFFFFFFFFFFFFFFFFFFFFFFFFFFFF AND DUP2 MSTORE POP POP POP POP PUSH3 0x21C JUMP JUMPDEST PUSH0 DUP1 REVERT JUMPDEST PUSH0 PUSH20 0xFFFFFFFFFFFFFFFFFFFFFFFFFFFFFFFFFFFFFFFF DUP3 AND SWAP1 POP SWAP2 SWAP1 POP JUMP JUMPDEST PUSH0 PUSH3 0x15F DUP3 PUSH3 0x134 JUMP JUMPDEST SWAP1 POP SWAP2 SWAP1 POP JUMP JUMPDEST PUSH0 PUSH3 0x172 DUP3 PUSH3 0x153 JUMP JUMPDEST SWAP1 POP SWAP2 SWAP1 POP JUMP JUMPDEST PUSH3 0x184 DUP2 PUSH3 0x166 JUMP JUMPDEST DUP2 EQ PUSH3 0x18F JUMPI PUSH0 DUP1 REVERT JUMPDEST POP JUMP JUMPDEST PUSH0 DUP2 MLOAD SWAP1 POP PUSH3 0x1A2 DUP2 PUSH3 0x179 JUMP JUMPDEST SWAP3 SWAP2 POP POP JUMP JUMPDEST PUSH3 0x1B3 DUP2 PUSH3 0x153 JUMP JUMPDEST DUP2 EQ PUSH3 0x1BE JUMPI PUSH0 DUP1 REVERT JUMPDEST POP JUMP JUMPDEST PUSH0 DUP2 MLOAD SWAP1 POP PUSH3 0x1D1 DUP2 PUSH3 0x1A8 JUMP JUMPDEST SWAP3 SWAP2 POP POP JUMP JUMPDEST PUSH0 DUP1 PUSH1 0x40 DUP4 DUP6 SUB SLT ISZERO PUSH3 0x1F0 JUMPI PUSH3 0x1EF PUSH3 0x130 JUMP JUMPDEST JUMPDEST PUSH0 PUSH3 0x1FF DUP6 DUP3 DUP7 ADD PUSH3 0x192 JUMP JUMPDEST SWAP3 POP POP PUSH1 0x20 PUSH3 0x212 DUP6 DUP3 DUP7 ADD PUSH3 0x1C1 JUMP JUMPDEST SWAP2 POP POP SWAP3 POP SWAP3 SWAP1 POP JUMP JUMPDEST PUSH1 0x80 MLOAD PUSH1 0xA0 MLOAD PUSH1 0xC0 MLOAD PUSH1 0xE0 MLOAD PUSH2 0x100 MLOAD PUSH2 0xC98 PUSH3 0x25A PUSH0 CODECOPY PUSH0 PUSH2 0x625 ADD MSTORE PUSH0 PUSH2 0x586 ADD MSTORE PUSH0 PUSH2 0x212 ADD MSTORE PUSH0 PUSH2 0x1E9 ADD MSTORE PUSH0 PUSH2 0x1C0 ADD MSTORE PUSH2 0xC98 PUSH0 RETURN INVALID PUSH1 0x80 PUSH1 0x40 MSTORE PUSH1 0x4 CALLDATASIZE LT PUSH2 0x58 JUMPI PUSH0 CALLDATALOAD PUSH1 0xE0 SHR DUP1 PUSH4 0x54FD4D50 EQ PUSH2 0xA1 JUMPI DUP1 PUSH4 0x88E5B2D9 EQ PUSH2 0xCB JUMPI DUP1 PUSH4 0x91DB0B7E EQ PUSH2 0xFB JUMPI DUP1 PUSH4 0xCE46E046 EQ PUSH2 0x12B JUMPI DUP1 PUSH4 0xE49617E1 EQ PUSH2 0x155 JUMPI DUP1 PUSH4 0xE60C3505 EQ PUSH2 0x185 JUMPI PUSH2 0x9D JUMP JUMPDEST CALLDATASIZE PUSH2 0x9D JUMPI PUSH2 0x65 PUSH2 0x1B5 JUMP JUMPDEST PUSH2 0x9B JUMPI PUSH1 0x40 MLOAD PUSH32 0x1574F9F300000000000000000000000000000000000000000000000000000000 DUP2 MSTORE PUSH1 0x4 ADD PUSH1 0x40 MLOAD DUP1 SWAP2 SUB SWAP1 REVERT JUMPDEST STOP JUMPDEST PUSH0 DUP1 REVERT JUMPDEST CALLVALUE DUP1 ISZERO PUSH2 0xAC JUMPI PUSH0 DUP1 REVERT JUMPDEST POP PUSH2 0xB5 PUSH2 0x1B9 JUMP JUMPDEST PUSH1 0x40 MLOAD PUSH2 0xC2 SWAP2 SWAP1 PUSH2 0x867 JUMP JUMPDEST PUSH1 0x40 MLOAD DUP1 SWAP2 SUB SWAP1 RETURN JUMPDEST PUSH2 0xE5 PUSH1 0x4 DUP1 CALLDATASIZE SUB DUP2 ADD SWAP1 PUSH2 0xE0 SWAP2 SWAP1 PUSH2 0x945 JUMP JUMPDEST PUSH2 0x25C JUMP JUMPDEST PUSH1 0x40 MLOAD PUSH2 0xF2 SWAP2 SWAP1 PUSH2 0x9DD JUMP JUMPDEST PUSH1 0x40 MLOAD DUP1 SWAP2 SUB SWAP1 RETURN JUMPDEST PUSH2 0x115 PUSH1 0x4 DUP1 CALLDATASIZE SUB DUP2 ADD SWAP1 PUSH2 0x110 SWAP2 SWAP1 PUSH2 0x945 JUMP JUMPDEST PUSH2 0x371 JUMP JUMPDEST PUSH1 0x40 MLOAD PUSH2 0x122 SWAP2 SWAP1 PUSH2 0x9DD JUMP JUMPDEST PUSH1 0x40 MLOAD DUP1 SWAP2 SUB SWAP1 RETURN JUMPDEST CALLVALUE DUP1 ISZERO PUSH2 0x136 JUMPI PUSH0 DUP1 REVERT JUMPDEST POP PUSH2 0x13F PUSH2 0x1B5 JUMP JUMPDEST PUSH1 0x40 MLOAD PUSH2 0x14C SWAP2 SWAP1 PUSH2 0x9DD JUMP JUMPDEST PUSH1 0x40 MLOAD DUP1 SWAP2 SUB SWAP1 RETURN JUMPDEST PUSH2 0x16F PUSH1 0x4 DUP1 CALLDATASIZE SUB DUP2 ADD SWAP1 PUSH2 0x16A SWAP2 SWAP1 PUSH2 0xA19 JUMP JUMPDEST PUSH2 0x486 JUMP JUMPDEST PUSH1 0x40 MLOAD PUSH2 0x17C SWAP2 SWAP1 PUSH2 0x9DD JUMP JUMPDEST PUSH1 0x40 MLOAD DUP1 SWAP2 SUB SWAP1 RETURN JUMPDEST PUSH2 0x19F PUSH1 0x4 DUP1 CALLDATASIZE SUB DUP2 ADD SWAP1 PUSH2 0x19A SWAP2 SWAP1 PUSH2 0xA19 JUMP JUMPDEST PUSH2 0x4A0 JUMP JUMPDEST PUSH1 0x40 MLOAD PUSH2 0x1AC SWAP2 SWAP1 PUSH2 0x9DD JUMP JUMPDEST PUSH1 0x40 MLOAD DUP1 SWAP2 SUB SWAP1 RETURN JUMPDEST PUSH0 SWAP1 JUMP JUMPDEST PUSH1 0x60 PUSH2 0x1E4 PUSH32 0x0 PUSH2 0x4BA JUMP JUMPDEST PUSH2 0x20D PUSH32 0x0 PUSH2 0x4BA JUMP JUMPDEST PUSH2 0x236 PUSH32 0x0 PUSH2 0x4BA JUMP JUMPDEST PUSH1 0x40 MLOAD PUSH1 0x20 ADD PUSH2 0x248 SWAP4 SWAP3 SWAP2 SWAP1 PUSH2 0xAE4 JUMP JUMPDEST PUSH1 0x40 MLOAD PUSH1 0x20 DUP2 DUP4 SUB SUB DUP2 MSTORE SWAP1 PUSH1 0x40 MSTORE SWAP1 POP SWAP1 JUMP JUMPDEST PUSH0 PUSH2 0x265 PUSH2 0x584 JUMP JUMPDEST PUSH0 DUP6 DUP6 SWAP1 POP SWAP1 POP DUP4 DUP4 SWAP1 POP DUP2 EQ PUSH2 0x2A8 JUMPI PUSH1 0x40 MLOAD PUSH32 0x947D5A8400000000000000000000000000000000000000000000000000000000 DUP2 MSTORE PUSH1 0x4 ADD PUSH1 0x40 MLOAD DUP1 SWAP2 SUB SWAP1 REVERT JUMPDEST PUSH0 CALLVALUE SWAP1 POP PUSH0 JUMPDEST DUP3 DUP2 LT ISZERO PUSH2 0x361 JUMPI PUSH0 DUP7 DUP7 DUP4 DUP2 DUP2 LT PUSH2 0x2CA JUMPI PUSH2 0x2C9 PUSH2 0xB2A JUMP JUMPDEST JUMPDEST SWAP1 POP PUSH1 0x20 MUL ADD CALLDATALOAD SWAP1 POP DUP3 DUP2 GT ISZERO PUSH2 0x30D JUMPI PUSH1 0x40 MLOAD PUSH32 0x1101129400000000000000000000000000000000000000000000000000000000 DUP2 MSTORE PUSH1 0x4 ADD PUSH1 0x40 MLOAD DUP1 SWAP2 SUB SWAP1 REVERT JUMPDEST PUSH2 0x33B DUP10 DUP10 DUP5 DUP2 DUP2 LT PUSH2 0x323 JUMPI PUSH2 0x322 PUSH2 0xB2A JUMP JUMPDEST JUMPDEST SWAP1 POP PUSH1 0x20 MUL DUP2 ADD SWAP1 PUSH2 0x335 SWAP2 SWAP1 PUSH2 0xB5B JUMP JUMPDEST DUP3 PUSH2 0x60B JUMP JUMPDEST PUSH2 0x34B JUMPI PUSH0 SWAP5 POP POP POP POP POP PUSH2 0x369 JUMP JUMPDEST DUP1 DUP4 SUB SWAP3 POP POP PUSH2 0x35A DUP2 PUSH2 0x616 JUMP JUMPDEST SWAP1 POP PUSH2 0x2AE JUMP JUMPDEST POP PUSH1 0x1 SWAP3 POP POP POP JUMPDEST SWAP5 SWAP4 POP POP POP POP JUMP JUMPDEST PUSH0 PUSH2 0x37A PUSH2 0x584 JUMP JUMPDEST PUSH0 DUP6 DUP6 SWAP1 POP SWAP1 POP DUP4 DUP4 SWAP1 POP DUP2 EQ PUSH2 0x3BD JUMPI PUSH1 0x40 MLOAD PUSH32 0x947D5A8400000000000000000000000000000000000000000000000000000000 DUP2 MSTORE PUSH1 0x4 ADD PUSH1 0x40 MLOAD DUP1 SWAP2 SUB SWAP1 REVERT JUMPDEST PUSH0 CALLVALUE SWAP1 POP PUSH0 JUMPDEST DUP3 DUP2 LT ISZERO PUSH2 0x476 JUMPI PUSH0 DUP7 DUP7 DUP4 DUP2 DUP2 LT PUSH2 0x3DF JUMPI PUSH2 0x3DE PUSH2 0xB2A JUMP JUMPDEST JUMPDEST SWAP1 POP PUSH1 0x20 MUL ADD CALLDATALOAD SWAP1 POP DUP3 DUP2 GT ISZERO PUSH2 0x422 JUMPI PUSH1 0x40 MLOAD PUSH32 0x1101129400000000000000000000000000000000000000000000000000000000 DUP2 MSTORE PUSH1 0x4 ADD PUSH1 0x40 MLOAD DUP1 SWAP2 SUB SWAP1 REVERT JUMPDEST PUSH2 0x450 DUP10 DUP10 DUP5 DUP2 DUP2 LT PUSH2 0x438 JUMPI PUSH2 0x437 PUSH2 0xB2A JUMP JUMPDEST JUMPDEST SWAP1 POP PUSH1 0x20 MUL DUP2 ADD SWAP1 PUSH2 0x44A SWAP2 SWAP1 PUSH2 0xB5B JUMP JUMPDEST DUP3 PUSH2 0x622 JUMP JUMPDEST PUSH2 0x460 JUMPI PUSH0 SWAP5 POP POP POP POP POP PUSH2 0x47E JUMP JUMPDEST DUP1 DUP4 SUB SWAP3 POP POP PUSH2 0x46F DUP2 PUSH2 0x616 JUMP JUMPDEST SWAP1 POP PUSH2 0x3C3 JUMP JUMPDEST POP PUSH1 0x1 SWAP3 POP POP POP JUMPDEST SWAP5 SWAP4 POP POP POP POP JUMP JUMPDEST PUSH0 PUSH2 0x48F PUSH2 0x584 JUMP JUMPDEST PUSH2 0x499 DUP3 CALLVALUE PUSH2 0x60B JUMP JUMPDEST SWAP1 POP SWAP2 SWAP1 POP JUMP JUMPDEST PUSH0 PUSH2 0x4A9 PUSH2 0x584 JUMP JUMPDEST PUSH2 0x4B3 DUP3 CALLVALUE PUSH2 0x622 JUMP JUMPDEST SWAP1 POP SWAP2 SWAP1 POP JUMP JUMPDEST PUSH1 0x60 PUSH0 PUSH1 0x1 PUSH2 0x4C8 DUP5 PUSH2 0x68C JUMP JUMPDEST ADD SWAP1 POP PUSH0 DUP2 PUSH8 0xFFFFFFFFFFFFFFFF DUP2 GT ISZERO PUSH2 0x4E6 JUMPI PUSH2 0x4E5 PUSH2 0xB83 JUMP JUMPDEST JUMPDEST PUSH1 0x40 MLOAD SWAP1 DUP1 DUP3 MSTORE DUP1 PUSH1 0x1F ADD PUSH1 0x1F NOT AND PUSH1 0x20 ADD DUP3 ADD PUSH1 0x40 MSTORE DUP1 ISZERO PUSH2 0x518 JUMPI DUP2 PUSH1 0x20 ADD PUSH1 0x1 DUP3 MUL DUP1 CALLDATASIZE DUP4 CALLDATACOPY DUP1 DUP3 ADD SWAP2 POP POP SWAP1 POP JUMPDEST POP SWAP1 POP PUSH0 DUP3 PUSH1 0x20 ADD DUP3 ADD SWAP1 POP JUMPDEST PUSH1 0x1 ISZERO PUSH2 0x579 JUMPI DUP1 DUP1 PUSH1 0x1 SWAP1 SUB SWAP2 POP POP PUSH32 0x3031323334353637383961626364656600000000000000000000000000000000 PUSH1 0xA DUP7 MOD BYTE DUP2 MSTORE8 PUSH1 0xA DUP6 DUP2 PUSH2 0x56E JUMPI PUSH2 0x56D PUSH2 0xBB0 JUMP JUMPDEST JUMPDEST DIV SWAP5 POP PUSH0 DUP6 SUB PUSH2 0x525 JUMPI JUMPDEST DUP2 SWAP4 POP POP POP POP SWAP2 SWAP1 POP JUMP JUMPDEST PUSH32 0x0 PUSH20 0xFFFFFFFFFFFFFFFFFFFFFFFFFFFFFFFFFFFFFFFF AND CALLER PUSH20 0xFFFFFFFFFFFFFFFFFFFFFFFFFFFFFFFFFFFFFFFF AND EQ PUSH2 0x609 JUMPI PUSH1 0x40 MLOAD PUSH32 0x4CA8886700000000000000000000000000000000000000000000000000000000 DUP2 MSTORE PUSH1 0x4 ADD PUSH1 0x40 MLOAD DUP1 SWAP2 SUB SWAP1 REVERT JUMPDEST JUMP JUMPDEST PUSH0 PUSH1 0x1 SWAP1 POP SWAP3 SWAP2 POP POP JUMP JUMPDEST PUSH0 PUSH1 0x1 DUP3 ADD SWAP1 POP SWAP2 SWAP1 POP JUMP JUMPDEST PUSH0 PUSH32 0x0 PUSH20 0xFFFFFFFFFFFFFFFFFFFFFFFFFFFFFFFFFFFFFFFF AND DUP4 PUSH1 0xC0 ADD PUSH1 0x20 DUP2 ADD SWAP1 PUSH2 0x66D SWAP2 SWAP1 PUSH2 0xC37 JUMP JUMPDEST PUSH20 0xFFFFFFFFFFFFFFFFFFFFFFFFFFFFFFFFFFFFFFFF AND EQ SWAP1 POP SWAP3 SWAP2 POP POP JUMP JUMPDEST PUSH0 DUP1 PUSH0 SWAP1 POP PUSH27 0x184F03E93FF9F4DAA797ED6E38ED64BF6A1F010000000000000000 DUP4 LT PUSH2 0x6E8 JUMPI PUSH27 0x184F03E93FF9F4DAA797ED6E38ED64BF6A1F010000000000000000 DUP4 DUP2 PUSH2 0x6DE JUMPI PUSH2 0x6DD PUSH2 0xBB0 JUMP JUMPDEST JUMPDEST DIV SWAP3 POP PUSH1 0x40 DUP2 ADD SWAP1 POP JUMPDEST PUSH14 0x4EE2D6D415B85ACEF8100000000 DUP4 LT PUSH2 0x725 JUMPI PUSH14 0x4EE2D6D415B85ACEF8100000000 DUP4 DUP2 PUSH2 0x71B JUMPI PUSH2 0x71A PUSH2 0xBB0 JUMP JUMPDEST JUMPDEST DIV SWAP3 POP PUSH1 0x20 DUP2 ADD SWAP1 POP JUMPDEST PUSH7 0x2386F26FC10000 DUP4 LT PUSH2 0x754 JUMPI PUSH7 0x2386F26FC10000 DUP4 DUP2 PUSH2 0x74A JUMPI PUSH2 0x749 PUSH2 0xBB0 JUMP JUMPDEST JUMPDEST DIV SWAP3 POP PUSH1 0x10 DUP2 ADD SWAP1 POP JUMPDEST PUSH4 0x5F5E100 DUP4 LT PUSH2 0x77D JUMPI PUSH4 0x5F5E100 DUP4 DUP2 PUSH2 0x773 JUMPI PUSH2 0x772 PUSH2 0xBB0 JUMP JUMPDEST JUMPDEST DIV SWAP3 POP PUSH1 0x8 DUP2 ADD SWAP1 POP JUMPDEST PUSH2 0x2710 DUP4 LT PUSH2 0x7A2 JUMPI PUSH2 0x2710 DUP4 DUP2 PUSH2 0x798 JUMPI PUSH2 0x797 PUSH2 0xBB0 JUMP JUMPDEST JUMPDEST DIV SWAP3 POP PUSH1 0x4 DUP2 ADD SWAP1 POP JUMPDEST PUSH1 0x64 DUP4 LT PUSH2 0x7C5 JUMPI PUSH1 0x64 DUP4 DUP2 PUSH2 0x7BB JUMPI PUSH2 0x7BA PUSH2 0xBB0 JUMP JUMPDEST JUMPDEST DIV SWAP3 POP PUSH1 0x2 DUP2 ADD SWAP1 POP JUMPDEST PUSH1 0xA DUP4 LT PUSH2 0x7D4 JUMPI PUSH1 0x1 DUP2 ADD SWAP1 POP JUMPDEST DUP1 SWAP2 POP POP SWAP2 SWAP1 POP JUMP JUMPDEST PUSH0 DUP2 MLOAD SWAP1 POP SWAP2 SWAP1 POP JUMP JUMPDEST PUSH0 DUP3 DUP3 MSTORE PUSH1 0x20 DUP3 ADD SWAP1 POP SWAP3 SWAP2 POP POP JUMP JUMPDEST PUSH0 JUMPDEST DUP4 DUP2 LT ISZERO PUSH2 0x814 JUMPI DUP1 DUP3 ADD MLOAD DUP2 DUP5 ADD MSTORE PUSH1 0x20 DUP2 ADD SWAP1 POP PUSH2 0x7F9 JUMP JUMPDEST PUSH0 DUP5 DUP5 ADD MSTORE POP POP POP POP JUMP JUMPDEST PUSH0 PUSH1 0x1F NOT PUSH1 0x1F DUP4 ADD AND SWAP1 POP SWAP2 SWAP1 POP JUMP JUMPDEST PUSH0 PUSH2 0x839 DUP3 PUSH2 0x7DD JUMP JUMPDEST PUSH2 0x843 DUP2 DUP6 PUSH2 0x7E7 JUMP JUMPDEST SWAP4 POP PUSH2 0x853 DUP2 DUP6 PUSH1 0x20 DUP7 ADD PUSH2 0x7F7 JUMP JUMPDEST PUSH2 0x85C DUP2 PUSH2 0x81F JUMP JUMPDEST DUP5 ADD SWAP2 POP POP SWAP3 SWAP2 POP POP JUMP JUMPDEST PUSH0 PUSH1 0x20 DUP3 ADD SWAP1 POP DUP2 DUP2 SUB PUSH0 DUP4 ADD MSTORE PUSH2 0x87F DUP2 DUP5 PUSH2 0x82F JUMP JUMPDEST SWAP1 POP SWAP3 SWAP2 POP POP JUMP JUMPDEST PUSH0 DUP1 REVERT JUMPDEST PUSH0 DUP1 REVERT JUMPDEST PUSH0 DUP1 REVERT JUMPDEST PUSH0 DUP1 REVERT JUMPDEST PUSH0 DUP1 REVERT JUMPDEST PUSH0 DUP1 DUP4 PUSH1 0x1F DUP5 ADD SLT PUSH2 0x8B0 JUMPI PUSH2 0x8AF PUSH2 0x88F JUMP JUMPDEST JUMPDEST DUP3 CALLDATALOAD SWAP1 POP PUSH8 0xFFFFFFFFFFFFFFFF DUP2 GT ISZERO PUSH2 0x8CD JUMPI PUSH2 0x8CC PUSH2 0x893 JUMP JUMPDEST JUMPDEST PUSH1 0x20 DUP4 ADD SWAP2 POP DUP4 PUSH1 0x20 DUP3 MUL DUP4 ADD GT ISZERO PUSH2 0x8E9 JUMPI PUSH2 0x8E8 PUSH2 0x897 JUMP JUMPDEST JUMPDEST SWAP3 POP SWAP3 SWAP1 POP JUMP JUMPDEST PUSH0 DUP1 DUP4 PUSH1 0x1F DUP5 ADD SLT PUSH2 0x905 JUMPI PUSH2 0x904 PUSH2 0x88F JUMP JUMPDEST JUMPDEST DUP3 CALLDATALOAD SWAP1 POP PUSH8 0xFFFFFFFFFFFFFFFF DUP2 GT ISZERO PUSH2 0x922 JUMPI PUSH2 0x921 PUSH2 0x893 JUMP JUMPDEST JUMPDEST PUSH1 0x20 DUP4 ADD SWAP2 POP DUP4 PUSH1 0x20 DUP3 MUL DUP4 ADD GT ISZERO PUSH2 0x93E JUMPI PUSH2 0x93D PUSH2 0x897 JUMP JUMPDEST JUMPDEST SWAP3 POP SWAP3 SWAP1 POP JUMP JUMPDEST PUSH0 DUP1 PUSH0 DUP1 PUSH1 0x40 DUP6 DUP8 SUB SLT ISZERO PUSH2 0x95D JUMPI PUSH2 0x95C PUSH2 0x887 JUMP JUMPDEST JUMPDEST PUSH0 DUP6 ADD CALLDATALOAD PUSH8 0xFFFFFFFFFFFFFFFF DUP2 GT ISZERO PUSH2 0x97A JUMPI PUSH2 0x979 PUSH2 0x88B JUMP JUMPDEST JUMPDEST PUSH2 0x986 DUP8 DUP3 DUP9 ADD PUSH2 0x89B JUMP JUMPDEST SWAP5 POP SWAP5 POP POP PUSH1 0x20 DUP6 ADD CALLDATALOAD PUSH8 0xFFFFFFFFFFFFFFFF DUP2 GT ISZERO PUSH2 0x9A9 JUMPI PUSH2 0x9A8 PUSH2 0x88B JUMP JUMPDEST JUMPDEST PUSH2 0x9B5 DUP8 DUP3 DUP9 ADD PUSH2 0x8F0 JUMP JUMPDEST SWAP3 POP SWAP3 POP POP SWAP3 SWAP6 SWAP2 SWAP5 POP SWAP3 POP JUMP JUMPDEST PUSH0 DUP2 ISZERO ISZERO SWAP1 POP SWAP2 SWAP1 POP JUMP JUMPDEST PUSH2 0x9D7 DUP2 PUSH2 0x9C3 JUMP JUMPDEST DUP3 MSTORE POP POP JUMP JUMPDEST PUSH0 PUSH1 0x20 DUP3 ADD SWAP1 POP PUSH2 0x9F0 PUSH0 DUP4 ADD DUP5 PUSH2 0x9CE JUMP JUMPDEST SWAP3 SWAP2 POP POP JUMP JUMPDEST PUSH0 DUP1 REVERT JUMPDEST PUSH0 PUSH2 0x140 DUP3 DUP5 SUB SLT ISZERO PUSH2 0xA10 JUMPI PUSH2 0xA0F PUSH2 0x9F6 JUMP JUMPDEST JUMPDEST DUP2 SWAP1 POP SWAP3 SWAP2 POP POP JUMP JUMPDEST PUSH0 PUSH1 0x20 DUP3 DUP5 SUB SLT ISZERO PUSH2 0xA2E JUMPI PUSH2 0xA2D PUSH2 0x887 JUMP JUMPDEST JUMPDEST PUSH0 DUP3 ADD CALLDATALOAD PUSH8 0xFFFFFFFFFFFFFFFF DUP2 GT ISZERO PUSH2 0xA4B JUMPI PUSH2 0xA4A PUSH2 0x88B JUMP JUMPDEST JUMPDEST PUSH2 0xA57 DUP5 DUP3 DUP6 ADD PUSH2 0x9FA JUMP JUMPDEST SWAP2 POP POP SWAP3 SWAP2 POP POP JUMP JUMPDEST PUSH0 DUP2 SWAP1 POP SWAP3 SWAP2 POP POP JUMP JUMPDEST PUSH0 PUSH2 0xA74 DUP3 PUSH2 0x7DD JUMP JUMPDEST PUSH2 0xA7E DUP2 DUP6 PUSH2 0xA60 JUMP JUMPDEST SWAP4 POP PUSH2 0xA8E DUP2 DUP6 PUSH1 0x20 DUP7 ADD PUSH2 0x7F7 JUMP JUMPDEST DUP1 DUP5 ADD SWAP2 POP POP SWAP3 SWAP2 POP POP JUMP JUMPDEST PUSH32 0x2E00000000000000000000000000000000000000000000000000000000000000 PUSH0 DUP3 ADD MSTORE POP JUMP JUMPDEST PUSH0 PUSH2 0xACE PUSH1 0x1 DUP4 PUSH2 0xA60 JUMP JUMPDEST SWAP2 POP PUSH2 0xAD9 DUP3 PUSH2 0xA9A JUMP JUMPDEST PUSH1 0x1 DUP3 ADD SWAP1 POP SWAP2 SWAP1 POP JUMP JUMPDEST PUSH0 PUSH2 0xAEF DUP3 DUP7 PUSH2 0xA6A JUMP JUMPDEST SWAP2 POP PUSH2 0xAFA DUP3 PUSH2 0xAC2 JUMP JUMPDEST SWAP2 POP PUSH2 0xB06 DUP3 DUP6 PUSH2 0xA6A JUMP JUMPDEST SWAP2 POP PUSH2 0xB11 DUP3 PUSH2 0xAC2 JUMP JUMPDEST SWAP2 POP PUSH2 0xB1D DUP3 DUP5 PUSH2 0xA6A JUMP JUMPDEST SWAP2 POP DUP2 SWAP1 POP SWAP5 SWAP4 POP POP POP POP JUMP JUMPDEST PUSH32 0x4E487B7100000000000000000000000000000000000000000000000000000000 PUSH0 MSTORE PUSH1 0x32 PUSH1 0x4 MSTORE PUSH1 0x24 PUSH0 REVERT JUMPDEST PUSH0 DUP1 REVERT JUMPDEST PUSH0 DUP3 CALLDATALOAD PUSH1 0x1 PUSH2 0x140 SUB DUP4 CALLDATASIZE SUB SUB DUP2 SLT PUSH2 0xB77 JUMPI PUSH2 0xB76 PUSH2 0xB57 JUMP JUMPDEST JUMPDEST DUP1 DUP4 ADD SWAP2 POP POP SWAP3 SWAP2 POP POP JUMP JUMPDEST PUSH32 0x4E487B7100000000000000000000000000000000000000000000000000000000 PUSH0 MSTORE PUSH1 0x41 PUSH1 0x4 MSTORE PUSH1 0x24 PUSH0 REVERT JUMPDEST PUSH32 0x4E487B7100000000000000000000000000000000000000000000000000000000 PUSH0 MSTORE PUSH1 0x12 PUSH1 0x4 MSTORE PUSH1 0x24 PUSH0 REVERT JUMPDEST PUSH0 PUSH20 0xFFFFFFFFFFFFFFFFFFFFFFFFFFFFFFFFFFFFFFFF DUP3 AND SWAP1 POP SWAP2 SWAP1 POP JUMP JUMPDEST PUSH0 PUSH2 0xC06 DUP3 PUSH2 0xBDD JUMP JUMPDEST SWAP1 POP SWAP2 SWAP1 POP JUMP JUMPDEST PUSH2 0xC16 DUP2 PUSH2 0xBFC JUMP JUMPDEST DUP2 EQ PUSH2 0xC20 JUMPI PUSH0 DUP1 REVERT JUMPDEST POP JUMP JUMPDEST PUSH0 DUP2 CALLDATALOAD SWAP1 POP PUSH2 0xC31 DUP2 PUSH2 0xC0D JUMP JUMPDEST SWAP3 SWAP2 POP POP JUMP JUMPDEST PUSH0 PUSH1 0x20 DUP3 DUP5 SUB SLT ISZERO PUSH2 0xC4C JUMPI PUSH2 0xC4B PUSH2 0x887 JUMP JUMPDEST JUMPDEST PUSH0 PUSH2 0xC59 DUP5 DUP3 DUP6 ADD PUSH2 0xC23 JUMP JUMPDEST SWAP2 POP POP SWAP3 SWAP2 POP POP JUMP INVALID LOG2 PUSH5 0x6970667358 0x22 SLT KECCAK256 PUSH16 0x69811AC48D0B79731546A387A5979170 EXP DUP6 0xBB CREATE2 PUSH0 KECCAK256 JUMPI CREATE PUSH14 0x67684302A55164736F6C63430008 EQ STOP CALLER "
				},
				"gasEstimates": {
					"creation": {
						"codeDepositCost": "644800",
						"executionCost": "infinite",
						"totalCost": "infinite"
					},
					"external": {
						"attest((bytes32,bytes32,uint64,uint64,uint64,bytes32,address,address,bool,bytes))": "infinite",
						"isPayable()": "374",
						"multiAttest((bytes32,bytes32,uint64,uint64,uint64,bytes32,address,address,bool,bytes)[],uint256[])": "infinite",
						"multiRevoke((bytes32,bytes32,uint64,uint64,uint64,bytes32,address,address,bool,bytes)[],uint256[])": "infinite",
						"revoke((bytes32,bytes32,uint64,uint64,uint64,bytes32,address,address,bool,bytes))": "infinite",
						"version()": "infinite"
					},
					"internal": {
						"onAttest(struct Attestation calldata,uint256)": "infinite",
						"onRevoke(struct Attestation calldata,uint256)": "29"
					}
				},
				"methodIdentifiers": {
					"attest((bytes32,bytes32,uint64,uint64,uint64,bytes32,address,address,bool,bytes))": "e60c3505",
					"isPayable()": "ce46e046",
					"multiAttest((bytes32,bytes32,uint64,uint64,uint64,bytes32,address,address,bool,bytes)[],uint256[])": "91db0b7e",
					"multiRevoke((bytes32,bytes32,uint64,uint64,uint64,bytes32,address,address,bool,bytes)[],uint256[])": "88e5b2d9",
					"revoke((bytes32,bytes32,uint64,uint64,uint64,bytes32,address,address,bool,bytes))": "e49617e1",
					"version()": "54fd4d50"
				}
			},
			"storageLayout": {
				"storage": [],
				"types": null
			},
			"userdoc": {
				"kind": "user",
				"methods": {
					"attest((bytes32,bytes32,uint64,uint64,uint64,bytes32,address,address,bool,bytes))": {
						"notice": "Processes an attestation and verifies whether it's valid."
					},
					"isPayable()": {
						"notice": "Checks if the resolver can be sent ETH."
					},
					"multiAttest((bytes32,bytes32,uint64,uint64,uint64,bytes32,address,address,bool,bytes)[],uint256[])": {
						"notice": "Processes multiple attestations and verifies whether they are valid."
					},
					"multiRevoke((bytes32,bytes32,uint64,uint64,uint64,bytes32,address,address,bool,bytes)[],uint256[])": {
						"notice": "Processes revocation of multiple attestation and verifies they can be revoked."
					},
					"revoke((bytes32,bytes32,uint64,uint64,uint64,bytes32,address,address,bool,bytes))": {
						"notice": "Processes an attestation revocation and verifies if it can be revoked."
					},
					"version()": {
						"notice": "Returns the full semver contract version."
					}
				},
				"version": 1
			}
		}
	}
}