{
	"contracts/ExampleAttestation.sol": {
		"ExampleAttester": {
			"abi": [
				{
					"inputs": [],
					"name": "InvalidEAS",
					"type": "error"
				},
				{
					"inputs": [
						{
							"internalType": "bytes32",
							"name": "schema",
							"type": "bytes32"
						},
						{
							"internalType": "bool",
							"name": "_isdeveloper",
							"type": "bool"
						}
					],
					"name": "attestUint",
					"outputs": [
						{
							"internalType": "bytes32",
							"name": "",
							"type": "bytes32"
						}
					],
					"stateMutability": "nonpayable",
					"type": "function"
				},
				{
					"inputs": [
						{
							"internalType": "bytes32",
							"name": "schemauid",
							"type": "bytes32"
						}
					],
					"name": "get",
					"outputs": [
						{
							"internalType": "string",
							"name": "",
							"type": "string"
						}
					],
					"stateMutability": "view",
					"type": "function"
				},
				{
					"inputs": [
						{
							"internalType": "bytes32",
							"name": "attestUid",
							"type": "bytes32"
						}
					],
					"name": "getRecepient",
					"outputs": [
						{
							"internalType": "address",
							"name": "",
							"type": "address"
						}
					],
					"stateMutability": "view",
					"type": "function"
				},
				{
					"inputs": [
						{
							"internalType": "string",
							"name": "schema",
							"type": "string"
						},
						{
							"internalType": "contract ISchemaResolver",
							"name": "_resolver",
							"type": "address"
						},
						{
							"internalType": "bool",
							"name": "_revcoable",
							"type": "bool"
						}
					],
					"name": "registerSchema",
					"outputs": [
						{
							"internalType": "bytes32",
							"name": "",
							"type": "bytes32"
						}
					],
					"stateMutability": "nonpayable",
					"type": "function"
				}
			],
			"devdoc": {
				"kind": "dev",
				"methods": {},
				"version": 1
			},
			"evm": {
				"assembly": "    /* \"contracts/ExampleAttestation.sol\":806:2367  contract ExampleAttester {... */\n  mstore(0x40, 0x80)\n    /* \"contracts/ExampleAttestation.sol\":933:975  0xA1207F3BBa224E2c9c3c6D5aF63D0eb1582Ce587 */\n  0xa1207f3bba224e2c9c3c6d5af63d0eb1582ce587\n    /* \"contracts/ExampleAttestation.sol\":909:976  IEAS private  _eas=IEAS(0xA1207F3BBa224E2c9c3c6D5aF63D0eb1582Ce587) */\n  0x00\n  dup1\n  0x0100\n  exp\n  dup2\n  sload\n  dup2\n  0xffffffffffffffffffffffffffffffffffffffff\n  mul\n  not\n  and\n  swap1\n  dup4\n  0xffffffffffffffffffffffffffffffffffffffff\n  and\n  mul\n  or\n  swap1\n  sstore\n  pop\n    /* \"contracts/ExampleAttestation.sol\":1040:1082  0xA7b39296258348C78294F95B872b282326A97BDF */\n  0xa7b39296258348c78294f95b872b282326a97bdf\n    /* \"contracts/ExampleAttestation.sol\":983:1083  ISchemaRegistry private  _schemaregistry=ISchemaRegistry(0xA7b39296258348C78294F95B872b282326A97BDF) */\n  0x01\n  exp(0x0100, 0x00)\n  dup2\n  sload\n  dup2\n  0xffffffffffffffffffffffffffffffffffffffff\n  mul\n  not\n  and\n  swap1\n  dup4\n  0xffffffffffffffffffffffffffffffffffffffff\n  and\n  mul\n  or\n  swap1\n  sstore\n  pop\n    /* \"contracts/ExampleAttestation.sol\":806:2367  contract ExampleAttester {... */\n  callvalue\n  dup1\n  iszero\n  tag_1\n  jumpi\n  0x00\n  dup1\n  revert\ntag_1:\n  pop\n  dataSize(sub_0)\n  dup1\n  dataOffset(sub_0)\n  0x00\n  codecopy\n  0x00\n  return\nstop\n\nsub_0: assembly {\n        /* \"contracts/ExampleAttestation.sol\":806:2367  contract ExampleAttester {... */\n      mstore(0x40, 0x80)\n      callvalue\n      dup1\n      iszero\n      tag_1\n      jumpi\n      0x00\n      dup1\n      revert\n    tag_1:\n      pop\n      jumpi(tag_2, lt(calldatasize, 0x04))\n      shr(0xe0, calldataload(0x00))\n      dup1\n      0x53d55cc0\n      eq\n      tag_3\n      jumpi\n      dup1\n      0x7506fbe8\n      eq\n      tag_4\n      jumpi\n      dup1\n      0x8eaa6ac0\n      eq\n      tag_5\n      jumpi\n      dup1\n      0xb4648951\n      eq\n      tag_6\n      jumpi\n    tag_2:\n      0x00\n      dup1\n      revert\n        /* \"contracts/ExampleAttestation.sol\":2175:2365  function registerSchema(string memory schema,ISchemaResolver _resolver,bool _revcoable) public returns(bytes32){... */\n    tag_3:\n      tag_7\n      0x04\n      dup1\n      calldatasize\n      sub\n      dup2\n      add\n      swap1\n      tag_8\n      swap2\n      swap1\n      tag_9\n      jump\t// in\n    tag_8:\n      tag_10\n      jump\t// in\n    tag_7:\n      mload(0x40)\n      tag_11\n      swap2\n      swap1\n      tag_12\n      jump\t// in\n    tag_11:\n      mload(0x40)\n      dup1\n      swap2\n      sub\n      swap1\n      return\n        /* \"contracts/ExampleAttestation.sol\":1095:1814  function attestUint(bytes32 schema,bool _isdeveloper) external returns (bytes32) {... */\n    tag_4:\n      tag_13\n      0x04\n      dup1\n      calldatasize\n      sub\n      dup2\n      add\n      swap1\n      tag_14\n      swap2\n      swap1\n      tag_15\n      jump\t// in\n    tag_14:\n      tag_16\n      jump\t// in\n    tag_13:\n      mload(0x40)\n      tag_17\n      swap2\n      swap1\n      tag_12\n      jump\t// in\n    tag_17:\n      mload(0x40)\n      dup1\n      swap2\n      sub\n      swap1\n      return\n        /* \"contracts/ExampleAttestation.sol\":1997:2169  function get(bytes32 schemauid) public view returns(string memory){... */\n    tag_5:\n      tag_18\n      0x04\n      dup1\n      calldatasize\n      sub\n      dup2\n      add\n      swap1\n      tag_19\n      swap2\n      swap1\n      tag_20\n      jump\t// in\n    tag_19:\n      tag_21\n      jump\t// in\n    tag_18:\n      mload(0x40)\n      tag_22\n      swap2\n      swap1\n      tag_23\n      jump\t// in\n    tag_22:\n      mload(0x40)\n      dup1\n      swap2\n      sub\n      swap1\n      return\n        /* \"contracts/ExampleAttestation.sol\":1820:1991  function getRecepient(bytes32 attestUid) public view returns(address){... */\n    tag_6:\n      tag_24\n      0x04\n      dup1\n      calldatasize\n      sub\n      dup2\n      add\n      swap1\n      tag_25\n      swap2\n      swap1\n      tag_20\n      jump\t// in\n    tag_25:\n      tag_26\n      jump\t// in\n    tag_24:\n      mload(0x40)\n      tag_27\n      swap2\n      swap1\n      tag_28\n      jump\t// in\n    tag_27:\n      mload(0x40)\n      dup1\n      swap2\n      sub\n      swap1\n      return\n        /* \"contracts/ExampleAttestation.sol\":2175:2365  function registerSchema(string memory schema,ISchemaResolver _resolver,bool _revcoable) public returns(bytes32){... */\n    tag_10:\n        /* \"contracts/ExampleAttestation.sol\":2278:2285  bytes32 */\n      0x00\n        /* \"contracts/ExampleAttestation.sol\":2303:2318  _schemaregistry */\n      0x01\n      0x00\n      swap1\n      sload\n      swap1\n      0x0100\n      exp\n      swap1\n      div\n      0xffffffffffffffffffffffffffffffffffffffff\n      and\n        /* \"contracts/ExampleAttestation.sol\":2303:2327  _schemaregistry.register */\n      0xffffffffffffffffffffffffffffffffffffffff\n      and\n      0x60d7a278\n        /* \"contracts/ExampleAttestation.sol\":2328:2334  schema */\n      dup6\n        /* \"contracts/ExampleAttestation.sol\":2336:2345  _resolver */\n      dup6\n        /* \"contracts/ExampleAttestation.sol\":2347:2357  _revcoable */\n      dup6\n        /* \"contracts/ExampleAttestation.sol\":2303:2358  _schemaregistry.register(schema, _resolver, _revcoable) */\n      mload(0x40)\n      dup5\n      0xffffffff\n      and\n      0xe0\n      shl\n      dup2\n      mstore\n      0x04\n      add\n      tag_30\n      swap4\n      swap3\n      swap2\n      swap1\n      tag_31\n      jump\t// in\n    tag_30:\n      0x20\n      mload(0x40)\n      dup1\n      dup4\n      sub\n      dup2\n      0x00\n      dup8\n      gas\n      call\n      iszero\n      dup1\n      iszero\n      tag_33\n      jumpi\n      returndatasize\n      0x00\n      dup1\n      returndatacopy\n      revert(0x00, returndatasize)\n    tag_33:\n      pop\n      pop\n      pop\n      pop\n      mload(0x40)\n      returndatasize\n      not(0x1f)\n      0x1f\n      dup3\n      add\n      and\n      dup3\n      add\n      dup1\n      0x40\n      mstore\n      pop\n      dup2\n      add\n      swap1\n      tag_34\n      swap2\n      swap1\n      tag_35\n      jump\t// in\n    tag_34:\n        /* \"contracts/ExampleAttestation.sol\":2296:2358  return _schemaregistry.register(schema, _resolver, _revcoable) */\n      swap1\n      pop\n        /* \"contracts/ExampleAttestation.sol\":2175:2365  function registerSchema(string memory schema,ISchemaResolver _resolver,bool _revcoable) public returns(bytes32){... */\n      swap4\n      swap3\n      pop\n      pop\n      pop\n      jump\t// out\n        /* \"contracts/ExampleAttestation.sol\":1095:1814  function attestUint(bytes32 schema,bool _isdeveloper) external returns (bytes32) {... */\n    tag_16:\n        /* \"contracts/ExampleAttestation.sol\":1167:1174  bytes32 */\n      0x00\n        /* \"contracts/ExampleAttestation.sol\":1205:1209  _eas */\n      dup1\n      0x00\n      swap1\n      sload\n      swap1\n      0x0100\n      exp\n      swap1\n      div\n      0xffffffffffffffffffffffffffffffffffffffff\n      and\n        /* \"contracts/ExampleAttestation.sol\":1205:1216  _eas.attest */\n      0xffffffffffffffffffffffffffffffffffffffff\n      and\n      0xf17325e7\n        /* \"contracts/ExampleAttestation.sol\":1234:1793  AttestationRequest({... */\n      mload(0x40)\n      dup1\n      0x40\n      add\n      0x40\n      mstore\n      dup1\n        /* \"contracts/ExampleAttestation.sol\":1283:1289  schema */\n      dup7\n        /* \"contracts/ExampleAttestation.sol\":1234:1793  AttestationRequest({... */\n      dup2\n      mstore\n      0x20\n      add\n        /* \"contracts/ExampleAttestation.sol\":1317:1774  AttestationRequestData({... */\n      mload(0x40)\n      dup1\n      0xc0\n      add\n      0x40\n      mstore\n      dup1\n        /* \"contracts/ExampleAttestation.sol\":1377:1387  msg.sender */\n      caller\n        /* \"contracts/ExampleAttestation.sol\":1317:1774  AttestationRequestData({... */\n      0xffffffffffffffffffffffffffffffffffffffff\n      and\n      dup2\n      mstore\n      0x20\n      add\n        /* \"@ethereum-attestation-service/eas-contracts/contracts/Common.sol\":240:241  0 */\n      0x00\n        /* \"contracts/ExampleAttestation.sol\":1317:1774  AttestationRequestData({... */\n      0xffffffffffffffff\n      and\n      dup2\n      mstore\n      0x20\n      add\n        /* \"contracts/ExampleAttestation.sol\":1522:1526  true */\n      0x01\n        /* \"contracts/ExampleAttestation.sol\":1317:1774  AttestationRequestData({... */\n      iszero\n      iszero\n      dup2\n      mstore\n      0x20\n      add\n        /* \"@ethereum-attestation-service/eas-contracts/contracts/Common.sol\":138:139  0 */\n      0x00\n        /* \"contracts/ExampleAttestation.sol\":1560:1569  EMPTY_UID */\n      dup1\n      shl\n        /* \"contracts/ExampleAttestation.sol\":1317:1774  AttestationRequestData({... */\n      dup2\n      mstore\n      0x20\n      add\n        /* \"contracts/ExampleAttestation.sol\":1632:1644  _isdeveloper */\n      dup8\n        /* \"contracts/ExampleAttestation.sol\":1621:1645  abi.encode(_isdeveloper) */\n      add(0x20, mload(0x40))\n      tag_37\n      swap2\n      swap1\n      tag_38\n      jump\t// in\n    tag_37:\n      mload(0x40)\n      0x20\n      dup2\n      dup4\n      sub\n      sub\n      dup2\n      mstore\n      swap1\n      0x40\n      mstore\n        /* \"contracts/ExampleAttestation.sol\":1317:1774  AttestationRequestData({... */\n      dup2\n      mstore\n      0x20\n      add\n        /* \"contracts/ExampleAttestation.sol\":1734:1735  0 */\n      0x00\n        /* \"contracts/ExampleAttestation.sol\":1317:1774  AttestationRequestData({... */\n      dup2\n      mstore\n      pop\n        /* \"contracts/ExampleAttestation.sol\":1234:1793  AttestationRequest({... */\n      dup2\n      mstore\n      pop\n        /* \"contracts/ExampleAttestation.sol\":1205:1807  _eas.attest(... */\n      mload(0x40)\n      dup3\n      0xffffffff\n      and\n      0xe0\n      shl\n      dup2\n      mstore\n      0x04\n      add\n      tag_39\n      swap2\n      swap1\n      tag_40\n      jump\t// in\n    tag_39:\n      0x20\n      mload(0x40)\n      dup1\n      dup4\n      sub\n      dup2\n      0x00\n      dup8\n      gas\n      call\n      iszero\n      dup1\n      iszero\n      tag_42\n      jumpi\n      returndatasize\n      0x00\n      dup1\n      returndatacopy\n      revert(0x00, returndatasize)\n    tag_42:\n      pop\n      pop\n      pop\n      pop\n      mload(0x40)\n      returndatasize\n      not(0x1f)\n      0x1f\n      dup3\n      add\n      and\n      dup3\n      add\n      dup1\n      0x40\n      mstore\n      pop\n      dup2\n      add\n      swap1\n      tag_43\n      swap2\n      swap1\n      tag_35\n      jump\t// in\n    tag_43:\n        /* \"contracts/ExampleAttestation.sol\":1186:1807  return... */\n      swap1\n      pop\n        /* \"contracts/ExampleAttestation.sol\":1095:1814  function attestUint(bytes32 schema,bool _isdeveloper) external returns (bytes32) {... */\n      swap3\n      swap2\n      pop\n      pop\n      jump\t// out\n        /* \"contracts/ExampleAttestation.sol\":1997:2169  function get(bytes32 schemauid) public view returns(string memory){... */\n    tag_21:\n        /* \"contracts/ExampleAttestation.sol\":2049:2062  string memory */\n      0x60\n        /* \"contracts/ExampleAttestation.sol\":2073:2097  SchemaRecord memory data */\n      0x00\n        /* \"contracts/ExampleAttestation.sol\":2098:2113  _schemaregistry */\n      0x01\n      0x00\n      swap1\n      sload\n      swap1\n      0x0100\n      exp\n      swap1\n      div\n      0xffffffffffffffffffffffffffffffffffffffff\n      and\n        /* \"contracts/ExampleAttestation.sol\":2098:2123  _schemaregistry.getSchema */\n      0xffffffffffffffffffffffffffffffffffffffff\n      and\n      0xa2ea7c6e\n        /* \"contracts/ExampleAttestation.sol\":2124:2133  schemauid */\n      dup5\n        /* \"contracts/ExampleAttestation.sol\":2098:2134  _schemaregistry.getSchema(schemauid) */\n      mload(0x40)\n      dup3\n      0xffffffff\n      and\n      0xe0\n      shl\n      dup2\n      mstore\n      0x04\n      add\n      tag_45\n      swap2\n      swap1\n      tag_12\n      jump\t// in\n    tag_45:\n      0x00\n      mload(0x40)\n      dup1\n      dup4\n      sub\n      dup2\n      dup7\n      gas\n      staticcall\n      iszero\n      dup1\n      iszero\n      tag_47\n      jumpi\n      returndatasize\n      0x00\n      dup1\n      returndatacopy\n      revert(0x00, returndatasize)\n    tag_47:\n      pop\n      pop\n      pop\n      pop\n      mload(0x40)\n      returndatasize\n      0x00\n      dup3\n      returndatacopy\n      returndatasize\n      not(0x1f)\n      0x1f\n      dup3\n      add\n      and\n      dup3\n      add\n      dup1\n      0x40\n      mstore\n      pop\n      dup2\n      add\n      swap1\n      tag_48\n      swap2\n      swap1\n      tag_49\n      jump\t// in\n    tag_48:\n        /* \"contracts/ExampleAttestation.sol\":2073:2134  SchemaRecord memory data=_schemaregistry.getSchema(schemauid) */\n      swap1\n      pop\n        /* \"contracts/ExampleAttestation.sol\":2151:2155  data */\n      dup1\n        /* \"contracts/ExampleAttestation.sol\":2151:2162  data.schema */\n      0x60\n      add\n      mload\n        /* \"contracts/ExampleAttestation.sol\":2144:2162  return data.schema */\n      swap2\n      pop\n      pop\n        /* \"contracts/ExampleAttestation.sol\":1997:2169  function get(bytes32 schemauid) public view returns(string memory){... */\n      swap2\n      swap1\n      pop\n      jump\t// out\n        /* \"contracts/ExampleAttestation.sol\":1820:1991  function getRecepient(bytes32 attestUid) public view returns(address){... */\n    tag_26:\n        /* \"contracts/ExampleAttestation.sol\":1881:1888  address */\n      0x00\n        /* \"contracts/ExampleAttestation.sol\":1899:1922  Attestation memory data */\n      dup1\n        /* \"contracts/ExampleAttestation.sol\":1923:1927  _eas */\n      0x00\n      dup1\n      sload\n      swap1\n      0x0100\n      exp\n      swap1\n      div\n      0xffffffffffffffffffffffffffffffffffffffff\n      and\n        /* \"contracts/ExampleAttestation.sol\":1923:1942  _eas.getAttestation */\n      0xffffffffffffffffffffffffffffffffffffffff\n      and\n      0xa3112a64\n        /* \"contracts/ExampleAttestation.sol\":1943:1952  attestUid */\n      dup5\n        /* \"contracts/ExampleAttestation.sol\":1923:1953  _eas.getAttestation(attestUid) */\n      mload(0x40)\n      dup3\n      0xffffffff\n      and\n      0xe0\n      shl\n      dup2\n      mstore\n      0x04\n      add\n      tag_51\n      swap2\n      swap1\n      tag_12\n      jump\t// in\n    tag_51:\n      0x00\n      mload(0x40)\n      dup1\n      dup4\n      sub\n      dup2\n      dup7\n      gas\n      staticcall\n      iszero\n      dup1\n      iszero\n      tag_53\n      jumpi\n      returndatasize\n      0x00\n      dup1\n      returndatacopy\n      revert(0x00, returndatasize)\n    tag_53:\n      pop\n      pop\n      pop\n      pop\n      mload(0x40)\n      returndatasize\n      0x00\n      dup3\n      returndatacopy\n      returndatasize\n      not(0x1f)\n      0x1f\n      dup3\n      add\n      and\n      dup3\n      add\n      dup1\n      0x40\n      mstore\n      pop\n      dup2\n      add\n      swap1\n      tag_54\n      swap2\n      swap1\n      tag_55\n      jump\t// in\n    tag_54:\n        /* \"contracts/ExampleAttestation.sol\":1899:1953  Attestation memory data=_eas.getAttestation(attestUid) */\n      swap1\n      pop\n        /* \"contracts/ExampleAttestation.sol\":1970:1974  data */\n      dup1\n        /* \"contracts/ExampleAttestation.sol\":1970:1984  data.recipient */\n      0xc0\n      add\n      mload\n        /* \"contracts/ExampleAttestation.sol\":1963:1984  return data.recipient */\n      swap2\n      pop\n      pop\n        /* \"contracts/ExampleAttestation.sol\":1820:1991  function getRecepient(bytes32 attestUid) public view returns(address){... */\n      swap2\n      swap1\n      pop\n      jump\t// out\n        /* \"#utility.yul\":7:82   */\n    tag_56:\n        /* \"#utility.yul\":40:46   */\n      0x00\n        /* \"#utility.yul\":73:75   */\n      0x40\n        /* \"#utility.yul\":67:76   */\n      mload\n        /* \"#utility.yul\":57:76   */\n      swap1\n      pop\n        /* \"#utility.yul\":7:82   */\n      swap1\n      jump\t// out\n        /* \"#utility.yul\":88:205   */\n    tag_57:\n        /* \"#utility.yul\":197:198   */\n      0x00\n        /* \"#utility.yul\":194:195   */\n      dup1\n        /* \"#utility.yul\":187:199   */\n      revert\n        /* \"#utility.yul\":211:328   */\n    tag_58:\n        /* \"#utility.yul\":320:321   */\n      0x00\n        /* \"#utility.yul\":317:318   */\n      dup1\n        /* \"#utility.yul\":310:322   */\n      revert\n        /* \"#utility.yul\":334:451   */\n    tag_59:\n        /* \"#utility.yul\":443:444   */\n      0x00\n        /* \"#utility.yul\":440:441   */\n      dup1\n        /* \"#utility.yul\":433:445   */\n      revert\n        /* \"#utility.yul\":457:574   */\n    tag_60:\n        /* \"#utility.yul\":566:567   */\n      0x00\n        /* \"#utility.yul\":563:564   */\n      dup1\n        /* \"#utility.yul\":556:568   */\n      revert\n        /* \"#utility.yul\":580:682   */\n    tag_61:\n        /* \"#utility.yul\":621:627   */\n      0x00\n        /* \"#utility.yul\":672:674   */\n      0x1f\n        /* \"#utility.yul\":668:675   */\n      not\n        /* \"#utility.yul\":663:665   */\n      0x1f\n        /* \"#utility.yul\":656:661   */\n      dup4\n        /* \"#utility.yul\":652:666   */\n      add\n        /* \"#utility.yul\":648:676   */\n      and\n        /* \"#utility.yul\":638:676   */\n      swap1\n      pop\n        /* \"#utility.yul\":580:682   */\n      swap2\n      swap1\n      pop\n      jump\t// out\n        /* \"#utility.yul\":688:868   */\n    tag_62:\n        /* \"#utility.yul\":736:813   */\n      0x4e487b7100000000000000000000000000000000000000000000000000000000\n        /* \"#utility.yul\":733:734   */\n      0x00\n        /* \"#utility.yul\":726:814   */\n      mstore\n        /* \"#utility.yul\":833:837   */\n      0x41\n        /* \"#utility.yul\":830:831   */\n      0x04\n        /* \"#utility.yul\":823:838   */\n      mstore\n        /* \"#utility.yul\":857:861   */\n      0x24\n        /* \"#utility.yul\":854:855   */\n      0x00\n        /* \"#utility.yul\":847:862   */\n      revert\n        /* \"#utility.yul\":874:1155   */\n    tag_63:\n        /* \"#utility.yul\":957:984   */\n      tag_129\n        /* \"#utility.yul\":979:983   */\n      dup3\n        /* \"#utility.yul\":957:984   */\n      tag_61\n      jump\t// in\n    tag_129:\n        /* \"#utility.yul\":949:955   */\n      dup2\n        /* \"#utility.yul\":945:985   */\n      add\n        /* \"#utility.yul\":1087:1093   */\n      dup2\n        /* \"#utility.yul\":1075:1085   */\n      dup2\n        /* \"#utility.yul\":1072:1094   */\n      lt\n        /* \"#utility.yul\":1051:1069   */\n      0xffffffffffffffff\n        /* \"#utility.yul\":1039:1049   */\n      dup3\n        /* \"#utility.yul\":1036:1070   */\n      gt\n        /* \"#utility.yul\":1033:1095   */\n      or\n        /* \"#utility.yul\":1030:1118   */\n      iszero\n      tag_130\n      jumpi\n        /* \"#utility.yul\":1098:1116   */\n      tag_131\n      tag_62\n      jump\t// in\n    tag_131:\n        /* \"#utility.yul\":1030:1118   */\n    tag_130:\n        /* \"#utility.yul\":1138:1148   */\n      dup1\n        /* \"#utility.yul\":1134:1136   */\n      0x40\n        /* \"#utility.yul\":1127:1149   */\n      mstore\n        /* \"#utility.yul\":917:1155   */\n      pop\n        /* \"#utility.yul\":874:1155   */\n      pop\n      pop\n      jump\t// out\n        /* \"#utility.yul\":1161:1290   */\n    tag_64:\n        /* \"#utility.yul\":1195:1201   */\n      0x00\n        /* \"#utility.yul\":1222:1242   */\n      tag_133\n      tag_56\n      jump\t// in\n    tag_133:\n        /* \"#utility.yul\":1212:1242   */\n      swap1\n      pop\n        /* \"#utility.yul\":1251:1284   */\n      tag_134\n        /* \"#utility.yul\":1279:1283   */\n      dup3\n        /* \"#utility.yul\":1271:1277   */\n      dup3\n        /* \"#utility.yul\":1251:1284   */\n      tag_63\n      jump\t// in\n    tag_134:\n        /* \"#utility.yul\":1161:1290   */\n      swap2\n      swap1\n      pop\n      jump\t// out\n        /* \"#utility.yul\":1296:1604   */\n    tag_65:\n        /* \"#utility.yul\":1358:1362   */\n      0x00\n        /* \"#utility.yul\":1448:1466   */\n      0xffffffffffffffff\n        /* \"#utility.yul\":1440:1446   */\n      dup3\n        /* \"#utility.yul\":1437:1467   */\n      gt\n        /* \"#utility.yul\":1434:1490   */\n      iszero\n      tag_136\n      jumpi\n        /* \"#utility.yul\":1470:1488   */\n      tag_137\n      tag_62\n      jump\t// in\n    tag_137:\n        /* \"#utility.yul\":1434:1490   */\n    tag_136:\n        /* \"#utility.yul\":1508:1537   */\n      tag_138\n        /* \"#utility.yul\":1530:1536   */\n      dup3\n        /* \"#utility.yul\":1508:1537   */\n      tag_61\n      jump\t// in\n    tag_138:\n        /* \"#utility.yul\":1500:1537   */\n      swap1\n      pop\n        /* \"#utility.yul\":1592:1596   */\n      0x20\n        /* \"#utility.yul\":1586:1590   */\n      dup2\n        /* \"#utility.yul\":1582:1597   */\n      add\n        /* \"#utility.yul\":1574:1597   */\n      swap1\n      pop\n        /* \"#utility.yul\":1296:1604   */\n      swap2\n      swap1\n      pop\n      jump\t// out\n        /* \"#utility.yul\":1610:1756   */\n    tag_66:\n        /* \"#utility.yul\":1707:1713   */\n      dup3\n        /* \"#utility.yul\":1702:1705   */\n      dup2\n        /* \"#utility.yul\":1697:1700   */\n      dup4\n        /* \"#utility.yul\":1684:1714   */\n      calldatacopy\n        /* \"#utility.yul\":1748:1749   */\n      0x00\n        /* \"#utility.yul\":1739:1745   */\n      dup4\n        /* \"#utility.yul\":1734:1737   */\n      dup4\n        /* \"#utility.yul\":1730:1746   */\n      add\n        /* \"#utility.yul\":1723:1750   */\n      mstore\n        /* \"#utility.yul\":1610:1756   */\n      pop\n      pop\n      pop\n      jump\t// out\n        /* \"#utility.yul\":1762:2187   */\n    tag_67:\n        /* \"#utility.yul\":1840:1845   */\n      0x00\n        /* \"#utility.yul\":1865:1931   */\n      tag_141\n        /* \"#utility.yul\":1881:1930   */\n      tag_142\n        /* \"#utility.yul\":1923:1929   */\n      dup5\n        /* \"#utility.yul\":1881:1930   */\n      tag_65\n      jump\t// in\n    tag_142:\n        /* \"#utility.yul\":1865:1931   */\n      tag_64\n      jump\t// in\n    tag_141:\n        /* \"#utility.yul\":1856:1931   */\n      swap1\n      pop\n        /* \"#utility.yul\":1954:1960   */\n      dup3\n        /* \"#utility.yul\":1947:1952   */\n      dup2\n        /* \"#utility.yul\":1940:1961   */\n      mstore\n        /* \"#utility.yul\":1992:1996   */\n      0x20\n        /* \"#utility.yul\":1985:1990   */\n      dup2\n        /* \"#utility.yul\":1981:1997   */\n      add\n        /* \"#utility.yul\":2030:2033   */\n      dup5\n        /* \"#utility.yul\":2021:2027   */\n      dup5\n        /* \"#utility.yul\":2016:2019   */\n      dup5\n        /* \"#utility.yul\":2012:2028   */\n      add\n        /* \"#utility.yul\":2009:2034   */\n      gt\n        /* \"#utility.yul\":2006:2118   */\n      iszero\n      tag_143\n      jumpi\n        /* \"#utility.yul\":2037:2116   */\n      tag_144\n      tag_60\n      jump\t// in\n    tag_144:\n        /* \"#utility.yul\":2006:2118   */\n    tag_143:\n        /* \"#utility.yul\":2127:2181   */\n      tag_145\n        /* \"#utility.yul\":2174:2180   */\n      dup5\n        /* \"#utility.yul\":2169:2172   */\n      dup3\n        /* \"#utility.yul\":2164:2167   */\n      dup6\n        /* \"#utility.yul\":2127:2181   */\n      tag_66\n      jump\t// in\n    tag_145:\n        /* \"#utility.yul\":1846:2187   */\n      pop\n        /* \"#utility.yul\":1762:2187   */\n      swap4\n      swap3\n      pop\n      pop\n      pop\n      jump\t// out\n        /* \"#utility.yul\":2207:2547   */\n    tag_68:\n        /* \"#utility.yul\":2263:2268   */\n      0x00\n        /* \"#utility.yul\":2312:2315   */\n      dup3\n        /* \"#utility.yul\":2305:2309   */\n      0x1f\n        /* \"#utility.yul\":2297:2303   */\n      dup4\n        /* \"#utility.yul\":2293:2310   */\n      add\n        /* \"#utility.yul\":2289:2316   */\n      slt\n        /* \"#utility.yul\":2279:2401   */\n      tag_147\n      jumpi\n        /* \"#utility.yul\":2320:2399   */\n      tag_148\n      tag_59\n      jump\t// in\n    tag_148:\n        /* \"#utility.yul\":2279:2401   */\n    tag_147:\n        /* \"#utility.yul\":2437:2443   */\n      dup2\n        /* \"#utility.yul\":2424:2444   */\n      calldataload\n        /* \"#utility.yul\":2462:2541   */\n      tag_149\n        /* \"#utility.yul\":2537:2540   */\n      dup5\n        /* \"#utility.yul\":2529:2535   */\n      dup3\n        /* \"#utility.yul\":2522:2526   */\n      0x20\n        /* \"#utility.yul\":2514:2520   */\n      dup7\n        /* \"#utility.yul\":2510:2527   */\n      add\n        /* \"#utility.yul\":2462:2541   */\n      tag_67\n      jump\t// in\n    tag_149:\n        /* \"#utility.yul\":2453:2541   */\n      swap2\n      pop\n        /* \"#utility.yul\":2269:2547   */\n      pop\n        /* \"#utility.yul\":2207:2547   */\n      swap3\n      swap2\n      pop\n      pop\n      jump\t// out\n        /* \"#utility.yul\":2553:2679   */\n    tag_69:\n        /* \"#utility.yul\":2590:2597   */\n      0x00\n        /* \"#utility.yul\":2630:2672   */\n      0xffffffffffffffffffffffffffffffffffffffff\n        /* \"#utility.yul\":2623:2628   */\n      dup3\n        /* \"#utility.yul\":2619:2673   */\n      and\n        /* \"#utility.yul\":2608:2673   */\n      swap1\n      pop\n        /* \"#utility.yul\":2553:2679   */\n      swap2\n      swap1\n      pop\n      jump\t// out\n        /* \"#utility.yul\":2685:2781   */\n    tag_70:\n        /* \"#utility.yul\":2722:2729   */\n      0x00\n        /* \"#utility.yul\":2751:2775   */\n      tag_152\n        /* \"#utility.yul\":2769:2774   */\n      dup3\n        /* \"#utility.yul\":2751:2775   */\n      tag_69\n      jump\t// in\n    tag_152:\n        /* \"#utility.yul\":2740:2775   */\n      swap1\n      pop\n        /* \"#utility.yul\":2685:2781   */\n      swap2\n      swap1\n      pop\n      jump\t// out\n        /* \"#utility.yul\":2787:2906   */\n    tag_71:\n        /* \"#utility.yul\":2847:2854   */\n      0x00\n        /* \"#utility.yul\":2876:2900   */\n      tag_154\n        /* \"#utility.yul\":2894:2899   */\n      dup3\n        /* \"#utility.yul\":2876:2900   */\n      tag_70\n      jump\t// in\n    tag_154:\n        /* \"#utility.yul\":2865:2900   */\n      swap1\n      pop\n        /* \"#utility.yul\":2787:2906   */\n      swap2\n      swap1\n      pop\n      jump\t// out\n        /* \"#utility.yul\":2912:3080   */\n    tag_72:\n        /* \"#utility.yul\":3008:3055   */\n      tag_156\n        /* \"#utility.yul\":3049:3054   */\n      dup2\n        /* \"#utility.yul\":3008:3055   */\n      tag_71\n      jump\t// in\n    tag_156:\n        /* \"#utility.yul\":3001:3006   */\n      dup2\n        /* \"#utility.yul\":2998:3056   */\n      eq\n        /* \"#utility.yul\":2988:3074   */\n      tag_157\n      jumpi\n        /* \"#utility.yul\":3070:3071   */\n      0x00\n        /* \"#utility.yul\":3067:3068   */\n      dup1\n        /* \"#utility.yul\":3060:3072   */\n      revert\n        /* \"#utility.yul\":2988:3074   */\n    tag_157:\n        /* \"#utility.yul\":2912:3080   */\n      pop\n      jump\t// out\n        /* \"#utility.yul\":3086:3271   */\n    tag_73:\n        /* \"#utility.yul\":3155:3160   */\n      0x00\n        /* \"#utility.yul\":3193:3199   */\n      dup2\n        /* \"#utility.yul\":3180:3200   */\n      calldataload\n        /* \"#utility.yul\":3171:3200   */\n      swap1\n      pop\n        /* \"#utility.yul\":3209:3265   */\n      tag_159\n        /* \"#utility.yul\":3259:3264   */\n      dup2\n        /* \"#utility.yul\":3209:3265   */\n      tag_72\n      jump\t// in\n    tag_159:\n        /* \"#utility.yul\":3086:3271   */\n      swap3\n      swap2\n      pop\n      pop\n      jump\t// out\n        /* \"#utility.yul\":3277:3367   */\n    tag_74:\n        /* \"#utility.yul\":3311:3318   */\n      0x00\n        /* \"#utility.yul\":3354:3359   */\n      dup2\n        /* \"#utility.yul\":3347:3360   */\n      iszero\n        /* \"#utility.yul\":3340:3361   */\n      iszero\n        /* \"#utility.yul\":3329:3361   */\n      swap1\n      pop\n        /* \"#utility.yul\":3277:3367   */\n      swap2\n      swap1\n      pop\n      jump\t// out\n        /* \"#utility.yul\":3373:3489   */\n    tag_75:\n        /* \"#utility.yul\":3443:3464   */\n      tag_162\n        /* \"#utility.yul\":3458:3463   */\n      dup2\n        /* \"#utility.yul\":3443:3464   */\n      tag_74\n      jump\t// in\n    tag_162:\n        /* \"#utility.yul\":3436:3441   */\n      dup2\n        /* \"#utility.yul\":3433:3465   */\n      eq\n        /* \"#utility.yul\":3423:3483   */\n      tag_163\n      jumpi\n        /* \"#utility.yul\":3479:3480   */\n      0x00\n        /* \"#utility.yul\":3476:3477   */\n      dup1\n        /* \"#utility.yul\":3469:3481   */\n      revert\n        /* \"#utility.yul\":3423:3483   */\n    tag_163:\n        /* \"#utility.yul\":3373:3489   */\n      pop\n      jump\t// out\n        /* \"#utility.yul\":3495:3628   */\n    tag_76:\n        /* \"#utility.yul\":3538:3543   */\n      0x00\n        /* \"#utility.yul\":3576:3582   */\n      dup2\n        /* \"#utility.yul\":3563:3583   */\n      calldataload\n        /* \"#utility.yul\":3554:3583   */\n      swap1\n      pop\n        /* \"#utility.yul\":3592:3622   */\n      tag_165\n        /* \"#utility.yul\":3616:3621   */\n      dup2\n        /* \"#utility.yul\":3592:3622   */\n      tag_75\n      jump\t// in\n    tag_165:\n        /* \"#utility.yul\":3495:3628   */\n      swap3\n      swap2\n      pop\n      pop\n      jump\t// out\n        /* \"#utility.yul\":3634:4473   */\n    tag_9:\n        /* \"#utility.yul\":3741:3747   */\n      0x00\n        /* \"#utility.yul\":3749:3755   */\n      dup1\n        /* \"#utility.yul\":3757:3763   */\n      0x00\n        /* \"#utility.yul\":3806:3808   */\n      0x60\n        /* \"#utility.yul\":3794:3803   */\n      dup5\n        /* \"#utility.yul\":3785:3792   */\n      dup7\n        /* \"#utility.yul\":3781:3804   */\n      sub\n        /* \"#utility.yul\":3777:3809   */\n      slt\n        /* \"#utility.yul\":3774:3893   */\n      iszero\n      tag_167\n      jumpi\n        /* \"#utility.yul\":3812:3891   */\n      tag_168\n      tag_57\n      jump\t// in\n    tag_168:\n        /* \"#utility.yul\":3774:3893   */\n    tag_167:\n        /* \"#utility.yul\":3960:3961   */\n      0x00\n        /* \"#utility.yul\":3949:3958   */\n      dup5\n        /* \"#utility.yul\":3945:3962   */\n      add\n        /* \"#utility.yul\":3932:3963   */\n      calldataload\n        /* \"#utility.yul\":3990:4008   */\n      0xffffffffffffffff\n        /* \"#utility.yul\":3982:3988   */\n      dup2\n        /* \"#utility.yul\":3979:4009   */\n      gt\n        /* \"#utility.yul\":3976:4093   */\n      iszero\n      tag_169\n      jumpi\n        /* \"#utility.yul\":4012:4091   */\n      tag_170\n      tag_58\n      jump\t// in\n    tag_170:\n        /* \"#utility.yul\":3976:4093   */\n    tag_169:\n        /* \"#utility.yul\":4117:4180   */\n      tag_171\n        /* \"#utility.yul\":4172:4179   */\n      dup7\n        /* \"#utility.yul\":4163:4169   */\n      dup3\n        /* \"#utility.yul\":4152:4161   */\n      dup8\n        /* \"#utility.yul\":4148:4170   */\n      add\n        /* \"#utility.yul\":4117:4180   */\n      tag_68\n      jump\t// in\n    tag_171:\n        /* \"#utility.yul\":4107:4180   */\n      swap4\n      pop\n        /* \"#utility.yul\":3903:4190   */\n      pop\n        /* \"#utility.yul\":4229:4231   */\n      0x20\n        /* \"#utility.yul\":4255:4331   */\n      tag_172\n        /* \"#utility.yul\":4323:4330   */\n      dup7\n        /* \"#utility.yul\":4314:4320   */\n      dup3\n        /* \"#utility.yul\":4303:4312   */\n      dup8\n        /* \"#utility.yul\":4299:4321   */\n      add\n        /* \"#utility.yul\":4255:4331   */\n      tag_73\n      jump\t// in\n    tag_172:\n        /* \"#utility.yul\":4245:4331   */\n      swap3\n      pop\n        /* \"#utility.yul\":4200:4341   */\n      pop\n        /* \"#utility.yul\":4380:4382   */\n      0x40\n        /* \"#utility.yul\":4406:4456   */\n      tag_173\n        /* \"#utility.yul\":4448:4455   */\n      dup7\n        /* \"#utility.yul\":4439:4445   */\n      dup3\n        /* \"#utility.yul\":4428:4437   */\n      dup8\n        /* \"#utility.yul\":4424:4446   */\n      add\n        /* \"#utility.yul\":4406:4456   */\n      tag_76\n      jump\t// in\n    tag_173:\n        /* \"#utility.yul\":4396:4456   */\n      swap2\n      pop\n        /* \"#utility.yul\":4351:4466   */\n      pop\n        /* \"#utility.yul\":3634:4473   */\n      swap3\n      pop\n      swap3\n      pop\n      swap3\n      jump\t// out\n        /* \"#utility.yul\":4479:4556   */\n    tag_77:\n        /* \"#utility.yul\":4516:4523   */\n      0x00\n        /* \"#utility.yul\":4545:4550   */\n      dup2\n        /* \"#utility.yul\":4534:4550   */\n      swap1\n      pop\n        /* \"#utility.yul\":4479:4556   */\n      swap2\n      swap1\n      pop\n      jump\t// out\n        /* \"#utility.yul\":4562:4680   */\n    tag_78:\n        /* \"#utility.yul\":4649:4673   */\n      tag_176\n        /* \"#utility.yul\":4667:4672   */\n      dup2\n        /* \"#utility.yul\":4649:4673   */\n      tag_77\n      jump\t// in\n    tag_176:\n        /* \"#utility.yul\":4644:4647   */\n      dup3\n        /* \"#utility.yul\":4637:4674   */\n      mstore\n        /* \"#utility.yul\":4562:4680   */\n      pop\n      pop\n      jump\t// out\n        /* \"#utility.yul\":4686:4908   */\n    tag_12:\n        /* \"#utility.yul\":4779:4783   */\n      0x00\n        /* \"#utility.yul\":4817:4819   */\n      0x20\n        /* \"#utility.yul\":4806:4815   */\n      dup3\n        /* \"#utility.yul\":4802:4820   */\n      add\n        /* \"#utility.yul\":4794:4820   */\n      swap1\n      pop\n        /* \"#utility.yul\":4830:4901   */\n      tag_178\n        /* \"#utility.yul\":4898:4899   */\n      0x00\n        /* \"#utility.yul\":4887:4896   */\n      dup4\n        /* \"#utility.yul\":4883:4900   */\n      add\n        /* \"#utility.yul\":4874:4880   */\n      dup5\n        /* \"#utility.yul\":4830:4901   */\n      tag_78\n      jump\t// in\n    tag_178:\n        /* \"#utility.yul\":4686:4908   */\n      swap3\n      swap2\n      pop\n      pop\n      jump\t// out\n        /* \"#utility.yul\":4914:5036   */\n    tag_79:\n        /* \"#utility.yul\":4987:5011   */\n      tag_180\n        /* \"#utility.yul\":5005:5010   */\n      dup2\n        /* \"#utility.yul\":4987:5011   */\n      tag_77\n      jump\t// in\n    tag_180:\n        /* \"#utility.yul\":4980:4985   */\n      dup2\n        /* \"#utility.yul\":4977:5012   */\n      eq\n        /* \"#utility.yul\":4967:5030   */\n      tag_181\n      jumpi\n        /* \"#utility.yul\":5026:5027   */\n      0x00\n        /* \"#utility.yul\":5023:5024   */\n      dup1\n        /* \"#utility.yul\":5016:5028   */\n      revert\n        /* \"#utility.yul\":4967:5030   */\n    tag_181:\n        /* \"#utility.yul\":4914:5036   */\n      pop\n      jump\t// out\n        /* \"#utility.yul\":5042:5181   */\n    tag_80:\n        /* \"#utility.yul\":5088:5093   */\n      0x00\n        /* \"#utility.yul\":5126:5132   */\n      dup2\n        /* \"#utility.yul\":5113:5133   */\n      calldataload\n        /* \"#utility.yul\":5104:5133   */\n      swap1\n      pop\n        /* \"#utility.yul\":5142:5175   */\n      tag_183\n        /* \"#utility.yul\":5169:5174   */\n      dup2\n        /* \"#utility.yul\":5142:5175   */\n      tag_79\n      jump\t// in\n    tag_183:\n        /* \"#utility.yul\":5042:5181   */\n      swap3\n      swap2\n      pop\n      pop\n      jump\t// out\n        /* \"#utility.yul\":5187:5655   */\n    tag_15:\n        /* \"#utility.yul\":5252:5258   */\n      0x00\n        /* \"#utility.yul\":5260:5266   */\n      dup1\n        /* \"#utility.yul\":5309:5311   */\n      0x40\n        /* \"#utility.yul\":5297:5306   */\n      dup4\n        /* \"#utility.yul\":5288:5295   */\n      dup6\n        /* \"#utility.yul\":5284:5307   */\n      sub\n        /* \"#utility.yul\":5280:5312   */\n      slt\n        /* \"#utility.yul\":5277:5396   */\n      iszero\n      tag_185\n      jumpi\n        /* \"#utility.yul\":5315:5394   */\n      tag_186\n      tag_57\n      jump\t// in\n    tag_186:\n        /* \"#utility.yul\":5277:5396   */\n    tag_185:\n        /* \"#utility.yul\":5435:5436   */\n      0x00\n        /* \"#utility.yul\":5460:5513   */\n      tag_187\n        /* \"#utility.yul\":5505:5512   */\n      dup6\n        /* \"#utility.yul\":5496:5502   */\n      dup3\n        /* \"#utility.yul\":5485:5494   */\n      dup7\n        /* \"#utility.yul\":5481:5503   */\n      add\n        /* \"#utility.yul\":5460:5513   */\n      tag_80\n      jump\t// in\n    tag_187:\n        /* \"#utility.yul\":5450:5513   */\n      swap3\n      pop\n        /* \"#utility.yul\":5406:5523   */\n      pop\n        /* \"#utility.yul\":5562:5564   */\n      0x20\n        /* \"#utility.yul\":5588:5638   */\n      tag_188\n        /* \"#utility.yul\":5630:5637   */\n      dup6\n        /* \"#utility.yul\":5621:5627   */\n      dup3\n        /* \"#utility.yul\":5610:5619   */\n      dup7\n        /* \"#utility.yul\":5606:5628   */\n      add\n        /* \"#utility.yul\":5588:5638   */\n      tag_76\n      jump\t// in\n    tag_188:\n        /* \"#utility.yul\":5578:5638   */\n      swap2\n      pop\n        /* \"#utility.yul\":5533:5648   */\n      pop\n        /* \"#utility.yul\":5187:5655   */\n      swap3\n      pop\n      swap3\n      swap1\n      pop\n      jump\t// out\n        /* \"#utility.yul\":5661:5990   */\n    tag_20:\n        /* \"#utility.yul\":5720:5726   */\n      0x00\n        /* \"#utility.yul\":5769:5771   */\n      0x20\n        /* \"#utility.yul\":5757:5766   */\n      dup3\n        /* \"#utility.yul\":5748:5755   */\n      dup5\n        /* \"#utility.yul\":5744:5767   */\n      sub\n        /* \"#utility.yul\":5740:5772   */\n      slt\n        /* \"#utility.yul\":5737:5856   */\n      iszero\n      tag_190\n      jumpi\n        /* \"#utility.yul\":5775:5854   */\n      tag_191\n      tag_57\n      jump\t// in\n    tag_191:\n        /* \"#utility.yul\":5737:5856   */\n    tag_190:\n        /* \"#utility.yul\":5895:5896   */\n      0x00\n        /* \"#utility.yul\":5920:5973   */\n      tag_192\n        /* \"#utility.yul\":5965:5972   */\n      dup5\n        /* \"#utility.yul\":5956:5962   */\n      dup3\n        /* \"#utility.yul\":5945:5954   */\n      dup6\n        /* \"#utility.yul\":5941:5963   */\n      add\n        /* \"#utility.yul\":5920:5973   */\n      tag_80\n      jump\t// in\n    tag_192:\n        /* \"#utility.yul\":5910:5973   */\n      swap2\n      pop\n        /* \"#utility.yul\":5866:5983   */\n      pop\n        /* \"#utility.yul\":5661:5990   */\n      swap3\n      swap2\n      pop\n      pop\n      jump\t// out\n        /* \"#utility.yul\":5996:6095   */\n    tag_81:\n        /* \"#utility.yul\":6048:6054   */\n      0x00\n        /* \"#utility.yul\":6082:6087   */\n      dup2\n        /* \"#utility.yul\":6076:6088   */\n      mload\n        /* \"#utility.yul\":6066:6088   */\n      swap1\n      pop\n        /* \"#utility.yul\":5996:6095   */\n      swap2\n      swap1\n      pop\n      jump\t// out\n        /* \"#utility.yul\":6101:6270   */\n    tag_82:\n        /* \"#utility.yul\":6185:6196   */\n      0x00\n        /* \"#utility.yul\":6219:6225   */\n      dup3\n        /* \"#utility.yul\":6214:6217   */\n      dup3\n        /* \"#utility.yul\":6207:6226   */\n      mstore\n        /* \"#utility.yul\":6259:6263   */\n      0x20\n        /* \"#utility.yul\":6254:6257   */\n      dup3\n        /* \"#utility.yul\":6250:6264   */\n      add\n        /* \"#utility.yul\":6235:6264   */\n      swap1\n      pop\n        /* \"#utility.yul\":6101:6270   */\n      swap3\n      swap2\n      pop\n      pop\n      jump\t// out\n        /* \"#utility.yul\":6276:6522   */\n    tag_83:\n        /* \"#utility.yul\":6357:6358   */\n      0x00\n        /* \"#utility.yul\":6367:6480   */\n    tag_196:\n        /* \"#utility.yul\":6381:6387   */\n      dup4\n        /* \"#utility.yul\":6378:6379   */\n      dup2\n        /* \"#utility.yul\":6375:6388   */\n      lt\n        /* \"#utility.yul\":6367:6480   */\n      iszero\n      tag_198\n      jumpi\n        /* \"#utility.yul\":6466:6467   */\n      dup1\n        /* \"#utility.yul\":6461:6464   */\n      dup3\n        /* \"#utility.yul\":6457:6468   */\n      add\n        /* \"#utility.yul\":6451:6469   */\n      mload\n        /* \"#utility.yul\":6447:6448   */\n      dup2\n        /* \"#utility.yul\":6442:6445   */\n      dup5\n        /* \"#utility.yul\":6438:6449   */\n      add\n        /* \"#utility.yul\":6431:6470   */\n      mstore\n        /* \"#utility.yul\":6403:6405   */\n      0x20\n        /* \"#utility.yul\":6400:6401   */\n      dup2\n        /* \"#utility.yul\":6396:6406   */\n      add\n        /* \"#utility.yul\":6391:6406   */\n      swap1\n      pop\n        /* \"#utility.yul\":6367:6480   */\n      jump(tag_196)\n    tag_198:\n        /* \"#utility.yul\":6514:6515   */\n      0x00\n        /* \"#utility.yul\":6505:6511   */\n      dup5\n        /* \"#utility.yul\":6500:6503   */\n      dup5\n        /* \"#utility.yul\":6496:6512   */\n      add\n        /* \"#utility.yul\":6489:6516   */\n      mstore\n        /* \"#utility.yul\":6338:6522   */\n      pop\n        /* \"#utility.yul\":6276:6522   */\n      pop\n      pop\n      pop\n      jump\t// out\n        /* \"#utility.yul\":6528:6905   */\n    tag_84:\n        /* \"#utility.yul\":6616:6619   */\n      0x00\n        /* \"#utility.yul\":6644:6683   */\n      tag_200\n        /* \"#utility.yul\":6677:6682   */\n      dup3\n        /* \"#utility.yul\":6644:6683   */\n      tag_81\n      jump\t// in\n    tag_200:\n        /* \"#utility.yul\":6699:6770   */\n      tag_201\n        /* \"#utility.yul\":6763:6769   */\n      dup2\n        /* \"#utility.yul\":6758:6761   */\n      dup6\n        /* \"#utility.yul\":6699:6770   */\n      tag_82\n      jump\t// in\n    tag_201:\n        /* \"#utility.yul\":6692:6770   */\n      swap4\n      pop\n        /* \"#utility.yul\":6779:6844   */\n      tag_202\n        /* \"#utility.yul\":6837:6843   */\n      dup2\n        /* \"#utility.yul\":6832:6835   */\n      dup6\n        /* \"#utility.yul\":6825:6829   */\n      0x20\n        /* \"#utility.yul\":6818:6823   */\n      dup7\n        /* \"#utility.yul\":6814:6830   */\n      add\n        /* \"#utility.yul\":6779:6844   */\n      tag_83\n      jump\t// in\n    tag_202:\n        /* \"#utility.yul\":6869:6898   */\n      tag_203\n        /* \"#utility.yul\":6891:6897   */\n      dup2\n        /* \"#utility.yul\":6869:6898   */\n      tag_61\n      jump\t// in\n    tag_203:\n        /* \"#utility.yul\":6864:6867   */\n      dup5\n        /* \"#utility.yul\":6860:6899   */\n      add\n        /* \"#utility.yul\":6853:6899   */\n      swap2\n      pop\n        /* \"#utility.yul\":6620:6905   */\n      pop\n        /* \"#utility.yul\":6528:6905   */\n      swap3\n      swap2\n      pop\n      pop\n      jump\t// out\n        /* \"#utility.yul\":6911:7224   */\n    tag_23:\n        /* \"#utility.yul\":7024:7028   */\n      0x00\n        /* \"#utility.yul\":7062:7064   */\n      0x20\n        /* \"#utility.yul\":7051:7060   */\n      dup3\n        /* \"#utility.yul\":7047:7065   */\n      add\n        /* \"#utility.yul\":7039:7065   */\n      swap1\n      pop\n        /* \"#utility.yul\":7111:7120   */\n      dup2\n        /* \"#utility.yul\":7105:7109   */\n      dup2\n        /* \"#utility.yul\":7101:7121   */\n      sub\n        /* \"#utility.yul\":7097:7098   */\n      0x00\n        /* \"#utility.yul\":7086:7095   */\n      dup4\n        /* \"#utility.yul\":7082:7099   */\n      add\n        /* \"#utility.yul\":7075:7122   */\n      mstore\n        /* \"#utility.yul\":7139:7217   */\n      tag_205\n        /* \"#utility.yul\":7212:7216   */\n      dup2\n        /* \"#utility.yul\":7203:7209   */\n      dup5\n        /* \"#utility.yul\":7139:7217   */\n      tag_84\n      jump\t// in\n    tag_205:\n        /* \"#utility.yul\":7131:7217   */\n      swap1\n      pop\n        /* \"#utility.yul\":6911:7224   */\n      swap3\n      swap2\n      pop\n      pop\n      jump\t// out\n        /* \"#utility.yul\":7230:7348   */\n    tag_85:\n        /* \"#utility.yul\":7317:7341   */\n      tag_207\n        /* \"#utility.yul\":7335:7340   */\n      dup2\n        /* \"#utility.yul\":7317:7341   */\n      tag_70\n      jump\t// in\n    tag_207:\n        /* \"#utility.yul\":7312:7315   */\n      dup3\n        /* \"#utility.yul\":7305:7342   */\n      mstore\n        /* \"#utility.yul\":7230:7348   */\n      pop\n      pop\n      jump\t// out\n        /* \"#utility.yul\":7354:7576   */\n    tag_28:\n        /* \"#utility.yul\":7447:7451   */\n      0x00\n        /* \"#utility.yul\":7485:7487   */\n      0x20\n        /* \"#utility.yul\":7474:7483   */\n      dup3\n        /* \"#utility.yul\":7470:7488   */\n      add\n        /* \"#utility.yul\":7462:7488   */\n      swap1\n      pop\n        /* \"#utility.yul\":7498:7569   */\n      tag_209\n        /* \"#utility.yul\":7566:7567   */\n      0x00\n        /* \"#utility.yul\":7555:7564   */\n      dup4\n        /* \"#utility.yul\":7551:7568   */\n      add\n        /* \"#utility.yul\":7542:7548   */\n      dup5\n        /* \"#utility.yul\":7498:7569   */\n      tag_85\n      jump\t// in\n    tag_209:\n        /* \"#utility.yul\":7354:7576   */\n      swap3\n      swap2\n      pop\n      pop\n      jump\t// out\n        /* \"#utility.yul\":7582:7642   */\n    tag_86:\n        /* \"#utility.yul\":7610:7613   */\n      0x00\n        /* \"#utility.yul\":7631:7636   */\n      dup2\n        /* \"#utility.yul\":7624:7636   */\n      swap1\n      pop\n        /* \"#utility.yul\":7582:7642   */\n      swap2\n      swap1\n      pop\n      jump\t// out\n        /* \"#utility.yul\":7648:7790   */\n    tag_87:\n        /* \"#utility.yul\":7698:7707   */\n      0x00\n        /* \"#utility.yul\":7731:7784   */\n      tag_212\n        /* \"#utility.yul\":7749:7783   */\n      tag_213\n        /* \"#utility.yul\":7758:7782   */\n      tag_214\n        /* \"#utility.yul\":7776:7781   */\n      dup5\n        /* \"#utility.yul\":7758:7782   */\n      tag_69\n      jump\t// in\n    tag_214:\n        /* \"#utility.yul\":7749:7783   */\n      tag_86\n      jump\t// in\n    tag_213:\n        /* \"#utility.yul\":7731:7784   */\n      tag_69\n      jump\t// in\n    tag_212:\n        /* \"#utility.yul\":7718:7784   */\n      swap1\n      pop\n        /* \"#utility.yul\":7648:7790   */\n      swap2\n      swap1\n      pop\n      jump\t// out\n        /* \"#utility.yul\":7796:7922   */\n    tag_88:\n        /* \"#utility.yul\":7846:7855   */\n      0x00\n        /* \"#utility.yul\":7879:7916   */\n      tag_216\n        /* \"#utility.yul\":7910:7915   */\n      dup3\n        /* \"#utility.yul\":7879:7916   */\n      tag_87\n      jump\t// in\n    tag_216:\n        /* \"#utility.yul\":7866:7916   */\n      swap1\n      pop\n        /* \"#utility.yul\":7796:7922   */\n      swap2\n      swap1\n      pop\n      jump\t// out\n        /* \"#utility.yul\":7928:8077   */\n    tag_89:\n        /* \"#utility.yul\":8001:8010   */\n      0x00\n        /* \"#utility.yul\":8034:8071   */\n      tag_218\n        /* \"#utility.yul\":8065:8070   */\n      dup3\n        /* \"#utility.yul\":8034:8071   */\n      tag_88\n      jump\t// in\n    tag_218:\n        /* \"#utility.yul\":8021:8071   */\n      swap1\n      pop\n        /* \"#utility.yul\":7928:8077   */\n      swap2\n      swap1\n      pop\n      jump\t// out\n        /* \"#utility.yul\":8083:8260   */\n    tag_90:\n        /* \"#utility.yul\":8193:8253   */\n      tag_220\n        /* \"#utility.yul\":8247:8252   */\n      dup2\n        /* \"#utility.yul\":8193:8253   */\n      tag_89\n      jump\t// in\n    tag_220:\n        /* \"#utility.yul\":8188:8191   */\n      dup3\n        /* \"#utility.yul\":8181:8254   */\n      mstore\n        /* \"#utility.yul\":8083:8260   */\n      pop\n      pop\n      jump\t// out\n        /* \"#utility.yul\":8266:8375   */\n    tag_91:\n        /* \"#utility.yul\":8347:8368   */\n      tag_222\n        /* \"#utility.yul\":8362:8367   */\n      dup2\n        /* \"#utility.yul\":8347:8368   */\n      tag_74\n      jump\t// in\n    tag_222:\n        /* \"#utility.yul\":8342:8345   */\n      dup3\n        /* \"#utility.yul\":8335:8369   */\n      mstore\n        /* \"#utility.yul\":8266:8375   */\n      pop\n      pop\n      jump\t// out\n        /* \"#utility.yul\":8381:8948   */\n    tag_31:\n        /* \"#utility.yul\":8567:8571   */\n      0x00\n        /* \"#utility.yul\":8605:8607   */\n      0x60\n        /* \"#utility.yul\":8594:8603   */\n      dup3\n        /* \"#utility.yul\":8590:8608   */\n      add\n        /* \"#utility.yul\":8582:8608   */\n      swap1\n      pop\n        /* \"#utility.yul\":8654:8663   */\n      dup2\n        /* \"#utility.yul\":8648:8652   */\n      dup2\n        /* \"#utility.yul\":8644:8664   */\n      sub\n        /* \"#utility.yul\":8640:8641   */\n      0x00\n        /* \"#utility.yul\":8629:8638   */\n      dup4\n        /* \"#utility.yul\":8625:8642   */\n      add\n        /* \"#utility.yul\":8618:8665   */\n      mstore\n        /* \"#utility.yul\":8682:8760   */\n      tag_224\n        /* \"#utility.yul\":8755:8759   */\n      dup2\n        /* \"#utility.yul\":8746:8752   */\n      dup7\n        /* \"#utility.yul\":8682:8760   */\n      tag_84\n      jump\t// in\n    tag_224:\n        /* \"#utility.yul\":8674:8760   */\n      swap1\n      pop\n        /* \"#utility.yul\":8770:8865   */\n      tag_225\n        /* \"#utility.yul\":8861:8863   */\n      0x20\n        /* \"#utility.yul\":8850:8859   */\n      dup4\n        /* \"#utility.yul\":8846:8864   */\n      add\n        /* \"#utility.yul\":8837:8843   */\n      dup6\n        /* \"#utility.yul\":8770:8865   */\n      tag_90\n      jump\t// in\n    tag_225:\n        /* \"#utility.yul\":8875:8941   */\n      tag_226\n        /* \"#utility.yul\":8937:8939   */\n      0x40\n        /* \"#utility.yul\":8926:8935   */\n      dup4\n        /* \"#utility.yul\":8922:8940   */\n      add\n        /* \"#utility.yul\":8913:8919   */\n      dup5\n        /* \"#utility.yul\":8875:8941   */\n      tag_91\n      jump\t// in\n    tag_226:\n        /* \"#utility.yul\":8381:8948   */\n      swap5\n      swap4\n      pop\n      pop\n      pop\n      pop\n      jump\t// out\n        /* \"#utility.yul\":8954:9097   */\n    tag_92:\n        /* \"#utility.yul\":9011:9016   */\n      0x00\n        /* \"#utility.yul\":9042:9048   */\n      dup2\n        /* \"#utility.yul\":9036:9049   */\n      mload\n        /* \"#utility.yul\":9027:9049   */\n      swap1\n      pop\n        /* \"#utility.yul\":9058:9091   */\n      tag_228\n        /* \"#utility.yul\":9085:9090   */\n      dup2\n        /* \"#utility.yul\":9058:9091   */\n      tag_79\n      jump\t// in\n    tag_228:\n        /* \"#utility.yul\":8954:9097   */\n      swap3\n      swap2\n      pop\n      pop\n      jump\t// out\n        /* \"#utility.yul\":9103:9454   */\n    tag_35:\n        /* \"#utility.yul\":9173:9179   */\n      0x00\n        /* \"#utility.yul\":9222:9224   */\n      0x20\n        /* \"#utility.yul\":9210:9219   */\n      dup3\n        /* \"#utility.yul\":9201:9208   */\n      dup5\n        /* \"#utility.yul\":9197:9220   */\n      sub\n        /* \"#utility.yul\":9193:9225   */\n      slt\n        /* \"#utility.yul\":9190:9309   */\n      iszero\n      tag_230\n      jumpi\n        /* \"#utility.yul\":9228:9307   */\n      tag_231\n      tag_57\n      jump\t// in\n    tag_231:\n        /* \"#utility.yul\":9190:9309   */\n    tag_230:\n        /* \"#utility.yul\":9348:9349   */\n      0x00\n        /* \"#utility.yul\":9373:9437   */\n      tag_232\n        /* \"#utility.yul\":9429:9436   */\n      dup5\n        /* \"#utility.yul\":9420:9426   */\n      dup3\n        /* \"#utility.yul\":9409:9418   */\n      dup6\n        /* \"#utility.yul\":9405:9427   */\n      add\n        /* \"#utility.yul\":9373:9437   */\n      tag_92\n      jump\t// in\n    tag_232:\n        /* \"#utility.yul\":9363:9437   */\n      swap2\n      pop\n        /* \"#utility.yul\":9319:9447   */\n      pop\n        /* \"#utility.yul\":9103:9454   */\n      swap3\n      swap2\n      pop\n      pop\n      jump\t// out\n        /* \"#utility.yul\":9460:9670   */\n    tag_38:\n        /* \"#utility.yul\":9547:9551   */\n      0x00\n        /* \"#utility.yul\":9585:9587   */\n      0x20\n        /* \"#utility.yul\":9574:9583   */\n      dup3\n        /* \"#utility.yul\":9570:9588   */\n      add\n        /* \"#utility.yul\":9562:9588   */\n      swap1\n      pop\n        /* \"#utility.yul\":9598:9663   */\n      tag_234\n        /* \"#utility.yul\":9660:9661   */\n      0x00\n        /* \"#utility.yul\":9649:9658   */\n      dup4\n        /* \"#utility.yul\":9645:9662   */\n      add\n        /* \"#utility.yul\":9636:9642   */\n      dup5\n        /* \"#utility.yul\":9598:9663   */\n      tag_91\n      jump\t// in\n    tag_234:\n        /* \"#utility.yul\":9460:9670   */\n      swap3\n      swap2\n      pop\n      pop\n      jump\t// out\n        /* \"#utility.yul\":9676:9784   */\n    tag_93:\n        /* \"#utility.yul\":9753:9777   */\n      tag_236\n        /* \"#utility.yul\":9771:9776   */\n      dup2\n        /* \"#utility.yul\":9753:9777   */\n      tag_77\n      jump\t// in\n    tag_236:\n        /* \"#utility.yul\":9748:9751   */\n      dup3\n        /* \"#utility.yul\":9741:9778   */\n      mstore\n        /* \"#utility.yul\":9676:9784   */\n      pop\n      pop\n      jump\t// out\n        /* \"#utility.yul\":9790:9898   */\n    tag_94:\n        /* \"#utility.yul\":9867:9891   */\n      tag_238\n        /* \"#utility.yul\":9885:9890   */\n      dup2\n        /* \"#utility.yul\":9867:9891   */\n      tag_70\n      jump\t// in\n    tag_238:\n        /* \"#utility.yul\":9862:9865   */\n      dup3\n        /* \"#utility.yul\":9855:9892   */\n      mstore\n        /* \"#utility.yul\":9790:9898   */\n      pop\n      pop\n      jump\t// out\n        /* \"#utility.yul\":9904:10005   */\n    tag_95:\n        /* \"#utility.yul\":9940:9947   */\n      0x00\n        /* \"#utility.yul\":9980:9998   */\n      0xffffffffffffffff\n        /* \"#utility.yul\":9973:9978   */\n      dup3\n        /* \"#utility.yul\":9969:9999   */\n      and\n        /* \"#utility.yul\":9958:9999   */\n      swap1\n      pop\n        /* \"#utility.yul\":9904:10005   */\n      swap2\n      swap1\n      pop\n      jump\t// out\n        /* \"#utility.yul\":10011:10116   */\n    tag_96:\n        /* \"#utility.yul\":10086:10109   */\n      tag_241\n        /* \"#utility.yul\":10103:10108   */\n      dup2\n        /* \"#utility.yul\":10086:10109   */\n      tag_95\n      jump\t// in\n    tag_241:\n        /* \"#utility.yul\":10081:10084   */\n      dup3\n        /* \"#utility.yul\":10074:10110   */\n      mstore\n        /* \"#utility.yul\":10011:10116   */\n      pop\n      pop\n      jump\t// out\n        /* \"#utility.yul\":10122:10221   */\n    tag_97:\n        /* \"#utility.yul\":10193:10214   */\n      tag_243\n        /* \"#utility.yul\":10208:10213   */\n      dup2\n        /* \"#utility.yul\":10193:10214   */\n      tag_74\n      jump\t// in\n    tag_243:\n        /* \"#utility.yul\":10188:10191   */\n      dup3\n        /* \"#utility.yul\":10181:10215   */\n      mstore\n        /* \"#utility.yul\":10122:10221   */\n      pop\n      pop\n      jump\t// out\n        /* \"#utility.yul\":10227:10325   */\n    tag_98:\n        /* \"#utility.yul\":10278:10284   */\n      0x00\n        /* \"#utility.yul\":10312:10317   */\n      dup2\n        /* \"#utility.yul\":10306:10318   */\n      mload\n        /* \"#utility.yul\":10296:10318   */\n      swap1\n      pop\n        /* \"#utility.yul\":10227:10325   */\n      swap2\n      swap1\n      pop\n      jump\t// out\n        /* \"#utility.yul\":10331:10489   */\n    tag_99:\n        /* \"#utility.yul\":10404:10415   */\n      0x00\n        /* \"#utility.yul\":10438:10444   */\n      dup3\n        /* \"#utility.yul\":10433:10436   */\n      dup3\n        /* \"#utility.yul\":10426:10445   */\n      mstore\n        /* \"#utility.yul\":10478:10482   */\n      0x20\n        /* \"#utility.yul\":10473:10476   */\n      dup3\n        /* \"#utility.yul\":10469:10483   */\n      add\n        /* \"#utility.yul\":10454:10483   */\n      swap1\n      pop\n        /* \"#utility.yul\":10331:10489   */\n      swap3\n      swap2\n      pop\n      pop\n      jump\t// out\n        /* \"#utility.yul\":10495:10848   */\n    tag_100:\n        /* \"#utility.yul\":10571:10574   */\n      0x00\n        /* \"#utility.yul\":10599:10637   */\n      tag_247\n        /* \"#utility.yul\":10631:10636   */\n      dup3\n        /* \"#utility.yul\":10599:10637   */\n      tag_98\n      jump\t// in\n    tag_247:\n        /* \"#utility.yul\":10653:10713   */\n      tag_248\n        /* \"#utility.yul\":10706:10712   */\n      dup2\n        /* \"#utility.yul\":10701:10704   */\n      dup6\n        /* \"#utility.yul\":10653:10713   */\n      tag_99\n      jump\t// in\n    tag_248:\n        /* \"#utility.yul\":10646:10713   */\n      swap4\n      pop\n        /* \"#utility.yul\":10722:10787   */\n      tag_249\n        /* \"#utility.yul\":10780:10786   */\n      dup2\n        /* \"#utility.yul\":10775:10778   */\n      dup6\n        /* \"#utility.yul\":10768:10772   */\n      0x20\n        /* \"#utility.yul\":10761:10766   */\n      dup7\n        /* \"#utility.yul\":10757:10773   */\n      add\n        /* \"#utility.yul\":10722:10787   */\n      tag_83\n      jump\t// in\n    tag_249:\n        /* \"#utility.yul\":10812:10841   */\n      tag_250\n        /* \"#utility.yul\":10834:10840   */\n      dup2\n        /* \"#utility.yul\":10812:10841   */\n      tag_61\n      jump\t// in\n    tag_250:\n        /* \"#utility.yul\":10807:10810   */\n      dup5\n        /* \"#utility.yul\":10803:10842   */\n      add\n        /* \"#utility.yul\":10796:10842   */\n      swap2\n      pop\n        /* \"#utility.yul\":10575:10848   */\n      pop\n        /* \"#utility.yul\":10495:10848   */\n      swap3\n      swap2\n      pop\n      pop\n      jump\t// out\n        /* \"#utility.yul\":10854:10931   */\n    tag_101:\n        /* \"#utility.yul\":10891:10898   */\n      0x00\n        /* \"#utility.yul\":10920:10925   */\n      dup2\n        /* \"#utility.yul\":10909:10925   */\n      swap1\n      pop\n        /* \"#utility.yul\":10854:10931   */\n      swap2\n      swap1\n      pop\n      jump\t// out\n        /* \"#utility.yul\":10937:11045   */\n    tag_102:\n        /* \"#utility.yul\":11014:11038   */\n      tag_253\n        /* \"#utility.yul\":11032:11037   */\n      dup2\n        /* \"#utility.yul\":11014:11038   */\n      tag_101\n      jump\t// in\n    tag_253:\n        /* \"#utility.yul\":11009:11012   */\n      dup3\n        /* \"#utility.yul\":11002:11039   */\n      mstore\n        /* \"#utility.yul\":10937:11045   */\n      pop\n      pop\n      jump\t// out\n        /* \"#utility.yul\":11121:12452   */\n    tag_103:\n        /* \"#utility.yul\":11256:11259   */\n      0x00\n        /* \"#utility.yul\":11292:11296   */\n      0xc0\n        /* \"#utility.yul\":11287:11290   */\n      dup4\n        /* \"#utility.yul\":11283:11297   */\n      add\n        /* \"#utility.yul\":11384:11388   */\n      0x00\n        /* \"#utility.yul\":11377:11382   */\n      dup4\n        /* \"#utility.yul\":11373:11389   */\n      add\n        /* \"#utility.yul\":11367:11390   */\n      mload\n        /* \"#utility.yul\":11403:11466   */\n      tag_255\n        /* \"#utility.yul\":11460:11464   */\n      0x00\n        /* \"#utility.yul\":11455:11458   */\n      dup7\n        /* \"#utility.yul\":11451:11465   */\n      add\n        /* \"#utility.yul\":11437:11449   */\n      dup3\n        /* \"#utility.yul\":11403:11466   */\n      tag_94\n      jump\t// in\n    tag_255:\n        /* \"#utility.yul\":11307:11476   */\n      pop\n        /* \"#utility.yul\":11568:11572   */\n      0x20\n        /* \"#utility.yul\":11561:11566   */\n      dup4\n        /* \"#utility.yul\":11557:11573   */\n      add\n        /* \"#utility.yul\":11551:11574   */\n      mload\n        /* \"#utility.yul\":11587:11648   */\n      tag_256\n        /* \"#utility.yul\":11642:11646   */\n      0x20\n        /* \"#utility.yul\":11637:11640   */\n      dup7\n        /* \"#utility.yul\":11633:11647   */\n      add\n        /* \"#utility.yul\":11619:11631   */\n      dup3\n        /* \"#utility.yul\":11587:11648   */\n      tag_96\n      jump\t// in\n    tag_256:\n        /* \"#utility.yul\":11486:11658   */\n      pop\n        /* \"#utility.yul\":11745:11749   */\n      0x40\n        /* \"#utility.yul\":11738:11743   */\n      dup4\n        /* \"#utility.yul\":11734:11750   */\n      add\n        /* \"#utility.yul\":11728:11751   */\n      mload\n        /* \"#utility.yul\":11764:11821   */\n      tag_257\n        /* \"#utility.yul\":11815:11819   */\n      0x40\n        /* \"#utility.yul\":11810:11813   */\n      dup7\n        /* \"#utility.yul\":11806:11820   */\n      add\n        /* \"#utility.yul\":11792:11804   */\n      dup3\n        /* \"#utility.yul\":11764:11821   */\n      tag_97\n      jump\t// in\n    tag_257:\n        /* \"#utility.yul\":11668:11831   */\n      pop\n        /* \"#utility.yul\":11915:11919   */\n      0x60\n        /* \"#utility.yul\":11908:11913   */\n      dup4\n        /* \"#utility.yul\":11904:11920   */\n      add\n        /* \"#utility.yul\":11898:11921   */\n      mload\n        /* \"#utility.yul\":11934:11997   */\n      tag_258\n        /* \"#utility.yul\":11991:11995   */\n      0x60\n        /* \"#utility.yul\":11986:11989   */\n      dup7\n        /* \"#utility.yul\":11982:11996   */\n      add\n        /* \"#utility.yul\":11968:11980   */\n      dup3\n        /* \"#utility.yul\":11934:11997   */\n      tag_93\n      jump\t// in\n    tag_258:\n        /* \"#utility.yul\":11841:12007   */\n      pop\n        /* \"#utility.yul\":12089:12093   */\n      0x80\n        /* \"#utility.yul\":12082:12087   */\n      dup4\n        /* \"#utility.yul\":12078:12094   */\n      add\n        /* \"#utility.yul\":12072:12095   */\n      mload\n        /* \"#utility.yul\":12142:12145   */\n      dup5\n        /* \"#utility.yul\":12136:12140   */\n      dup3\n        /* \"#utility.yul\":12132:12146   */\n      sub\n        /* \"#utility.yul\":12125:12129   */\n      0x80\n        /* \"#utility.yul\":12120:12123   */\n      dup7\n        /* \"#utility.yul\":12116:12130   */\n      add\n        /* \"#utility.yul\":12109:12147   */\n      mstore\n        /* \"#utility.yul\":12168:12239   */\n      tag_259\n        /* \"#utility.yul\":12234:12238   */\n      dup3\n        /* \"#utility.yul\":12220:12232   */\n      dup3\n        /* \"#utility.yul\":12168:12239   */\n      tag_100\n      jump\t// in\n    tag_259:\n        /* \"#utility.yul\":12160:12239   */\n      swap2\n      pop\n        /* \"#utility.yul\":12017:12250   */\n      pop\n        /* \"#utility.yul\":12333:12337   */\n      0xa0\n        /* \"#utility.yul\":12326:12331   */\n      dup4\n        /* \"#utility.yul\":12322:12338   */\n      add\n        /* \"#utility.yul\":12316:12339   */\n      mload\n        /* \"#utility.yul\":12352:12415   */\n      tag_260\n        /* \"#utility.yul\":12409:12413   */\n      0xa0\n        /* \"#utility.yul\":12404:12407   */\n      dup7\n        /* \"#utility.yul\":12400:12414   */\n      add\n        /* \"#utility.yul\":12386:12398   */\n      dup3\n        /* \"#utility.yul\":12352:12415   */\n      tag_102\n      jump\t// in\n    tag_260:\n        /* \"#utility.yul\":12260:12425   */\n      pop\n        /* \"#utility.yul\":12442:12446   */\n      dup1\n        /* \"#utility.yul\":12435:12446   */\n      swap2\n      pop\n        /* \"#utility.yul\":11261:12452   */\n      pop\n        /* \"#utility.yul\":11121:12452   */\n      swap3\n      swap2\n      pop\n      pop\n      jump\t// out\n        /* \"#utility.yul\":12520:13202   */\n    tag_104:\n        /* \"#utility.yul\":12657:12660   */\n      0x00\n        /* \"#utility.yul\":12693:12697   */\n      0x40\n        /* \"#utility.yul\":12688:12691   */\n      dup4\n        /* \"#utility.yul\":12684:12698   */\n      add\n        /* \"#utility.yul\":12782:12786   */\n      0x00\n        /* \"#utility.yul\":12775:12780   */\n      dup4\n        /* \"#utility.yul\":12771:12787   */\n      add\n        /* \"#utility.yul\":12765:12788   */\n      mload\n        /* \"#utility.yul\":12801:12864   */\n      tag_262\n        /* \"#utility.yul\":12858:12862   */\n      0x00\n        /* \"#utility.yul\":12853:12856   */\n      dup7\n        /* \"#utility.yul\":12849:12863   */\n      add\n        /* \"#utility.yul\":12835:12847   */\n      dup3\n        /* \"#utility.yul\":12801:12864   */\n      tag_93\n      jump\t// in\n    tag_262:\n        /* \"#utility.yul\":12708:12874   */\n      pop\n        /* \"#utility.yul\":12956:12960   */\n      0x20\n        /* \"#utility.yul\":12949:12954   */\n      dup4\n        /* \"#utility.yul\":12945:12961   */\n      add\n        /* \"#utility.yul\":12939:12962   */\n      mload\n        /* \"#utility.yul\":13009:13012   */\n      dup5\n        /* \"#utility.yul\":13003:13007   */\n      dup3\n        /* \"#utility.yul\":12999:13013   */\n      sub\n        /* \"#utility.yul\":12992:12996   */\n      0x20\n        /* \"#utility.yul\":12987:12990   */\n      dup7\n        /* \"#utility.yul\":12983:12997   */\n      add\n        /* \"#utility.yul\":12976:13014   */\n      mstore\n        /* \"#utility.yul\":13035:13164   */\n      tag_263\n        /* \"#utility.yul\":13159:13163   */\n      dup3\n        /* \"#utility.yul\":13145:13157   */\n      dup3\n        /* \"#utility.yul\":13035:13164   */\n      tag_103\n      jump\t// in\n    tag_263:\n        /* \"#utility.yul\":13027:13164   */\n      swap2\n      pop\n        /* \"#utility.yul\":12884:13175   */\n      pop\n        /* \"#utility.yul\":13192:13196   */\n      dup1\n        /* \"#utility.yul\":13185:13196   */\n      swap2\n      pop\n        /* \"#utility.yul\":12662:13202   */\n      pop\n        /* \"#utility.yul\":12520:13202   */\n      swap3\n      swap2\n      pop\n      pop\n      jump\t// out\n        /* \"#utility.yul\":13208:13617   */\n    tag_40:\n        /* \"#utility.yul\":13369:13373   */\n      0x00\n        /* \"#utility.yul\":13407:13409   */\n      0x20\n        /* \"#utility.yul\":13396:13405   */\n      dup3\n        /* \"#utility.yul\":13392:13410   */\n      add\n        /* \"#utility.yul\":13384:13410   */\n      swap1\n      pop\n        /* \"#utility.yul\":13456:13465   */\n      dup2\n        /* \"#utility.yul\":13450:13454   */\n      dup2\n        /* \"#utility.yul\":13446:13466   */\n      sub\n        /* \"#utility.yul\":13442:13443   */\n      0x00\n        /* \"#utility.yul\":13431:13440   */\n      dup4\n        /* \"#utility.yul\":13427:13444   */\n      add\n        /* \"#utility.yul\":13420:13467   */\n      mstore\n        /* \"#utility.yul\":13484:13610   */\n      tag_265\n        /* \"#utility.yul\":13605:13609   */\n      dup2\n        /* \"#utility.yul\":13596:13602   */\n      dup5\n        /* \"#utility.yul\":13484:13610   */\n      tag_104\n      jump\t// in\n    tag_265:\n        /* \"#utility.yul\":13476:13610   */\n      swap1\n      pop\n        /* \"#utility.yul\":13208:13617   */\n      swap3\n      swap2\n      pop\n      pop\n      jump\t// out\n        /* \"#utility.yul\":13623:13740   */\n    tag_105:\n        /* \"#utility.yul\":13732:13733   */\n      0x00\n        /* \"#utility.yul\":13729:13730   */\n      dup1\n        /* \"#utility.yul\":13722:13734   */\n      revert\n        /* \"#utility.yul\":13746:13863   */\n    tag_106:\n        /* \"#utility.yul\":13855:13856   */\n      0x00\n        /* \"#utility.yul\":13852:13853   */\n      dup1\n        /* \"#utility.yul\":13845:13857   */\n      revert\n        /* \"#utility.yul\":13869:14058   */\n    tag_107:\n        /* \"#utility.yul\":13949:13954   */\n      0x00\n        /* \"#utility.yul\":13980:13986   */\n      dup2\n        /* \"#utility.yul\":13974:13987   */\n      mload\n        /* \"#utility.yul\":13965:13987   */\n      swap1\n      pop\n        /* \"#utility.yul\":13996:14052   */\n      tag_269\n        /* \"#utility.yul\":14046:14051   */\n      dup2\n        /* \"#utility.yul\":13996:14052   */\n      tag_72\n      jump\t// in\n    tag_269:\n        /* \"#utility.yul\":13869:14058   */\n      swap3\n      swap2\n      pop\n      pop\n      jump\t// out\n        /* \"#utility.yul\":14064:14201   */\n    tag_108:\n        /* \"#utility.yul\":14118:14123   */\n      0x00\n        /* \"#utility.yul\":14149:14155   */\n      dup2\n        /* \"#utility.yul\":14143:14156   */\n      mload\n        /* \"#utility.yul\":14134:14156   */\n      swap1\n      pop\n        /* \"#utility.yul\":14165:14195   */\n      tag_271\n        /* \"#utility.yul\":14189:14194   */\n      dup2\n        /* \"#utility.yul\":14165:14195   */\n      tag_75\n      jump\t// in\n    tag_271:\n        /* \"#utility.yul\":14064:14201   */\n      swap3\n      swap2\n      pop\n      pop\n      jump\t// out\n        /* \"#utility.yul\":14207:14641   */\n    tag_109:\n        /* \"#utility.yul\":14296:14301   */\n      0x00\n        /* \"#utility.yul\":14321:14387   */\n      tag_273\n        /* \"#utility.yul\":14337:14386   */\n      tag_274\n        /* \"#utility.yul\":14379:14385   */\n      dup5\n        /* \"#utility.yul\":14337:14386   */\n      tag_65\n      jump\t// in\n    tag_274:\n        /* \"#utility.yul\":14321:14387   */\n      tag_64\n      jump\t// in\n    tag_273:\n        /* \"#utility.yul\":14312:14387   */\n      swap1\n      pop\n        /* \"#utility.yul\":14410:14416   */\n      dup3\n        /* \"#utility.yul\":14403:14408   */\n      dup2\n        /* \"#utility.yul\":14396:14417   */\n      mstore\n        /* \"#utility.yul\":14448:14452   */\n      0x20\n        /* \"#utility.yul\":14441:14446   */\n      dup2\n        /* \"#utility.yul\":14437:14453   */\n      add\n        /* \"#utility.yul\":14486:14489   */\n      dup5\n        /* \"#utility.yul\":14477:14483   */\n      dup5\n        /* \"#utility.yul\":14472:14475   */\n      dup5\n        /* \"#utility.yul\":14468:14484   */\n      add\n        /* \"#utility.yul\":14465:14490   */\n      gt\n        /* \"#utility.yul\":14462:14574   */\n      iszero\n      tag_275\n      jumpi\n        /* \"#utility.yul\":14493:14572   */\n      tag_276\n      tag_60\n      jump\t// in\n    tag_276:\n        /* \"#utility.yul\":14462:14574   */\n    tag_275:\n        /* \"#utility.yul\":14583:14635   */\n      tag_277\n        /* \"#utility.yul\":14628:14634   */\n      dup5\n        /* \"#utility.yul\":14623:14626   */\n      dup3\n        /* \"#utility.yul\":14618:14621   */\n      dup6\n        /* \"#utility.yul\":14583:14635   */\n      tag_83\n      jump\t// in\n    tag_277:\n        /* \"#utility.yul\":14302:14641   */\n      pop\n        /* \"#utility.yul\":14207:14641   */\n      swap4\n      swap3\n      pop\n      pop\n      pop\n      jump\t// out\n        /* \"#utility.yul\":14661:15016   */\n    tag_110:\n        /* \"#utility.yul\":14728:14733   */\n      0x00\n        /* \"#utility.yul\":14777:14780   */\n      dup3\n        /* \"#utility.yul\":14770:14774   */\n      0x1f\n        /* \"#utility.yul\":14762:14768   */\n      dup4\n        /* \"#utility.yul\":14758:14775   */\n      add\n        /* \"#utility.yul\":14754:14781   */\n      slt\n        /* \"#utility.yul\":14744:14866   */\n      tag_279\n      jumpi\n        /* \"#utility.yul\":14785:14864   */\n      tag_280\n      tag_59\n      jump\t// in\n    tag_280:\n        /* \"#utility.yul\":14744:14866   */\n    tag_279:\n        /* \"#utility.yul\":14895:14901   */\n      dup2\n        /* \"#utility.yul\":14889:14902   */\n      mload\n        /* \"#utility.yul\":14920:15010   */\n      tag_281\n        /* \"#utility.yul\":15006:15009   */\n      dup5\n        /* \"#utility.yul\":14998:15004   */\n      dup3\n        /* \"#utility.yul\":14991:14995   */\n      0x20\n        /* \"#utility.yul\":14983:14989   */\n      dup7\n        /* \"#utility.yul\":14979:14996   */\n      add\n        /* \"#utility.yul\":14920:15010   */\n      tag_109\n      jump\t// in\n    tag_281:\n        /* \"#utility.yul\":14911:15010   */\n      swap2\n      pop\n        /* \"#utility.yul\":14734:15016   */\n      pop\n        /* \"#utility.yul\":14661:15016   */\n      swap3\n      swap2\n      pop\n      pop\n      jump\t// out\n        /* \"#utility.yul\":15049:16197   */\n    tag_111:\n        /* \"#utility.yul\":15138:15143   */\n      0x00\n        /* \"#utility.yul\":15182:15186   */\n      0x80\n        /* \"#utility.yul\":15170:15179   */\n      dup3\n        /* \"#utility.yul\":15165:15168   */\n      dup5\n        /* \"#utility.yul\":15161:15180   */\n      sub\n        /* \"#utility.yul\":15157:15187   */\n      slt\n        /* \"#utility.yul\":15154:15271   */\n      iszero\n      tag_283\n      jumpi\n        /* \"#utility.yul\":15190:15269   */\n      tag_284\n      tag_105\n      jump\t// in\n    tag_284:\n        /* \"#utility.yul\":15154:15271   */\n    tag_283:\n        /* \"#utility.yul\":15289:15310   */\n      tag_285\n        /* \"#utility.yul\":15305:15309   */\n      0x80\n        /* \"#utility.yul\":15289:15310   */\n      tag_64\n      jump\t// in\n    tag_285:\n        /* \"#utility.yul\":15280:15310   */\n      swap1\n      pop\n        /* \"#utility.yul\":15368:15369   */\n      0x00\n        /* \"#utility.yul\":15408:15468   */\n      tag_286\n        /* \"#utility.yul\":15464:15467   */\n      dup5\n        /* \"#utility.yul\":15455:15461   */\n      dup3\n        /* \"#utility.yul\":15444:15453   */\n      dup6\n        /* \"#utility.yul\":15440:15462   */\n      add\n        /* \"#utility.yul\":15408:15468   */\n      tag_92\n      jump\t// in\n    tag_286:\n        /* \"#utility.yul\":15401:15405   */\n      0x00\n        /* \"#utility.yul\":15394:15399   */\n      dup4\n        /* \"#utility.yul\":15390:15406   */\n      add\n        /* \"#utility.yul\":15383:15469   */\n      mstore\n        /* \"#utility.yul\":15320:15480   */\n      pop\n        /* \"#utility.yul\":15543:15545   */\n      0x20\n        /* \"#utility.yul\":15584:15667   */\n      tag_287\n        /* \"#utility.yul\":15663:15666   */\n      dup5\n        /* \"#utility.yul\":15654:15660   */\n      dup3\n        /* \"#utility.yul\":15643:15652   */\n      dup6\n        /* \"#utility.yul\":15639:15661   */\n      add\n        /* \"#utility.yul\":15584:15667   */\n      tag_107\n      jump\t// in\n    tag_287:\n        /* \"#utility.yul\":15577:15581   */\n      0x20\n        /* \"#utility.yul\":15570:15575   */\n      dup4\n        /* \"#utility.yul\":15566:15582   */\n      add\n        /* \"#utility.yul\":15559:15668   */\n      mstore\n        /* \"#utility.yul\":15490:15679   */\n      pop\n        /* \"#utility.yul\":15743:15745   */\n      0x40\n        /* \"#utility.yul\":15784:15841   */\n      tag_288\n        /* \"#utility.yul\":15837:15840   */\n      dup5\n        /* \"#utility.yul\":15828:15834   */\n      dup3\n        /* \"#utility.yul\":15817:15826   */\n      dup6\n        /* \"#utility.yul\":15813:15835   */\n      add\n        /* \"#utility.yul\":15784:15841   */\n      tag_108\n      jump\t// in\n    tag_288:\n        /* \"#utility.yul\":15777:15781   */\n      0x40\n        /* \"#utility.yul\":15770:15775   */\n      dup4\n        /* \"#utility.yul\":15766:15782   */\n      add\n        /* \"#utility.yul\":15759:15842   */\n      mstore\n        /* \"#utility.yul\":15689:15853   */\n      pop\n        /* \"#utility.yul\":15935:15937   */\n      0x60\n        /* \"#utility.yul\":15924:15933   */\n      dup3\n        /* \"#utility.yul\":15920:15938   */\n      add\n        /* \"#utility.yul\":15914:15939   */\n      mload\n        /* \"#utility.yul\":15966:15984   */\n      0xffffffffffffffff\n        /* \"#utility.yul\":15958:15964   */\n      dup2\n        /* \"#utility.yul\":15955:15985   */\n      gt\n        /* \"#utility.yul\":15952:16069   */\n      iszero\n      tag_289\n      jumpi\n        /* \"#utility.yul\":15988:16067   */\n      tag_290\n      tag_106\n      jump\t// in\n    tag_290:\n        /* \"#utility.yul\":15952:16069   */\n    tag_289:\n        /* \"#utility.yul\":16108:16178   */\n      tag_291\n        /* \"#utility.yul\":16174:16177   */\n      dup5\n        /* \"#utility.yul\":16165:16171   */\n      dup3\n        /* \"#utility.yul\":16154:16163   */\n      dup6\n        /* \"#utility.yul\":16150:16172   */\n      add\n        /* \"#utility.yul\":16108:16178   */\n      tag_110\n      jump\t// in\n    tag_291:\n        /* \"#utility.yul\":16101:16105   */\n      0x60\n        /* \"#utility.yul\":16094:16099   */\n      dup4\n        /* \"#utility.yul\":16090:16106   */\n      add\n        /* \"#utility.yul\":16083:16179   */\n      mstore\n        /* \"#utility.yul\":15863:16190   */\n      pop\n        /* \"#utility.yul\":15049:16197   */\n      swap3\n      swap2\n      pop\n      pop\n      jump\t// out\n        /* \"#utility.yul\":16203:16765   */\n    tag_49:\n        /* \"#utility.yul\":16302:16308   */\n      0x00\n        /* \"#utility.yul\":16351:16353   */\n      0x20\n        /* \"#utility.yul\":16339:16348   */\n      dup3\n        /* \"#utility.yul\":16330:16337   */\n      dup5\n        /* \"#utility.yul\":16326:16349   */\n      sub\n        /* \"#utility.yul\":16322:16354   */\n      slt\n        /* \"#utility.yul\":16319:16438   */\n      iszero\n      tag_293\n      jumpi\n        /* \"#utility.yul\":16357:16436   */\n      tag_294\n      tag_57\n      jump\t// in\n    tag_294:\n        /* \"#utility.yul\":16319:16438   */\n    tag_293:\n        /* \"#utility.yul\":16498:16499   */\n      0x00\n        /* \"#utility.yul\":16487:16496   */\n      dup3\n        /* \"#utility.yul\":16483:16500   */\n      add\n        /* \"#utility.yul\":16477:16501   */\n      mload\n        /* \"#utility.yul\":16528:16546   */\n      0xffffffffffffffff\n        /* \"#utility.yul\":16520:16526   */\n      dup2\n        /* \"#utility.yul\":16517:16547   */\n      gt\n        /* \"#utility.yul\":16514:16631   */\n      iszero\n      tag_295\n      jumpi\n        /* \"#utility.yul\":16550:16629   */\n      tag_296\n      tag_58\n      jump\t// in\n    tag_296:\n        /* \"#utility.yul\":16514:16631   */\n    tag_295:\n        /* \"#utility.yul\":16655:16748   */\n      tag_297\n        /* \"#utility.yul\":16740:16747   */\n      dup5\n        /* \"#utility.yul\":16731:16737   */\n      dup3\n        /* \"#utility.yul\":16720:16729   */\n      dup6\n        /* \"#utility.yul\":16716:16738   */\n      add\n        /* \"#utility.yul\":16655:16748   */\n      tag_111\n      jump\t// in\n    tag_297:\n        /* \"#utility.yul\":16645:16748   */\n      swap2\n      pop\n        /* \"#utility.yul\":16448:16758   */\n      pop\n        /* \"#utility.yul\":16203:16765   */\n      swap3\n      swap2\n      pop\n      pop\n      jump\t// out\n        /* \"#utility.yul\":16771:16891   */\n    tag_112:\n        /* \"#utility.yul\":16843:16866   */\n      tag_299\n        /* \"#utility.yul\":16860:16865   */\n      dup2\n        /* \"#utility.yul\":16843:16866   */\n      tag_95\n      jump\t// in\n    tag_299:\n        /* \"#utility.yul\":16836:16841   */\n      dup2\n        /* \"#utility.yul\":16833:16867   */\n      eq\n        /* \"#utility.yul\":16823:16885   */\n      tag_300\n      jumpi\n        /* \"#utility.yul\":16881:16882   */\n      0x00\n        /* \"#utility.yul\":16878:16879   */\n      dup1\n        /* \"#utility.yul\":16871:16883   */\n      revert\n        /* \"#utility.yul\":16823:16885   */\n    tag_300:\n        /* \"#utility.yul\":16771:16891   */\n      pop\n      jump\t// out\n        /* \"#utility.yul\":16897:17038   */\n    tag_113:\n        /* \"#utility.yul\":16953:16958   */\n      0x00\n        /* \"#utility.yul\":16984:16990   */\n      dup2\n        /* \"#utility.yul\":16978:16991   */\n      mload\n        /* \"#utility.yul\":16969:16991   */\n      swap1\n      pop\n        /* \"#utility.yul\":17000:17032   */\n      tag_302\n        /* \"#utility.yul\":17026:17031   */\n      dup2\n        /* \"#utility.yul\":17000:17032   */\n      tag_112\n      jump\t// in\n    tag_302:\n        /* \"#utility.yul\":16897:17038   */\n      swap3\n      swap2\n      pop\n      pop\n      jump\t// out\n        /* \"#utility.yul\":17044:17166   */\n    tag_114:\n        /* \"#utility.yul\":17117:17141   */\n      tag_304\n        /* \"#utility.yul\":17135:17140   */\n      dup2\n        /* \"#utility.yul\":17117:17141   */\n      tag_70\n      jump\t// in\n    tag_304:\n        /* \"#utility.yul\":17110:17115   */\n      dup2\n        /* \"#utility.yul\":17107:17142   */\n      eq\n        /* \"#utility.yul\":17097:17160   */\n      tag_305\n      jumpi\n        /* \"#utility.yul\":17156:17157   */\n      0x00\n        /* \"#utility.yul\":17153:17154   */\n      dup1\n        /* \"#utility.yul\":17146:17158   */\n      revert\n        /* \"#utility.yul\":17097:17160   */\n    tag_305:\n        /* \"#utility.yul\":17044:17166   */\n      pop\n      jump\t// out\n        /* \"#utility.yul\":17172:17315   */\n    tag_115:\n        /* \"#utility.yul\":17229:17234   */\n      0x00\n        /* \"#utility.yul\":17260:17266   */\n      dup2\n        /* \"#utility.yul\":17254:17267   */\n      mload\n        /* \"#utility.yul\":17245:17267   */\n      swap1\n      pop\n        /* \"#utility.yul\":17276:17309   */\n      tag_307\n        /* \"#utility.yul\":17303:17308   */\n      dup2\n        /* \"#utility.yul\":17276:17309   */\n      tag_114\n      jump\t// in\n    tag_307:\n        /* \"#utility.yul\":17172:17315   */\n      swap3\n      swap2\n      pop\n      pop\n      jump\t// out\n        /* \"#utility.yul\":17321:17628   */\n    tag_116:\n        /* \"#utility.yul\":17382:17386   */\n      0x00\n        /* \"#utility.yul\":17472:17490   */\n      0xffffffffffffffff\n        /* \"#utility.yul\":17464:17470   */\n      dup3\n        /* \"#utility.yul\":17461:17491   */\n      gt\n        /* \"#utility.yul\":17458:17514   */\n      iszero\n      tag_309\n      jumpi\n        /* \"#utility.yul\":17494:17512   */\n      tag_310\n      tag_62\n      jump\t// in\n    tag_310:\n        /* \"#utility.yul\":17458:17514   */\n    tag_309:\n        /* \"#utility.yul\":17532:17561   */\n      tag_311\n        /* \"#utility.yul\":17554:17560   */\n      dup3\n        /* \"#utility.yul\":17532:17561   */\n      tag_61\n      jump\t// in\n    tag_311:\n        /* \"#utility.yul\":17524:17561   */\n      swap1\n      pop\n        /* \"#utility.yul\":17616:17620   */\n      0x20\n        /* \"#utility.yul\":17610:17614   */\n      dup2\n        /* \"#utility.yul\":17606:17621   */\n      add\n        /* \"#utility.yul\":17598:17621   */\n      swap1\n      pop\n        /* \"#utility.yul\":17321:17628   */\n      swap2\n      swap1\n      pop\n      jump\t// out\n        /* \"#utility.yul\":17634:18066   */\n    tag_117:\n        /* \"#utility.yul\":17722:17727   */\n      0x00\n        /* \"#utility.yul\":17747:17812   */\n      tag_313\n        /* \"#utility.yul\":17763:17811   */\n      tag_314\n        /* \"#utility.yul\":17804:17810   */\n      dup5\n        /* \"#utility.yul\":17763:17811   */\n      tag_116\n      jump\t// in\n    tag_314:\n        /* \"#utility.yul\":17747:17812   */\n      tag_64\n      jump\t// in\n    tag_313:\n        /* \"#utility.yul\":17738:17812   */\n      swap1\n      pop\n        /* \"#utility.yul\":17835:17841   */\n      dup3\n        /* \"#utility.yul\":17828:17833   */\n      dup2\n        /* \"#utility.yul\":17821:17842   */\n      mstore\n        /* \"#utility.yul\":17873:17877   */\n      0x20\n        /* \"#utility.yul\":17866:17871   */\n      dup2\n        /* \"#utility.yul\":17862:17878   */\n      add\n        /* \"#utility.yul\":17911:17914   */\n      dup5\n        /* \"#utility.yul\":17902:17908   */\n      dup5\n        /* \"#utility.yul\":17897:17900   */\n      dup5\n        /* \"#utility.yul\":17893:17909   */\n      add\n        /* \"#utility.yul\":17890:17915   */\n      gt\n        /* \"#utility.yul\":17887:17999   */\n      iszero\n      tag_315\n      jumpi\n        /* \"#utility.yul\":17918:17997   */\n      tag_316\n      tag_60\n      jump\t// in\n    tag_316:\n        /* \"#utility.yul\":17887:17999   */\n    tag_315:\n        /* \"#utility.yul\":18008:18060   */\n      tag_317\n        /* \"#utility.yul\":18053:18059   */\n      dup5\n        /* \"#utility.yul\":18048:18051   */\n      dup3\n        /* \"#utility.yul\":18043:18046   */\n      dup6\n        /* \"#utility.yul\":18008:18060   */\n      tag_83\n      jump\t// in\n    tag_317:\n        /* \"#utility.yul\":17728:18066   */\n      pop\n        /* \"#utility.yul\":17634:18066   */\n      swap4\n      swap3\n      pop\n      pop\n      pop\n      jump\t// out\n        /* \"#utility.yul\":18085:18438   */\n    tag_118:\n        /* \"#utility.yul\":18151:18156   */\n      0x00\n        /* \"#utility.yul\":18200:18203   */\n      dup3\n        /* \"#utility.yul\":18193:18197   */\n      0x1f\n        /* \"#utility.yul\":18185:18191   */\n      dup4\n        /* \"#utility.yul\":18181:18198   */\n      add\n        /* \"#utility.yul\":18177:18204   */\n      slt\n        /* \"#utility.yul\":18167:18289   */\n      tag_319\n      jumpi\n        /* \"#utility.yul\":18208:18287   */\n      tag_320\n      tag_59\n      jump\t// in\n    tag_320:\n        /* \"#utility.yul\":18167:18289   */\n    tag_319:\n        /* \"#utility.yul\":18318:18324   */\n      dup2\n        /* \"#utility.yul\":18312:18325   */\n      mload\n        /* \"#utility.yul\":18343:18432   */\n      tag_321\n        /* \"#utility.yul\":18428:18431   */\n      dup5\n        /* \"#utility.yul\":18420:18426   */\n      dup3\n        /* \"#utility.yul\":18413:18417   */\n      0x20\n        /* \"#utility.yul\":18405:18411   */\n      dup7\n        /* \"#utility.yul\":18401:18418   */\n      add\n        /* \"#utility.yul\":18343:18432   */\n      tag_117\n      jump\t// in\n    tag_321:\n        /* \"#utility.yul\":18334:18432   */\n      swap2\n      pop\n        /* \"#utility.yul\":18157:18438   */\n      pop\n        /* \"#utility.yul\":18085:18438   */\n      swap3\n      swap2\n      pop\n      pop\n      jump\t// out\n        /* \"#utility.yul\":18470:20662   */\n    tag_119:\n        /* \"#utility.yul\":18557:18562   */\n      0x00\n        /* \"#utility.yul\":18601:18607   */\n      0x0140\n        /* \"#utility.yul\":18589:18598   */\n      dup3\n        /* \"#utility.yul\":18584:18587   */\n      dup5\n        /* \"#utility.yul\":18580:18599   */\n      sub\n        /* \"#utility.yul\":18576:18608   */\n      slt\n        /* \"#utility.yul\":18573:18692   */\n      iszero\n      tag_323\n      jumpi\n        /* \"#utility.yul\":18611:18690   */\n      tag_324\n      tag_105\n      jump\t// in\n    tag_324:\n        /* \"#utility.yul\":18573:18692   */\n    tag_323:\n        /* \"#utility.yul\":18710:18733   */\n      tag_325\n        /* \"#utility.yul\":18726:18732   */\n      0x0140\n        /* \"#utility.yul\":18710:18733   */\n      tag_64\n      jump\t// in\n    tag_325:\n        /* \"#utility.yul\":18701:18733   */\n      swap1\n      pop\n        /* \"#utility.yul\":18791:18792   */\n      0x00\n        /* \"#utility.yul\":18831:18891   */\n      tag_326\n        /* \"#utility.yul\":18887:18890   */\n      dup5\n        /* \"#utility.yul\":18878:18884   */\n      dup3\n        /* \"#utility.yul\":18867:18876   */\n      dup6\n        /* \"#utility.yul\":18863:18885   */\n      add\n        /* \"#utility.yul\":18831:18891   */\n      tag_92\n      jump\t// in\n    tag_326:\n        /* \"#utility.yul\":18824:18828   */\n      0x00\n        /* \"#utility.yul\":18817:18822   */\n      dup4\n        /* \"#utility.yul\":18813:18829   */\n      add\n        /* \"#utility.yul\":18806:18892   */\n      mstore\n        /* \"#utility.yul\":18743:18903   */\n      pop\n        /* \"#utility.yul\":18964:18966   */\n      0x20\n        /* \"#utility.yul\":19005:19065   */\n      tag_327\n        /* \"#utility.yul\":19061:19064   */\n      dup5\n        /* \"#utility.yul\":19052:19058   */\n      dup3\n        /* \"#utility.yul\":19041:19050   */\n      dup6\n        /* \"#utility.yul\":19037:19059   */\n      add\n        /* \"#utility.yul\":19005:19065   */\n      tag_92\n      jump\t// in\n    tag_327:\n        /* \"#utility.yul\":18998:19002   */\n      0x20\n        /* \"#utility.yul\":18991:18996   */\n      dup4\n        /* \"#utility.yul\":18987:19003   */\n      add\n        /* \"#utility.yul\":18980:19066   */\n      mstore\n        /* \"#utility.yul\":18913:19077   */\n      pop\n        /* \"#utility.yul\":19136:19138   */\n      0x40\n        /* \"#utility.yul\":19177:19236   */\n      tag_328\n        /* \"#utility.yul\":19232:19235   */\n      dup5\n        /* \"#utility.yul\":19223:19229   */\n      dup3\n        /* \"#utility.yul\":19212:19221   */\n      dup6\n        /* \"#utility.yul\":19208:19230   */\n      add\n        /* \"#utility.yul\":19177:19236   */\n      tag_113\n      jump\t// in\n    tag_328:\n        /* \"#utility.yul\":19170:19174   */\n      0x40\n        /* \"#utility.yul\":19163:19168   */\n      dup4\n        /* \"#utility.yul\":19159:19175   */\n      add\n        /* \"#utility.yul\":19152:19237   */\n      mstore\n        /* \"#utility.yul\":19087:19248   */\n      pop\n        /* \"#utility.yul\":19317:19319   */\n      0x60\n        /* \"#utility.yul\":19358:19417   */\n      tag_329\n        /* \"#utility.yul\":19413:19416   */\n      dup5\n        /* \"#utility.yul\":19404:19410   */\n      dup3\n        /* \"#utility.yul\":19393:19402   */\n      dup6\n        /* \"#utility.yul\":19389:19411   */\n      add\n        /* \"#utility.yul\":19358:19417   */\n      tag_113\n      jump\t// in\n    tag_329:\n        /* \"#utility.yul\":19351:19355   */\n      0x60\n        /* \"#utility.yul\":19344:19349   */\n      dup4\n        /* \"#utility.yul\":19340:19356   */\n      add\n        /* \"#utility.yul\":19333:19418   */\n      mstore\n        /* \"#utility.yul\":19258:19429   */\n      pop\n        /* \"#utility.yul\":19498:19501   */\n      0x80\n        /* \"#utility.yul\":19540:19599   */\n      tag_330\n        /* \"#utility.yul\":19595:19598   */\n      dup5\n        /* \"#utility.yul\":19586:19592   */\n      dup3\n        /* \"#utility.yul\":19575:19584   */\n      dup6\n        /* \"#utility.yul\":19571:19593   */\n      add\n        /* \"#utility.yul\":19540:19599   */\n      tag_113\n      jump\t// in\n    tag_330:\n        /* \"#utility.yul\":19533:19537   */\n      0x80\n        /* \"#utility.yul\":19526:19531   */\n      dup4\n        /* \"#utility.yul\":19522:19538   */\n      add\n        /* \"#utility.yul\":19515:19600   */\n      mstore\n        /* \"#utility.yul\":19439:19611   */\n      pop\n        /* \"#utility.yul\":19672:19675   */\n      0xa0\n        /* \"#utility.yul\":19714:19774   */\n      tag_331\n        /* \"#utility.yul\":19770:19773   */\n      dup5\n        /* \"#utility.yul\":19761:19767   */\n      dup3\n        /* \"#utility.yul\":19750:19759   */\n      dup6\n        /* \"#utility.yul\":19746:19768   */\n      add\n        /* \"#utility.yul\":19714:19774   */\n      tag_92\n      jump\t// in\n    tag_331:\n        /* \"#utility.yul\":19707:19711   */\n      0xa0\n        /* \"#utility.yul\":19700:19705   */\n      dup4\n        /* \"#utility.yul\":19696:19712   */\n      add\n        /* \"#utility.yul\":19689:19775   */\n      mstore\n        /* \"#utility.yul\":19621:19786   */\n      pop\n        /* \"#utility.yul\":19850:19853   */\n      0xc0\n        /* \"#utility.yul\":19892:19952   */\n      tag_332\n        /* \"#utility.yul\":19948:19951   */\n      dup5\n        /* \"#utility.yul\":19939:19945   */\n      dup3\n        /* \"#utility.yul\":19928:19937   */\n      dup6\n        /* \"#utility.yul\":19924:19946   */\n      add\n        /* \"#utility.yul\":19892:19952   */\n      tag_115\n      jump\t// in\n    tag_332:\n        /* \"#utility.yul\":19885:19889   */\n      0xc0\n        /* \"#utility.yul\":19878:19883   */\n      dup4\n        /* \"#utility.yul\":19874:19890   */\n      add\n        /* \"#utility.yul\":19867:19953   */\n      mstore\n        /* \"#utility.yul\":19796:19964   */\n      pop\n        /* \"#utility.yul\":20027:20030   */\n      0xe0\n        /* \"#utility.yul\":20069:20129   */\n      tag_333\n        /* \"#utility.yul\":20125:20128   */\n      dup5\n        /* \"#utility.yul\":20116:20122   */\n      dup3\n        /* \"#utility.yul\":20105:20114   */\n      dup6\n        /* \"#utility.yul\":20101:20123   */\n      add\n        /* \"#utility.yul\":20069:20129   */\n      tag_115\n      jump\t// in\n    tag_333:\n        /* \"#utility.yul\":20062:20066   */\n      0xe0\n        /* \"#utility.yul\":20055:20060   */\n      dup4\n        /* \"#utility.yul\":20051:20067   */\n      add\n        /* \"#utility.yul\":20044:20130   */\n      mstore\n        /* \"#utility.yul\":19974:20141   */\n      pop\n        /* \"#utility.yul\":20205:20208   */\n      0x0100\n        /* \"#utility.yul\":20249:20306   */\n      tag_334\n        /* \"#utility.yul\":20302:20305   */\n      dup5\n        /* \"#utility.yul\":20293:20299   */\n      dup3\n        /* \"#utility.yul\":20282:20291   */\n      dup6\n        /* \"#utility.yul\":20278:20300   */\n      add\n        /* \"#utility.yul\":20249:20306   */\n      tag_108\n      jump\t// in\n    tag_334:\n        /* \"#utility.yul\":20240:20246   */\n      0x0100\n        /* \"#utility.yul\":20233:20238   */\n      dup4\n        /* \"#utility.yul\":20229:20247   */\n      add\n        /* \"#utility.yul\":20222:20307   */\n      mstore\n        /* \"#utility.yul\":20151:20318   */\n      pop\n        /* \"#utility.yul\":20398:20401   */\n      0x0120\n        /* \"#utility.yul\":20387:20396   */\n      dup3\n        /* \"#utility.yul\":20383:20402   */\n      add\n        /* \"#utility.yul\":20377:20403   */\n      mload\n        /* \"#utility.yul\":20430:20448   */\n      0xffffffffffffffff\n        /* \"#utility.yul\":20422:20428   */\n      dup2\n        /* \"#utility.yul\":20419:20449   */\n      gt\n        /* \"#utility.yul\":20416:20533   */\n      iszero\n      tag_335\n      jumpi\n        /* \"#utility.yul\":20452:20531   */\n      tag_336\n      tag_106\n      jump\t// in\n    tag_336:\n        /* \"#utility.yul\":20416:20533   */\n    tag_335:\n        /* \"#utility.yul\":20574:20643   */\n      tag_337\n        /* \"#utility.yul\":20639:20642   */\n      dup5\n        /* \"#utility.yul\":20630:20636   */\n      dup3\n        /* \"#utility.yul\":20619:20628   */\n      dup6\n        /* \"#utility.yul\":20615:20637   */\n      add\n        /* \"#utility.yul\":20574:20643   */\n      tag_118\n      jump\t// in\n    tag_337:\n        /* \"#utility.yul\":20565:20571   */\n      0x0120\n        /* \"#utility.yul\":20558:20563   */\n      dup4\n        /* \"#utility.yul\":20554:20572   */\n      add\n        /* \"#utility.yul\":20547:20644   */\n      mstore\n        /* \"#utility.yul\":20328:20655   */\n      pop\n        /* \"#utility.yul\":18470:20662   */\n      swap3\n      swap2\n      pop\n      pop\n      jump\t// out\n        /* \"#utility.yul\":20668:21226   */\n    tag_55:\n        /* \"#utility.yul\":20765:20771   */\n      0x00\n        /* \"#utility.yul\":20814:20816   */\n      0x20\n        /* \"#utility.yul\":20802:20811   */\n      dup3\n        /* \"#utility.yul\":20793:20800   */\n      dup5\n        /* \"#utility.yul\":20789:20812   */\n      sub\n        /* \"#utility.yul\":20785:20817   */\n      slt\n        /* \"#utility.yul\":20782:20901   */\n      iszero\n      tag_339\n      jumpi\n        /* \"#utility.yul\":20820:20899   */\n      tag_340\n      tag_57\n      jump\t// in\n    tag_340:\n        /* \"#utility.yul\":20782:20901   */\n    tag_339:\n        /* \"#utility.yul\":20961:20962   */\n      0x00\n        /* \"#utility.yul\":20950:20959   */\n      dup3\n        /* \"#utility.yul\":20946:20963   */\n      add\n        /* \"#utility.yul\":20940:20964   */\n      mload\n        /* \"#utility.yul\":20991:21009   */\n      0xffffffffffffffff\n        /* \"#utility.yul\":20983:20989   */\n      dup2\n        /* \"#utility.yul\":20980:21010   */\n      gt\n        /* \"#utility.yul\":20977:21094   */\n      iszero\n      tag_341\n      jumpi\n        /* \"#utility.yul\":21013:21092   */\n      tag_342\n      tag_58\n      jump\t// in\n    tag_342:\n        /* \"#utility.yul\":20977:21094   */\n    tag_341:\n        /* \"#utility.yul\":21118:21209   */\n      tag_343\n        /* \"#utility.yul\":21201:21208   */\n      dup5\n        /* \"#utility.yul\":21192:21198   */\n      dup3\n        /* \"#utility.yul\":21181:21190   */\n      dup6\n        /* \"#utility.yul\":21177:21199   */\n      add\n        /* \"#utility.yul\":21118:21209   */\n      tag_119\n      jump\t// in\n    tag_343:\n        /* \"#utility.yul\":21108:21209   */\n      swap2\n      pop\n        /* \"#utility.yul\":20911:21219   */\n      pop\n        /* \"#utility.yul\":20668:21226   */\n      swap3\n      swap2\n      pop\n      pop\n      jump\t// out\n\n    auxdata: 0xa2646970667358221220b2cf7de1f872e516f9a93f489c1123ce13a888ef2f6af73a8e555465f6a87f2864736f6c63430008130033\n}\n",
				"bytecode": {
					"linkReferences": {},
					"object": "608060405273a1207f3bba224e2c9c3c6d5af63d0eb1582ce5876000806101000a81548173ffffffffffffffffffffffffffffffffffffffff021916908373ffffffffffffffffffffffffffffffffffffffff16021790555073a7b39296258348c78294f95b872b282326a97bdf600160006101000a81548173ffffffffffffffffffffffffffffffffffffffff021916908373ffffffffffffffffffffffffffffffffffffffff1602179055503480156100b957600080fd5b50610f14806100c96000396000f3fe608060405234801561001057600080fd5b506004361061004c5760003560e01c806353d55cc0146100515780637506fbe8146100815780638eaa6ac0146100b1578063b4648951146100e1575b600080fd5b61006b60048036038101906100669190610653565b610111565b60405161007891906106db565b60405180910390f35b61009b60048036038101906100969190610722565b6101be565b6040516100a891906106db565b60405180910390f35b6100cb60048036038101906100c69190610762565b6102ec565b6040516100d8919061080e565b60405180910390f35b6100fb60048036038101906100f69190610762565b6103a0565b604051610108919061083f565b60405180910390f35b6000600160009054906101000a900473ffffffffffffffffffffffffffffffffffffffff1673ffffffffffffffffffffffffffffffffffffffff166360d7a2788585856040518463ffffffff1660e01b8152600401610172939291906108c8565b6020604051808303816000875af1158015610191573d6000803e3d6000fd5b505050506040513d601f19601f820116820180604052508101906101b5919061091b565b90509392505050565b60008060009054906101000a900473ffffffffffffffffffffffffffffffffffffffff1673ffffffffffffffffffffffffffffffffffffffff1663f17325e760405180604001604052808681526020016040518060c001604052803373ffffffffffffffffffffffffffffffffffffffff168152602001600067ffffffffffffffff1681526020016001151581526020016000801b8152602001876040516020016102699190610948565b604051602081830303815290604052815260200160008152508152506040518263ffffffff1660e01b81526004016102a19190610ae7565b6020604051808303816000875af11580156102c0573d6000803e3d6000fd5b505050506040513d601f19601f820116820180604052508101906102e4919061091b565b905092915050565b60606000600160009054906101000a900473ffffffffffffffffffffffffffffffffffffffff1673ffffffffffffffffffffffffffffffffffffffff1663a2ea7c6e846040518263ffffffff1660e01b815260040161034b91906106db565b600060405180830381865afa158015610368573d6000803e3d6000fd5b505050506040513d6000823e3d601f19601f820116820180604052508101906103919190610c41565b90508060600151915050919050565b60008060008054906101000a900473ffffffffffffffffffffffffffffffffffffffff1673ffffffffffffffffffffffffffffffffffffffff1663a3112a64846040518263ffffffff1660e01b81526004016103fc91906106db565b600060405180830381865afa158015610419573d6000803e3d6000fd5b505050506040513d6000823e3d601f19601f820116820180604052508101906104429190610e95565b90508060c00151915050919050565b6000604051905090565b600080fd5b600080fd5b600080fd5b600080fd5b6000601f19601f8301169050919050565b7f4e487b7100000000000000000000000000000000000000000000000000000000600052604160045260246000fd5b6104b88261046f565b810181811067ffffffffffffffff821117156104d7576104d6610480565b5b80604052505050565b60006104ea610451565b90506104f682826104af565b919050565b600067ffffffffffffffff82111561051657610515610480565b5b61051f8261046f565b9050602081019050919050565b82818337600083830152505050565b600061054e610549846104fb565b6104e0565b90508281526020810184848401111561056a5761056961046a565b5b61057584828561052c565b509392505050565b600082601f83011261059257610591610465565b5b81356105a284826020860161053b565b91505092915050565b600073ffffffffffffffffffffffffffffffffffffffff82169050919050565b60006105d6826105ab565b9050919050565b60006105e8826105cb565b9050919050565b6105f8816105dd565b811461060357600080fd5b50565b600081359050610615816105ef565b92915050565b60008115159050919050565b6106308161061b565b811461063b57600080fd5b50565b60008135905061064d81610627565b92915050565b60008060006060848603121561066c5761066b61045b565b5b600084013567ffffffffffffffff81111561068a57610689610460565b5b6106968682870161057d565b93505060206106a786828701610606565b92505060406106b88682870161063e565b9150509250925092565b6000819050919050565b6106d5816106c2565b82525050565b60006020820190506106f060008301846106cc565b92915050565b6106ff816106c2565b811461070a57600080fd5b50565b60008135905061071c816106f6565b92915050565b600080604083850312156107395761073861045b565b5b60006107478582860161070d565b92505060206107588582860161063e565b9150509250929050565b6000602082840312156107785761077761045b565b5b60006107868482850161070d565b91505092915050565b600081519050919050565b600082825260208201905092915050565b60005b838110156107c95780820151818401526020810190506107ae565b60008484015250505050565b60006107e08261078f565b6107ea818561079a565b93506107fa8185602086016107ab565b6108038161046f565b840191505092915050565b6000602082019050818103600083015261082881846107d5565b905092915050565b610839816105cb565b82525050565b60006020820190506108546000830184610830565b92915050565b6000819050919050565b600061087f61087a610875846105ab565b61085a565b6105ab565b9050919050565b600061089182610864565b9050919050565b60006108a382610886565b9050919050565b6108b381610898565b82525050565b6108c28161061b565b82525050565b600060608201905081810360008301526108e281866107d5565b90506108f160208301856108aa565b6108fe60408301846108b9565b949350505050565b600081519050610915816106f6565b92915050565b6000602082840312156109315761093061045b565b5b600061093f84828501610906565b91505092915050565b600060208201905061095d60008301846108b9565b92915050565b61096c816106c2565b82525050565b61097b816105cb565b82525050565b600067ffffffffffffffff82169050919050565b61099e81610981565b82525050565b6109ad8161061b565b82525050565b600081519050919050565b600082825260208201905092915050565b60006109da826109b3565b6109e481856109be565b93506109f48185602086016107ab565b6109fd8161046f565b840191505092915050565b6000819050919050565b610a1b81610a08565b82525050565b600060c083016000830151610a396000860182610972565b506020830151610a4c6020860182610995565b506040830151610a5f60408601826109a4565b506060830151610a726060860182610963565b5060808301518482036080860152610a8a82826109cf565b91505060a0830151610a9f60a0860182610a12565b508091505092915050565b6000604083016000830151610ac26000860182610963565b5060208301518482036020860152610ada8282610a21565b9150508091505092915050565b60006020820190508181036000830152610b018184610aaa565b905092915050565b600080fd5b600080fd5b600081519050610b22816105ef565b92915050565b600081519050610b3781610627565b92915050565b6000610b50610b4b846104fb565b6104e0565b905082815260208101848484011115610b6c57610b6b61046a565b5b610b778482856107ab565b509392505050565b600082601f830112610b9457610b93610465565b5b8151610ba4848260208601610b3d565b91505092915050565b600060808284031215610bc357610bc2610b09565b5b610bcd60806104e0565b90506000610bdd84828501610906565b6000830152506020610bf184828501610b13565b6020830152506040610c0584828501610b28565b604083015250606082015167ffffffffffffffff811115610c2957610c28610b0e565b5b610c3584828501610b7f565b60608301525092915050565b600060208284031215610c5757610c5661045b565b5b600082015167ffffffffffffffff811115610c7557610c74610460565b5b610c8184828501610bad565b91505092915050565b610c9381610981565b8114610c9e57600080fd5b50565b600081519050610cb081610c8a565b92915050565b610cbf816105cb565b8114610cca57600080fd5b50565b600081519050610cdc81610cb6565b92915050565b600067ffffffffffffffff821115610cfd57610cfc610480565b5b610d068261046f565b9050602081019050919050565b6000610d26610d2184610ce2565b6104e0565b905082815260208101848484011115610d4257610d4161046a565b5b610d4d8482856107ab565b509392505050565b600082601f830112610d6a57610d69610465565b5b8151610d7a848260208601610d13565b91505092915050565b60006101408284031215610d9a57610d99610b09565b5b610da56101406104e0565b90506000610db584828501610906565b6000830152506020610dc984828501610906565b6020830152506040610ddd84828501610ca1565b6040830152506060610df184828501610ca1565b6060830152506080610e0584828501610ca1565b60808301525060a0610e1984828501610906565b60a08301525060c0610e2d84828501610ccd565b60c08301525060e0610e4184828501610ccd565b60e083015250610100610e5684828501610b28565b6101008301525061012082015167ffffffffffffffff811115610e7c57610e7b610b0e565b5b610e8884828501610d55565b6101208301525092915050565b600060208284031215610eab57610eaa61045b565b5b600082015167ffffffffffffffff811115610ec957610ec8610460565b5b610ed584828501610d83565b9150509291505056fea2646970667358221220b2cf7de1f872e516f9a93f489c1123ce13a888ef2f6af73a8e555465f6a87f2864736f6c63430008130033",
					"opcodes": "PUSH1 0x80 PUSH1 0x40 MSTORE PUSH20 0xA1207F3BBA224E2C9C3C6D5AF63D0EB1582CE587 PUSH1 0x0 DUP1 PUSH2 0x100 EXP DUP2 SLOAD DUP2 PUSH20 0xFFFFFFFFFFFFFFFFFFFFFFFFFFFFFFFFFFFFFFFF MUL NOT AND SWAP1 DUP4 PUSH20 0xFFFFFFFFFFFFFFFFFFFFFFFFFFFFFFFFFFFFFFFF AND MUL OR SWAP1 SSTORE POP PUSH20 0xA7B39296258348C78294F95B872B282326A97BDF PUSH1 0x1 PUSH1 0x0 PUSH2 0x100 EXP DUP2 SLOAD DUP2 PUSH20 0xFFFFFFFFFFFFFFFFFFFFFFFFFFFFFFFFFFFFFFFF MUL NOT AND SWAP1 DUP4 PUSH20 0xFFFFFFFFFFFFFFFFFFFFFFFFFFFFFFFFFFFFFFFF AND MUL OR SWAP1 SSTORE POP CALLVALUE DUP1 ISZERO PUSH2 0xB9 JUMPI PUSH1 0x0 DUP1 REVERT JUMPDEST POP PUSH2 0xF14 DUP1 PUSH2 0xC9 PUSH1 0x0 CODECOPY PUSH1 0x0 RETURN INVALID PUSH1 0x80 PUSH1 0x40 MSTORE CALLVALUE DUP1 ISZERO PUSH2 0x10 JUMPI PUSH1 0x0 DUP1 REVERT JUMPDEST POP PUSH1 0x4 CALLDATASIZE LT PUSH2 0x4C JUMPI PUSH1 0x0 CALLDATALOAD PUSH1 0xE0 SHR DUP1 PUSH4 0x53D55CC0 EQ PUSH2 0x51 JUMPI DUP1 PUSH4 0x7506FBE8 EQ PUSH2 0x81 JUMPI DUP1 PUSH4 0x8EAA6AC0 EQ PUSH2 0xB1 JUMPI DUP1 PUSH4 0xB4648951 EQ PUSH2 0xE1 JUMPI JUMPDEST PUSH1 0x0 DUP1 REVERT JUMPDEST PUSH2 0x6B PUSH1 0x4 DUP1 CALLDATASIZE SUB DUP2 ADD SWAP1 PUSH2 0x66 SWAP2 SWAP1 PUSH2 0x653 JUMP JUMPDEST PUSH2 0x111 JUMP JUMPDEST PUSH1 0x40 MLOAD PUSH2 0x78 SWAP2 SWAP1 PUSH2 0x6DB JUMP JUMPDEST PUSH1 0x40 MLOAD DUP1 SWAP2 SUB SWAP1 RETURN JUMPDEST PUSH2 0x9B PUSH1 0x4 DUP1 CALLDATASIZE SUB DUP2 ADD SWAP1 PUSH2 0x96 SWAP2 SWAP1 PUSH2 0x722 JUMP JUMPDEST PUSH2 0x1BE JUMP JUMPDEST PUSH1 0x40 MLOAD PUSH2 0xA8 SWAP2 SWAP1 PUSH2 0x6DB JUMP JUMPDEST PUSH1 0x40 MLOAD DUP1 SWAP2 SUB SWAP1 RETURN JUMPDEST PUSH2 0xCB PUSH1 0x4 DUP1 CALLDATASIZE SUB DUP2 ADD SWAP1 PUSH2 0xC6 SWAP2 SWAP1 PUSH2 0x762 JUMP JUMPDEST PUSH2 0x2EC JUMP JUMPDEST PUSH1 0x40 MLOAD PUSH2 0xD8 SWAP2 SWAP1 PUSH2 0x80E JUMP JUMPDEST PUSH1 0x40 MLOAD DUP1 SWAP2 SUB SWAP1 RETURN JUMPDEST PUSH2 0xFB PUSH1 0x4 DUP1 CALLDATASIZE SUB DUP2 ADD SWAP1 PUSH2 0xF6 SWAP2 SWAP1 PUSH2 0x762 JUMP JUMPDEST PUSH2 0x3A0 JUMP JUMPDEST PUSH1 0x40 MLOAD PUSH2 0x108 SWAP2 SWAP1 PUSH2 0x83F JUMP JUMPDEST PUSH1 0x40 MLOAD DUP1 SWAP2 SUB SWAP1 RETURN JUMPDEST PUSH1 0x0 PUSH1 0x1 PUSH1 0x0 SWAP1 SLOAD SWAP1 PUSH2 0x100 EXP SWAP1 DIV PUSH20 0xFFFFFFFFFFFFFFFFFFFFFFFFFFFFFFFFFFFFFFFF AND PUSH20 0xFFFFFFFFFFFFFFFFFFFFFFFFFFFFFFFFFFFFFFFF AND PUSH4 0x60D7A278 DUP6 DUP6 DUP6 PUSH1 0x40 MLOAD DUP5 PUSH4 0xFFFFFFFF AND PUSH1 0xE0 SHL DUP2 MSTORE PUSH1 0x4 ADD PUSH2 0x172 SWAP4 SWAP3 SWAP2 SWAP1 PUSH2 0x8C8 JUMP JUMPDEST PUSH1 0x20 PUSH1 0x40 MLOAD DUP1 DUP4 SUB DUP2 PUSH1 0x0 DUP8 GAS CALL ISZERO DUP1 ISZERO PUSH2 0x191 JUMPI RETURNDATASIZE PUSH1 0x0 DUP1 RETURNDATACOPY RETURNDATASIZE PUSH1 0x0 REVERT JUMPDEST POP POP POP POP PUSH1 0x40 MLOAD RETURNDATASIZE PUSH1 0x1F NOT PUSH1 0x1F DUP3 ADD AND DUP3 ADD DUP1 PUSH1 0x40 MSTORE POP DUP2 ADD SWAP1 PUSH2 0x1B5 SWAP2 SWAP1 PUSH2 0x91B JUMP JUMPDEST SWAP1 POP SWAP4 SWAP3 POP POP POP JUMP JUMPDEST PUSH1 0x0 DUP1 PUSH1 0x0 SWAP1 SLOAD SWAP1 PUSH2 0x100 EXP SWAP1 DIV PUSH20 0xFFFFFFFFFFFFFFFFFFFFFFFFFFFFFFFFFFFFFFFF AND PUSH20 0xFFFFFFFFFFFFFFFFFFFFFFFFFFFFFFFFFFFFFFFF AND PUSH4 0xF17325E7 PUSH1 0x40 MLOAD DUP1 PUSH1 0x40 ADD PUSH1 0x40 MSTORE DUP1 DUP7 DUP2 MSTORE PUSH1 0x20 ADD PUSH1 0x40 MLOAD DUP1 PUSH1 0xC0 ADD PUSH1 0x40 MSTORE DUP1 CALLER PUSH20 0xFFFFFFFFFFFFFFFFFFFFFFFFFFFFFFFFFFFFFFFF AND DUP2 MSTORE PUSH1 0x20 ADD PUSH1 0x0 PUSH8 0xFFFFFFFFFFFFFFFF AND DUP2 MSTORE PUSH1 0x20 ADD PUSH1 0x1 ISZERO ISZERO DUP2 MSTORE PUSH1 0x20 ADD PUSH1 0x0 DUP1 SHL DUP2 MSTORE PUSH1 0x20 ADD DUP8 PUSH1 0x40 MLOAD PUSH1 0x20 ADD PUSH2 0x269 SWAP2 SWAP1 PUSH2 0x948 JUMP JUMPDEST PUSH1 0x40 MLOAD PUSH1 0x20 DUP2 DUP4 SUB SUB DUP2 MSTORE SWAP1 PUSH1 0x40 MSTORE DUP2 MSTORE PUSH1 0x20 ADD PUSH1 0x0 DUP2 MSTORE POP DUP2 MSTORE POP PUSH1 0x40 MLOAD DUP3 PUSH4 0xFFFFFFFF AND PUSH1 0xE0 SHL DUP2 MSTORE PUSH1 0x4 ADD PUSH2 0x2A1 SWAP2 SWAP1 PUSH2 0xAE7 JUMP JUMPDEST PUSH1 0x20 PUSH1 0x40 MLOAD DUP1 DUP4 SUB DUP2 PUSH1 0x0 DUP8 GAS CALL ISZERO DUP1 ISZERO PUSH2 0x2C0 JUMPI RETURNDATASIZE PUSH1 0x0 DUP1 RETURNDATACOPY RETURNDATASIZE PUSH1 0x0 REVERT JUMPDEST POP POP POP POP PUSH1 0x40 MLOAD RETURNDATASIZE PUSH1 0x1F NOT PUSH1 0x1F DUP3 ADD AND DUP3 ADD DUP1 PUSH1 0x40 MSTORE POP DUP2 ADD SWAP1 PUSH2 0x2E4 SWAP2 SWAP1 PUSH2 0x91B JUMP JUMPDEST SWAP1 POP SWAP3 SWAP2 POP POP JUMP JUMPDEST PUSH1 0x60 PUSH1 0x0 PUSH1 0x1 PUSH1 0x0 SWAP1 SLOAD SWAP1 PUSH2 0x100 EXP SWAP1 DIV PUSH20 0xFFFFFFFFFFFFFFFFFFFFFFFFFFFFFFFFFFFFFFFF AND PUSH20 0xFFFFFFFFFFFFFFFFFFFFFFFFFFFFFFFFFFFFFFFF AND PUSH4 0xA2EA7C6E DUP5 PUSH1 0x40 MLOAD DUP3 PUSH4 0xFFFFFFFF AND PUSH1 0xE0 SHL DUP2 MSTORE PUSH1 0x4 ADD PUSH2 0x34B SWAP2 SWAP1 PUSH2 0x6DB JUMP JUMPDEST PUSH1 0x0 PUSH1 0x40 MLOAD DUP1 DUP4 SUB DUP2 DUP7 GAS STATICCALL ISZERO DUP1 ISZERO PUSH2 0x368 JUMPI RETURNDATASIZE PUSH1 0x0 DUP1 RETURNDATACOPY RETURNDATASIZE PUSH1 0x0 REVERT JUMPDEST POP POP POP POP PUSH1 0x40 MLOAD RETURNDATASIZE PUSH1 0x0 DUP3 RETURNDATACOPY RETURNDATASIZE PUSH1 0x1F NOT PUSH1 0x1F DUP3 ADD AND DUP3 ADD DUP1 PUSH1 0x40 MSTORE POP DUP2 ADD SWAP1 PUSH2 0x391 SWAP2 SWAP1 PUSH2 0xC41 JUMP JUMPDEST SWAP1 POP DUP1 PUSH1 0x60 ADD MLOAD SWAP2 POP POP SWAP2 SWAP1 POP JUMP JUMPDEST PUSH1 0x0 DUP1 PUSH1 0x0 DUP1 SLOAD SWAP1 PUSH2 0x100 EXP SWAP1 DIV PUSH20 0xFFFFFFFFFFFFFFFFFFFFFFFFFFFFFFFFFFFFFFFF AND PUSH20 0xFFFFFFFFFFFFFFFFFFFFFFFFFFFFFFFFFFFFFFFF AND PUSH4 0xA3112A64 DUP5 PUSH1 0x40 MLOAD DUP3 PUSH4 0xFFFFFFFF AND PUSH1 0xE0 SHL DUP2 MSTORE PUSH1 0x4 ADD PUSH2 0x3FC SWAP2 SWAP1 PUSH2 0x6DB JUMP JUMPDEST PUSH1 0x0 PUSH1 0x40 MLOAD DUP1 DUP4 SUB DUP2 DUP7 GAS STATICCALL ISZERO DUP1 ISZERO PUSH2 0x419 JUMPI RETURNDATASIZE PUSH1 0x0 DUP1 RETURNDATACOPY RETURNDATASIZE PUSH1 0x0 REVERT JUMPDEST POP POP POP POP PUSH1 0x40 MLOAD RETURNDATASIZE PUSH1 0x0 DUP3 RETURNDATACOPY RETURNDATASIZE PUSH1 0x1F NOT PUSH1 0x1F DUP3 ADD AND DUP3 ADD DUP1 PUSH1 0x40 MSTORE POP DUP2 ADD SWAP1 PUSH2 0x442 SWAP2 SWAP1 PUSH2 0xE95 JUMP JUMPDEST SWAP1 POP DUP1 PUSH1 0xC0 ADD MLOAD SWAP2 POP POP SWAP2 SWAP1 POP JUMP JUMPDEST PUSH1 0x0 PUSH1 0x40 MLOAD SWAP1 POP SWAP1 JUMP JUMPDEST PUSH1 0x0 DUP1 REVERT JUMPDEST PUSH1 0x0 DUP1 REVERT JUMPDEST PUSH1 0x0 DUP1 REVERT JUMPDEST PUSH1 0x0 DUP1 REVERT JUMPDEST PUSH1 0x0 PUSH1 0x1F NOT PUSH1 0x1F DUP4 ADD AND SWAP1 POP SWAP2 SWAP1 POP JUMP JUMPDEST PUSH32 0x4E487B7100000000000000000000000000000000000000000000000000000000 PUSH1 0x0 MSTORE PUSH1 0x41 PUSH1 0x4 MSTORE PUSH1 0x24 PUSH1 0x0 REVERT JUMPDEST PUSH2 0x4B8 DUP3 PUSH2 0x46F JUMP JUMPDEST DUP2 ADD DUP2 DUP2 LT PUSH8 0xFFFFFFFFFFFFFFFF DUP3 GT OR ISZERO PUSH2 0x4D7 JUMPI PUSH2 0x4D6 PUSH2 0x480 JUMP JUMPDEST JUMPDEST DUP1 PUSH1 0x40 MSTORE POP POP POP JUMP JUMPDEST PUSH1 0x0 PUSH2 0x4EA PUSH2 0x451 JUMP JUMPDEST SWAP1 POP PUSH2 0x4F6 DUP3 DUP3 PUSH2 0x4AF JUMP JUMPDEST SWAP2 SWAP1 POP JUMP JUMPDEST PUSH1 0x0 PUSH8 0xFFFFFFFFFFFFFFFF DUP3 GT ISZERO PUSH2 0x516 JUMPI PUSH2 0x515 PUSH2 0x480 JUMP JUMPDEST JUMPDEST PUSH2 0x51F DUP3 PUSH2 0x46F JUMP JUMPDEST SWAP1 POP PUSH1 0x20 DUP2 ADD SWAP1 POP SWAP2 SWAP1 POP JUMP JUMPDEST DUP3 DUP2 DUP4 CALLDATACOPY PUSH1 0x0 DUP4 DUP4 ADD MSTORE POP POP POP JUMP JUMPDEST PUSH1 0x0 PUSH2 0x54E PUSH2 0x549 DUP5 PUSH2 0x4FB JUMP JUMPDEST PUSH2 0x4E0 JUMP JUMPDEST SWAP1 POP DUP3 DUP2 MSTORE PUSH1 0x20 DUP2 ADD DUP5 DUP5 DUP5 ADD GT ISZERO PUSH2 0x56A JUMPI PUSH2 0x569 PUSH2 0x46A JUMP JUMPDEST JUMPDEST PUSH2 0x575 DUP5 DUP3 DUP6 PUSH2 0x52C JUMP JUMPDEST POP SWAP4 SWAP3 POP POP POP JUMP JUMPDEST PUSH1 0x0 DUP3 PUSH1 0x1F DUP4 ADD SLT PUSH2 0x592 JUMPI PUSH2 0x591 PUSH2 0x465 JUMP JUMPDEST JUMPDEST DUP2 CALLDATALOAD PUSH2 0x5A2 DUP5 DUP3 PUSH1 0x20 DUP7 ADD PUSH2 0x53B JUMP JUMPDEST SWAP2 POP POP SWAP3 SWAP2 POP POP JUMP JUMPDEST PUSH1 0x0 PUSH20 0xFFFFFFFFFFFFFFFFFFFFFFFFFFFFFFFFFFFFFFFF DUP3 AND SWAP1 POP SWAP2 SWAP1 POP JUMP JUMPDEST PUSH1 0x0 PUSH2 0x5D6 DUP3 PUSH2 0x5AB JUMP JUMPDEST SWAP1 POP SWAP2 SWAP1 POP JUMP JUMPDEST PUSH1 0x0 PUSH2 0x5E8 DUP3 PUSH2 0x5CB JUMP JUMPDEST SWAP1 POP SWAP2 SWAP1 POP JUMP JUMPDEST PUSH2 0x5F8 DUP2 PUSH2 0x5DD JUMP JUMPDEST DUP2 EQ PUSH2 0x603 JUMPI PUSH1 0x0 DUP1 REVERT JUMPDEST POP JUMP JUMPDEST PUSH1 0x0 DUP2 CALLDATALOAD SWAP1 POP PUSH2 0x615 DUP2 PUSH2 0x5EF JUMP JUMPDEST SWAP3 SWAP2 POP POP JUMP JUMPDEST PUSH1 0x0 DUP2 ISZERO ISZERO SWAP1 POP SWAP2 SWAP1 POP JUMP JUMPDEST PUSH2 0x630 DUP2 PUSH2 0x61B JUMP JUMPDEST DUP2 EQ PUSH2 0x63B JUMPI PUSH1 0x0 DUP1 REVERT JUMPDEST POP JUMP JUMPDEST PUSH1 0x0 DUP2 CALLDATALOAD SWAP1 POP PUSH2 0x64D DUP2 PUSH2 0x627 JUMP JUMPDEST SWAP3 SWAP2 POP POP JUMP JUMPDEST PUSH1 0x0 DUP1 PUSH1 0x0 PUSH1 0x60 DUP5 DUP7 SUB SLT ISZERO PUSH2 0x66C JUMPI PUSH2 0x66B PUSH2 0x45B JUMP JUMPDEST JUMPDEST PUSH1 0x0 DUP5 ADD CALLDATALOAD PUSH8 0xFFFFFFFFFFFFFFFF DUP2 GT ISZERO PUSH2 0x68A JUMPI PUSH2 0x689 PUSH2 0x460 JUMP JUMPDEST JUMPDEST PUSH2 0x696 DUP7 DUP3 DUP8 ADD PUSH2 0x57D JUMP JUMPDEST SWAP4 POP POP PUSH1 0x20 PUSH2 0x6A7 DUP7 DUP3 DUP8 ADD PUSH2 0x606 JUMP JUMPDEST SWAP3 POP POP PUSH1 0x40 PUSH2 0x6B8 DUP7 DUP3 DUP8 ADD PUSH2 0x63E JUMP JUMPDEST SWAP2 POP POP SWAP3 POP SWAP3 POP SWAP3 JUMP JUMPDEST PUSH1 0x0 DUP2 SWAP1 POP SWAP2 SWAP1 POP JUMP JUMPDEST PUSH2 0x6D5 DUP2 PUSH2 0x6C2 JUMP JUMPDEST DUP3 MSTORE POP POP JUMP JUMPDEST PUSH1 0x0 PUSH1 0x20 DUP3 ADD SWAP1 POP PUSH2 0x6F0 PUSH1 0x0 DUP4 ADD DUP5 PUSH2 0x6CC JUMP JUMPDEST SWAP3 SWAP2 POP POP JUMP JUMPDEST PUSH2 0x6FF DUP2 PUSH2 0x6C2 JUMP JUMPDEST DUP2 EQ PUSH2 0x70A JUMPI PUSH1 0x0 DUP1 REVERT JUMPDEST POP JUMP JUMPDEST PUSH1 0x0 DUP2 CALLDATALOAD SWAP1 POP PUSH2 0x71C DUP2 PUSH2 0x6F6 JUMP JUMPDEST SWAP3 SWAP2 POP POP JUMP JUMPDEST PUSH1 0x0 DUP1 PUSH1 0x40 DUP4 DUP6 SUB SLT ISZERO PUSH2 0x739 JUMPI PUSH2 0x738 PUSH2 0x45B JUMP JUMPDEST JUMPDEST PUSH1 0x0 PUSH2 0x747 DUP6 DUP3 DUP7 ADD PUSH2 0x70D JUMP JUMPDEST SWAP3 POP POP PUSH1 0x20 PUSH2 0x758 DUP6 DUP3 DUP7 ADD PUSH2 0x63E JUMP JUMPDEST SWAP2 POP POP SWAP3 POP SWAP3 SWAP1 POP JUMP JUMPDEST PUSH1 0x0 PUSH1 0x20 DUP3 DUP5 SUB SLT ISZERO PUSH2 0x778 JUMPI PUSH2 0x777 PUSH2 0x45B JUMP JUMPDEST JUMPDEST PUSH1 0x0 PUSH2 0x786 DUP5 DUP3 DUP6 ADD PUSH2 0x70D JUMP JUMPDEST SWAP2 POP POP SWAP3 SWAP2 POP POP JUMP JUMPDEST PUSH1 0x0 DUP2 MLOAD SWAP1 POP SWAP2 SWAP1 POP JUMP JUMPDEST PUSH1 0x0 DUP3 DUP3 MSTORE PUSH1 0x20 DUP3 ADD SWAP1 POP SWAP3 SWAP2 POP POP JUMP JUMPDEST PUSH1 0x0 JUMPDEST DUP4 DUP2 LT ISZERO PUSH2 0x7C9 JUMPI DUP1 DUP3 ADD MLOAD DUP2 DUP5 ADD MSTORE PUSH1 0x20 DUP2 ADD SWAP1 POP PUSH2 0x7AE JUMP JUMPDEST PUSH1 0x0 DUP5 DUP5 ADD MSTORE POP POP POP POP JUMP JUMPDEST PUSH1 0x0 PUSH2 0x7E0 DUP3 PUSH2 0x78F JUMP JUMPDEST PUSH2 0x7EA DUP2 DUP6 PUSH2 0x79A JUMP JUMPDEST SWAP4 POP PUSH2 0x7FA DUP2 DUP6 PUSH1 0x20 DUP7 ADD PUSH2 0x7AB JUMP JUMPDEST PUSH2 0x803 DUP2 PUSH2 0x46F JUMP JUMPDEST DUP5 ADD SWAP2 POP POP SWAP3 SWAP2 POP POP JUMP JUMPDEST PUSH1 0x0 PUSH1 0x20 DUP3 ADD SWAP1 POP DUP2 DUP2 SUB PUSH1 0x0 DUP4 ADD MSTORE PUSH2 0x828 DUP2 DUP5 PUSH2 0x7D5 JUMP JUMPDEST SWAP1 POP SWAP3 SWAP2 POP POP JUMP JUMPDEST PUSH2 0x839 DUP2 PUSH2 0x5CB JUMP JUMPDEST DUP3 MSTORE POP POP JUMP JUMPDEST PUSH1 0x0 PUSH1 0x20 DUP3 ADD SWAP1 POP PUSH2 0x854 PUSH1 0x0 DUP4 ADD DUP5 PUSH2 0x830 JUMP JUMPDEST SWAP3 SWAP2 POP POP JUMP JUMPDEST PUSH1 0x0 DUP2 SWAP1 POP SWAP2 SWAP1 POP JUMP JUMPDEST PUSH1 0x0 PUSH2 0x87F PUSH2 0x87A PUSH2 0x875 DUP5 PUSH2 0x5AB JUMP JUMPDEST PUSH2 0x85A JUMP JUMPDEST PUSH2 0x5AB JUMP JUMPDEST SWAP1 POP SWAP2 SWAP1 POP JUMP JUMPDEST PUSH1 0x0 PUSH2 0x891 DUP3 PUSH2 0x864 JUMP JUMPDEST SWAP1 POP SWAP2 SWAP1 POP JUMP JUMPDEST PUSH1 0x0 PUSH2 0x8A3 DUP3 PUSH2 0x886 JUMP JUMPDEST SWAP1 POP SWAP2 SWAP1 POP JUMP JUMPDEST PUSH2 0x8B3 DUP2 PUSH2 0x898 JUMP JUMPDEST DUP3 MSTORE POP POP JUMP JUMPDEST PUSH2 0x8C2 DUP2 PUSH2 0x61B JUMP JUMPDEST DUP3 MSTORE POP POP JUMP JUMPDEST PUSH1 0x0 PUSH1 0x60 DUP3 ADD SWAP1 POP DUP2 DUP2 SUB PUSH1 0x0 DUP4 ADD MSTORE PUSH2 0x8E2 DUP2 DUP7 PUSH2 0x7D5 JUMP JUMPDEST SWAP1 POP PUSH2 0x8F1 PUSH1 0x20 DUP4 ADD DUP6 PUSH2 0x8AA JUMP JUMPDEST PUSH2 0x8FE PUSH1 0x40 DUP4 ADD DUP5 PUSH2 0x8B9 JUMP JUMPDEST SWAP5 SWAP4 POP POP POP POP JUMP JUMPDEST PUSH1 0x0 DUP2 MLOAD SWAP1 POP PUSH2 0x915 DUP2 PUSH2 0x6F6 JUMP JUMPDEST SWAP3 SWAP2 POP POP JUMP JUMPDEST PUSH1 0x0 PUSH1 0x20 DUP3 DUP5 SUB SLT ISZERO PUSH2 0x931 JUMPI PUSH2 0x930 PUSH2 0x45B JUMP JUMPDEST JUMPDEST PUSH1 0x0 PUSH2 0x93F DUP5 DUP3 DUP6 ADD PUSH2 0x906 JUMP JUMPDEST SWAP2 POP POP SWAP3 SWAP2 POP POP JUMP JUMPDEST PUSH1 0x0 PUSH1 0x20 DUP3 ADD SWAP1 POP PUSH2 0x95D PUSH1 0x0 DUP4 ADD DUP5 PUSH2 0x8B9 JUMP JUMPDEST SWAP3 SWAP2 POP POP JUMP JUMPDEST PUSH2 0x96C DUP2 PUSH2 0x6C2 JUMP JUMPDEST DUP3 MSTORE POP POP JUMP JUMPDEST PUSH2 0x97B DUP2 PUSH2 0x5CB JUMP JUMPDEST DUP3 MSTORE POP POP JUMP JUMPDEST PUSH1 0x0 PUSH8 0xFFFFFFFFFFFFFFFF DUP3 AND SWAP1 POP SWAP2 SWAP1 POP JUMP JUMPDEST PUSH2 0x99E DUP2 PUSH2 0x981 JUMP JUMPDEST DUP3 MSTORE POP POP JUMP JUMPDEST PUSH2 0x9AD DUP2 PUSH2 0x61B JUMP JUMPDEST DUP3 MSTORE POP POP JUMP JUMPDEST PUSH1 0x0 DUP2 MLOAD SWAP1 POP SWAP2 SWAP1 POP JUMP JUMPDEST PUSH1 0x0 DUP3 DUP3 MSTORE PUSH1 0x20 DUP3 ADD SWAP1 POP SWAP3 SWAP2 POP POP JUMP JUMPDEST PUSH1 0x0 PUSH2 0x9DA DUP3 PUSH2 0x9B3 JUMP JUMPDEST PUSH2 0x9E4 DUP2 DUP6 PUSH2 0x9BE JUMP JUMPDEST SWAP4 POP PUSH2 0x9F4 DUP2 DUP6 PUSH1 0x20 DUP7 ADD PUSH2 0x7AB JUMP JUMPDEST PUSH2 0x9FD DUP2 PUSH2 0x46F JUMP JUMPDEST DUP5 ADD SWAP2 POP POP SWAP3 SWAP2 POP POP JUMP JUMPDEST PUSH1 0x0 DUP2 SWAP1 POP SWAP2 SWAP1 POP JUMP JUMPDEST PUSH2 0xA1B DUP2 PUSH2 0xA08 JUMP JUMPDEST DUP3 MSTORE POP POP JUMP JUMPDEST PUSH1 0x0 PUSH1 0xC0 DUP4 ADD PUSH1 0x0 DUP4 ADD MLOAD PUSH2 0xA39 PUSH1 0x0 DUP7 ADD DUP3 PUSH2 0x972 JUMP JUMPDEST POP PUSH1 0x20 DUP4 ADD MLOAD PUSH2 0xA4C PUSH1 0x20 DUP7 ADD DUP3 PUSH2 0x995 JUMP JUMPDEST POP PUSH1 0x40 DUP4 ADD MLOAD PUSH2 0xA5F PUSH1 0x40 DUP7 ADD DUP3 PUSH2 0x9A4 JUMP JUMPDEST POP PUSH1 0x60 DUP4 ADD MLOAD PUSH2 0xA72 PUSH1 0x60 DUP7 ADD DUP3 PUSH2 0x963 JUMP JUMPDEST POP PUSH1 0x80 DUP4 ADD MLOAD DUP5 DUP3 SUB PUSH1 0x80 DUP7 ADD MSTORE PUSH2 0xA8A DUP3 DUP3 PUSH2 0x9CF JUMP JUMPDEST SWAP2 POP POP PUSH1 0xA0 DUP4 ADD MLOAD PUSH2 0xA9F PUSH1 0xA0 DUP7 ADD DUP3 PUSH2 0xA12 JUMP JUMPDEST POP DUP1 SWAP2 POP POP SWAP3 SWAP2 POP POP JUMP JUMPDEST PUSH1 0x0 PUSH1 0x40 DUP4 ADD PUSH1 0x0 DUP4 ADD MLOAD PUSH2 0xAC2 PUSH1 0x0 DUP7 ADD DUP3 PUSH2 0x963 JUMP JUMPDEST POP PUSH1 0x20 DUP4 ADD MLOAD DUP5 DUP3 SUB PUSH1 0x20 DUP7 ADD MSTORE PUSH2 0xADA DUP3 DUP3 PUSH2 0xA21 JUMP JUMPDEST SWAP2 POP POP DUP1 SWAP2 POP POP SWAP3 SWAP2 POP POP JUMP JUMPDEST PUSH1 0x0 PUSH1 0x20 DUP3 ADD SWAP1 POP DUP2 DUP2 SUB PUSH1 0x0 DUP4 ADD MSTORE PUSH2 0xB01 DUP2 DUP5 PUSH2 0xAAA JUMP JUMPDEST SWAP1 POP SWAP3 SWAP2 POP POP JUMP JUMPDEST PUSH1 0x0 DUP1 REVERT JUMPDEST PUSH1 0x0 DUP1 REVERT JUMPDEST PUSH1 0x0 DUP2 MLOAD SWAP1 POP PUSH2 0xB22 DUP2 PUSH2 0x5EF JUMP JUMPDEST SWAP3 SWAP2 POP POP JUMP JUMPDEST PUSH1 0x0 DUP2 MLOAD SWAP1 POP PUSH2 0xB37 DUP2 PUSH2 0x627 JUMP JUMPDEST SWAP3 SWAP2 POP POP JUMP JUMPDEST PUSH1 0x0 PUSH2 0xB50 PUSH2 0xB4B DUP5 PUSH2 0x4FB JUMP JUMPDEST PUSH2 0x4E0 JUMP JUMPDEST SWAP1 POP DUP3 DUP2 MSTORE PUSH1 0x20 DUP2 ADD DUP5 DUP5 DUP5 ADD GT ISZERO PUSH2 0xB6C JUMPI PUSH2 0xB6B PUSH2 0x46A JUMP JUMPDEST JUMPDEST PUSH2 0xB77 DUP5 DUP3 DUP6 PUSH2 0x7AB JUMP JUMPDEST POP SWAP4 SWAP3 POP POP POP JUMP JUMPDEST PUSH1 0x0 DUP3 PUSH1 0x1F DUP4 ADD SLT PUSH2 0xB94 JUMPI PUSH2 0xB93 PUSH2 0x465 JUMP JUMPDEST JUMPDEST DUP2 MLOAD PUSH2 0xBA4 DUP5 DUP3 PUSH1 0x20 DUP7 ADD PUSH2 0xB3D JUMP JUMPDEST SWAP2 POP POP SWAP3 SWAP2 POP POP JUMP JUMPDEST PUSH1 0x0 PUSH1 0x80 DUP3 DUP5 SUB SLT ISZERO PUSH2 0xBC3 JUMPI PUSH2 0xBC2 PUSH2 0xB09 JUMP JUMPDEST JUMPDEST PUSH2 0xBCD PUSH1 0x80 PUSH2 0x4E0 JUMP JUMPDEST SWAP1 POP PUSH1 0x0 PUSH2 0xBDD DUP5 DUP3 DUP6 ADD PUSH2 0x906 JUMP JUMPDEST PUSH1 0x0 DUP4 ADD MSTORE POP PUSH1 0x20 PUSH2 0xBF1 DUP5 DUP3 DUP6 ADD PUSH2 0xB13 JUMP JUMPDEST PUSH1 0x20 DUP4 ADD MSTORE POP PUSH1 0x40 PUSH2 0xC05 DUP5 DUP3 DUP6 ADD PUSH2 0xB28 JUMP JUMPDEST PUSH1 0x40 DUP4 ADD MSTORE POP PUSH1 0x60 DUP3 ADD MLOAD PUSH8 0xFFFFFFFFFFFFFFFF DUP2 GT ISZERO PUSH2 0xC29 JUMPI PUSH2 0xC28 PUSH2 0xB0E JUMP JUMPDEST JUMPDEST PUSH2 0xC35 DUP5 DUP3 DUP6 ADD PUSH2 0xB7F JUMP JUMPDEST PUSH1 0x60 DUP4 ADD MSTORE POP SWAP3 SWAP2 POP POP JUMP JUMPDEST PUSH1 0x0 PUSH1 0x20 DUP3 DUP5 SUB SLT ISZERO PUSH2 0xC57 JUMPI PUSH2 0xC56 PUSH2 0x45B JUMP JUMPDEST JUMPDEST PUSH1 0x0 DUP3 ADD MLOAD PUSH8 0xFFFFFFFFFFFFFFFF DUP2 GT ISZERO PUSH2 0xC75 JUMPI PUSH2 0xC74 PUSH2 0x460 JUMP JUMPDEST JUMPDEST PUSH2 0xC81 DUP5 DUP3 DUP6 ADD PUSH2 0xBAD JUMP JUMPDEST SWAP2 POP POP SWAP3 SWAP2 POP POP JUMP JUMPDEST PUSH2 0xC93 DUP2 PUSH2 0x981 JUMP JUMPDEST DUP2 EQ PUSH2 0xC9E JUMPI PUSH1 0x0 DUP1 REVERT JUMPDEST POP JUMP JUMPDEST PUSH1 0x0 DUP2 MLOAD SWAP1 POP PUSH2 0xCB0 DUP2 PUSH2 0xC8A JUMP JUMPDEST SWAP3 SWAP2 POP POP JUMP JUMPDEST PUSH2 0xCBF DUP2 PUSH2 0x5CB JUMP JUMPDEST DUP2 EQ PUSH2 0xCCA JUMPI PUSH1 0x0 DUP1 REVERT JUMPDEST POP JUMP JUMPDEST PUSH1 0x0 DUP2 MLOAD SWAP1 POP PUSH2 0xCDC DUP2 PUSH2 0xCB6 JUMP JUMPDEST SWAP3 SWAP2 POP POP JUMP JUMPDEST PUSH1 0x0 PUSH8 0xFFFFFFFFFFFFFFFF DUP3 GT ISZERO PUSH2 0xCFD JUMPI PUSH2 0xCFC PUSH2 0x480 JUMP JUMPDEST JUMPDEST PUSH2 0xD06 DUP3 PUSH2 0x46F JUMP JUMPDEST SWAP1 POP PUSH1 0x20 DUP2 ADD SWAP1 POP SWAP2 SWAP1 POP JUMP JUMPDEST PUSH1 0x0 PUSH2 0xD26 PUSH2 0xD21 DUP5 PUSH2 0xCE2 JUMP JUMPDEST PUSH2 0x4E0 JUMP JUMPDEST SWAP1 POP DUP3 DUP2 MSTORE PUSH1 0x20 DUP2 ADD DUP5 DUP5 DUP5 ADD GT ISZERO PUSH2 0xD42 JUMPI PUSH2 0xD41 PUSH2 0x46A JUMP JUMPDEST JUMPDEST PUSH2 0xD4D DUP5 DUP3 DUP6 PUSH2 0x7AB JUMP JUMPDEST POP SWAP4 SWAP3 POP POP POP JUMP JUMPDEST PUSH1 0x0 DUP3 PUSH1 0x1F DUP4 ADD SLT PUSH2 0xD6A JUMPI PUSH2 0xD69 PUSH2 0x465 JUMP JUMPDEST JUMPDEST DUP2 MLOAD PUSH2 0xD7A DUP5 DUP3 PUSH1 0x20 DUP7 ADD PUSH2 0xD13 JUMP JUMPDEST SWAP2 POP POP SWAP3 SWAP2 POP POP JUMP JUMPDEST PUSH1 0x0 PUSH2 0x140 DUP3 DUP5 SUB SLT ISZERO PUSH2 0xD9A JUMPI PUSH2 0xD99 PUSH2 0xB09 JUMP JUMPDEST JUMPDEST PUSH2 0xDA5 PUSH2 0x140 PUSH2 0x4E0 JUMP JUMPDEST SWAP1 POP PUSH1 0x0 PUSH2 0xDB5 DUP5 DUP3 DUP6 ADD PUSH2 0x906 JUMP JUMPDEST PUSH1 0x0 DUP4 ADD MSTORE POP PUSH1 0x20 PUSH2 0xDC9 DUP5 DUP3 DUP6 ADD PUSH2 0x906 JUMP JUMPDEST PUSH1 0x20 DUP4 ADD MSTORE POP PUSH1 0x40 PUSH2 0xDDD DUP5 DUP3 DUP6 ADD PUSH2 0xCA1 JUMP JUMPDEST PUSH1 0x40 DUP4 ADD MSTORE POP PUSH1 0x60 PUSH2 0xDF1 DUP5 DUP3 DUP6 ADD PUSH2 0xCA1 JUMP JUMPDEST PUSH1 0x60 DUP4 ADD MSTORE POP PUSH1 0x80 PUSH2 0xE05 DUP5 DUP3 DUP6 ADD PUSH2 0xCA1 JUMP JUMPDEST PUSH1 0x80 DUP4 ADD MSTORE POP PUSH1 0xA0 PUSH2 0xE19 DUP5 DUP3 DUP6 ADD PUSH2 0x906 JUMP JUMPDEST PUSH1 0xA0 DUP4 ADD MSTORE POP PUSH1 0xC0 PUSH2 0xE2D DUP5 DUP3 DUP6 ADD PUSH2 0xCCD JUMP JUMPDEST PUSH1 0xC0 DUP4 ADD MSTORE POP PUSH1 0xE0 PUSH2 0xE41 DUP5 DUP3 DUP6 ADD PUSH2 0xCCD JUMP JUMPDEST PUSH1 0xE0 DUP4 ADD MSTORE POP PUSH2 0x100 PUSH2 0xE56 DUP5 DUP3 DUP6 ADD PUSH2 0xB28 JUMP JUMPDEST PUSH2 0x100 DUP4 ADD MSTORE POP PUSH2 0x120 DUP3 ADD MLOAD PUSH8 0xFFFFFFFFFFFFFFFF DUP2 GT ISZERO PUSH2 0xE7C JUMPI PUSH2 0xE7B PUSH2 0xB0E JUMP JUMPDEST JUMPDEST PUSH2 0xE88 DUP5 DUP3 DUP6 ADD PUSH2 0xD55 JUMP JUMPDEST PUSH2 0x120 DUP4 ADD MSTORE POP SWAP3 SWAP2 POP POP JUMP JUMPDEST PUSH1 0x0 PUSH1 0x20 DUP3 DUP5 SUB SLT ISZERO PUSH2 0xEAB JUMPI PUSH2 0xEAA PUSH2 0x45B JUMP JUMPDEST JUMPDEST PUSH1 0x0 DUP3 ADD MLOAD PUSH8 0xFFFFFFFFFFFFFFFF DUP2 GT ISZERO PUSH2 0xEC9 JUMPI PUSH2 0xEC8 PUSH2 0x460 JUMP JUMPDEST JUMPDEST PUSH2 0xED5 DUP5 DUP3 DUP6 ADD PUSH2 0xD83 JUMP JUMPDEST SWAP2 POP POP SWAP3 SWAP2 POP POP JUMP INVALID LOG2 PUSH5 0x6970667358 0x22 SLT KECCAK256 0xB2 0xCF PUSH30 0xE1F872E516F9A93F489C1123CE13A888EF2F6AF73A8E555465F6A87F2864 PUSH20 0x6F6C634300081300330000000000000000000000 "
				},
				"gasEstimates": {
					"creation": {
						"codeDepositCost": "772000",
						"executionCost": "49339",
						"totalCost": "821339"
					},
					"external": {
						"attestUint(bytes32,bool)": "infinite",
						"get(bytes32)": "infinite",
						"getRecepient(bytes32)": "infinite",
						"registerSchema(string,address,bool)": "infinite"
					}
				},
				"methodIdentifiers": {
					"attestUint(bytes32,bool)": "7506fbe8",
					"get(bytes32)": "8eaa6ac0",
					"getRecepient(bytes32)": "b4648951",
					"registerSchema(string,address,bool)": "53d55cc0"
				}
			},
			"storageLayout": {
				"storage": [
					{
						"astId": 483,
						"contract": "contracts/ExampleAttestation.sol:ExampleAttester",
						"label": "_eas",
						"offset": 0,
						"slot": "0",
						"type": "t_contract(IEAS)356"
					},
					{
						"astId": 489,
						"contract": "contracts/ExampleAttestation.sol:ExampleAttester",
						"label": "_schemaregistry",
						"offset": 0,
						"slot": "1",
						"type": "t_contract(ISchemaRegistry)404"
					}
				],
				"types": {
					"t_contract(IEAS)356": {
						"encoding": "inplace",
						"label": "contract IEAS",
						"numberOfBytes": "20"
					},
					"t_contract(ISchemaRegistry)404": {
						"encoding": "inplace",
						"label": "contract ISchemaRegistry",
						"numberOfBytes": "20"
					}
				}
			},
			"userdoc": {
				"kind": "user",
				"methods": {},
				"version": 1
			}
		}
	}
}